{
  "contractName": "CompanyLogic",
  "abi": [
    {
      "constant": true,
      "inputs": [],
      "name": "Owner",
      "outputs": [
        {
          "name": "",
          "type": "address"
        }
      ],
      "payable": false,
      "stateMutability": "view",
      "type": "function",
      "signature": "0xb4a99a4e"
    },
    {
      "inputs": [
        {
          "name": "thisCurrentCompanyData",
          "type": "address"
        }
      ],
      "payable": false,
      "stateMutability": "nonpayable",
      "type": "constructor",
      "signature": "constructor"
    },
    {
      "constant": false,
      "inputs": [
        {
          "name": "thisCurrentCompanyData",
          "type": "address"
        }
      ],
      "name": "upgradeCompanyDataContract",
      "outputs": [],
      "payable": false,
      "stateMutability": "nonpayable",
      "type": "function",
      "signature": "0x4fd3f712"
    },
    {
      "constant": false,
      "inputs": [
        {
          "name": "newOwner",
          "type": "address"
        }
      ],
      "name": "setOwner",
      "outputs": [],
      "payable": false,
      "stateMutability": "nonpayable",
      "type": "function",
      "signature": "0x13af4035"
    },
    {
      "constant": false,
      "inputs": [
        {
          "name": "newOwner",
          "type": "address"
        }
      ],
      "name": "setOwnerOfDataContract",
      "outputs": [],
      "payable": false,
      "stateMutability": "nonpayable",
      "type": "function",
      "signature": "0x8a009aa4"
    },
    {
      "constant": false,
      "inputs": [
        {
          "name": "newId",
          "type": "uint256"
        },
        {
          "name": "name",
          "type": "string"
        }
      ],
      "name": "setCompanyInfo",
      "outputs": [],
      "payable": false,
      "stateMutability": "nonpayable",
      "type": "function",
      "signature": "0x10d545d9"
    },
    {
      "constant": false,
      "inputs": [
        {
          "name": "newRoundId",
          "type": "uint256"
        },
        {
          "name": "newName",
          "type": "string"
        }
      ],
      "name": "addNewRound",
      "outputs": [],
      "payable": false,
      "stateMutability": "nonpayable",
      "type": "function",
      "signature": "0x66bdcf5c"
    },
    {
      "constant": false,
      "inputs": [
        {
          "name": "newRoundId",
          "type": "uint256"
        },
        {
          "name": "newInvestorId",
          "type": "uint256"
        },
        {
          "name": "newNumSecurities",
          "type": "uint256"
        },
        {
          "name": "newSecurityType",
          "type": "string"
        },
        {
          "name": "newInvestor",
          "type": "bool"
        }
      ],
      "name": "addNewInvestment",
      "outputs": [],
      "payable": false,
      "stateMutability": "nonpayable",
      "type": "function",
      "signature": "0xe25c1d7a"
    },
    {
      "constant": false,
      "inputs": [
        {
          "name": "roundId",
          "type": "uint256"
        },
        {
          "name": "investorId",
          "type": "uint256"
        },
        {
          "name": "newNumSecurities",
          "type": "uint256"
        },
        {
          "name": "newSecurityType",
          "type": "string"
        },
        {
          "name": "removeInvestor",
          "type": "bool"
        }
      ],
      "name": "changeInvestment",
      "outputs": [],
      "payable": false,
      "stateMutability": "nonpayable",
      "type": "function",
      "signature": "0xf440831e"
    },
    {
      "constant": true,
      "inputs": [],
      "name": "getOwner",
      "outputs": [
        {
          "name": "",
          "type": "address"
        }
      ],
      "payable": false,
      "stateMutability": "view",
      "type": "function",
      "signature": "0x893d20e8"
    },
    {
      "constant": true,
      "inputs": [],
      "name": "getContractDataAddress",
      "outputs": [
        {
          "name": "",
          "type": "address"
        }
      ],
      "payable": false,
      "stateMutability": "view",
      "type": "function",
      "signature": "0x8b38a6c9"
    }
  ],
  "bytecode": "0x608060405234801561001057600080fd5b506040516020806121288339810180604052602081101561003057600080fd5b8101908080519060200190929190505050336000806101000a81548173ffffffffffffffffffffffffffffffffffffffff021916908373ffffffffffffffffffffffffffffffffffffffff16021790555080600160006101000a81548173ffffffffffffffffffffffffffffffffffffffff021916908373ffffffffffffffffffffffffffffffffffffffff16021790555050612056806100d26000396000f3fe6080604052600436106100a4576000357c0100000000000000000000000000000000000000000000000000000000900463ffffffff16806310d545d9146100a957806313af4035146101395780634fd3f7121461018a57806366bdcf5c146101db578063893d20e81461026b5780638a009aa4146102c25780638b38a6c914610313578063b4a99a4e1461036a578063e25c1d7a146103c1578063f440831e14610471575b600080fd5b3480156100b557600080fd5b50610137600480360360408110156100cc57600080fd5b8101908080359060200190929190803590602001906401000000008111156100f357600080fd5b82018360208201111561010557600080fd5b8035906020019184600183028401116401000000008311171561012757600080fd5b9091929391929390505050610521565b005b34801561014557600080fd5b506101886004803603602081101561015c57600080fd5b81019080803573ffffffffffffffffffffffffffffffffffffffff169060200190929190505050610768565b005b34801561019657600080fd5b506101d9600480360360208110156101ad57600080fd5b81019080803573ffffffffffffffffffffffffffffffffffffffff16906020019092919050505061086f565b005b3480156101e757600080fd5b50610269600480360360408110156101fe57600080fd5b81019080803590602001909291908035906020019064010000000081111561022557600080fd5b82018360208201111561023757600080fd5b8035906020019184600183028401116401000000008311171561025957600080fd5b9091929391929390505050610977565b005b34801561027757600080fd5b50610280610f0a565b604051808273ffffffffffffffffffffffffffffffffffffffff1673ffffffffffffffffffffffffffffffffffffffff16815260200191505060405180910390f35b3480156102ce57600080fd5b50610311600480360360208110156102e557600080fd5b81019080803573ffffffffffffffffffffffffffffffffffffffff169060200190929190505050610f33565b005b34801561031f57600080fd5b506103286110cf565b604051808273ffffffffffffffffffffffffffffffffffffffff1673ffffffffffffffffffffffffffffffffffffffff16815260200191505060405180910390f35b34801561037657600080fd5b5061037f6110f9565b604051808273ffffffffffffffffffffffffffffffffffffffff1673ffffffffffffffffffffffffffffffffffffffff16815260200191505060405180910390f35b3480156103cd57600080fd5b5061046f600480360360a08110156103e457600080fd5b810190808035906020019092919080359060200190929190803590602001909291908035906020019064010000000081111561041f57600080fd5b82018360208201111561043157600080fd5b8035906020019184600183028401116401000000008311171561045357600080fd5b909192939192939080351515906020019092919050505061111e565b005b34801561047d57600080fd5b5061051f600480360360a081101561049457600080fd5b81019080803590602001909291908035906020019092919080359060200190929190803590602001906401000000008111156104cf57600080fd5b8201836020820111156104e157600080fd5b8035906020019184600183028401116401000000008311171561050357600080fd5b9091929391929390803515159060200190929190505050611854565b005b3373ffffffffffffffffffffffffffffffffffffffff166000809054906101000a900473ffffffffffffffffffffffffffffffffffffffff1673ffffffffffffffffffffffffffffffffffffffff161415156105e5576040517f08c379a00000000000000000000000000000000000000000000000000000000081526004018080602001828103825260168152602001807f4e6f742074686520636f6e7472616374206f776e65720000000000000000000081525060200191505060405180910390fd5b600160009054906101000a900473ffffffffffffffffffffffffffffffffffffffff1673ffffffffffffffffffffffffffffffffffffffff166339015f0f846040518263ffffffff167c010000000000000000000000000000000000000000000000000000000002815260040180828152602001915050600060405180830381600087803b15801561067657600080fd5b505af115801561068a573d6000803e3d6000fd5b50505050600160009054906101000a900473ffffffffffffffffffffffffffffffffffffffff1673ffffffffffffffffffffffffffffffffffffffff1663eb3313f083836040518363ffffffff167c010000000000000000000000000000000000000000000000000000000002815260040180806020018281038252848482818152602001925080828437600081840152601f19601f8201169050808301925050509350505050600060405180830381600087803b15801561074b57600080fd5b505af115801561075f573d6000803e3d6000fd5b50505050505050565b3373ffffffffffffffffffffffffffffffffffffffff166000809054906101000a900473ffffffffffffffffffffffffffffffffffffffff1673ffffffffffffffffffffffffffffffffffffffff1614151561082c576040517f08c379a00000000000000000000000000000000000000000000000000000000081526004018080602001828103825260168152602001807f4e6f742074686520636f6e7472616374206f776e65720000000000000000000081525060200191505060405180910390fd5b806000806101000a81548173ffffffffffffffffffffffffffffffffffffffff021916908373ffffffffffffffffffffffffffffffffffffffff16021790555050565b3373ffffffffffffffffffffffffffffffffffffffff166000809054906101000a900473ffffffffffffffffffffffffffffffffffffffff1673ffffffffffffffffffffffffffffffffffffffff16141515610933576040517f08c379a00000000000000000000000000000000000000000000000000000000081526004018080602001828103825260168152602001807f4e6f742074686520636f6e7472616374206f776e65720000000000000000000081525060200191505060405180910390fd5b80600160006101000a81548173ffffffffffffffffffffffffffffffffffffffff021916908373ffffffffffffffffffffffffffffffffffffffff16021790555050565b3373ffffffffffffffffffffffffffffffffffffffff166000809054906101000a900473ffffffffffffffffffffffffffffffffffffffff1673ffffffffffffffffffffffffffffffffffffffff16141515610a3b576040517f08c379a00000000000000000000000000000000000000000000000000000000081526004018080602001828103825260168152602001807f4e6f742074686520636f6e7472616374206f776e65720000000000000000000081525060200191505060405180910390fd5b6060600160009054906101000a900473ffffffffffffffffffffffffffffffffffffffff1673ffffffffffffffffffffffffffffffffffffffff1663aa48221d856040518263ffffffff167c01000000000000000000000000000000000000000000000000000000000281526004018082815260200191505060006040518083038186803b158015610acc57600080fd5b505afa158015610ae0573d6000803e3d6000fd5b505050506040513d6000823e3d601f19601f820116820180604052506020811015610b0a57600080fd5b810190808051640100000000811115610b2257600080fd5b82810190506020810184811115610b3857600080fd5b8151856001820283011164010000000082111715610b5557600080fd5b5050929190505050905060405160200180600001905060405160208183030381529060405280519060200120816040516020018082805190602001908083835b602083101515610bba5780518252602082019150602081019050602083039250610b95565b6001836020036101000a038019825116818451168082178552505050505050905001915050604051602081830303815290604052805190602001201415610e7057600160009054906101000a900473ffffffffffffffffffffffffffffffffffffffff1673ffffffffffffffffffffffffffffffffffffffff166366bdcf5c8585856040518463ffffffff167c010000000000000000000000000000000000000000000000000000000002815260040180848152602001806020018281038252848482818152602001925080828437600081840152601f19601f820116905080830192505050945050505050600060405180830381600087803b158015610cc057600080fd5b505af1158015610cd4573d6000803e3d6000fd5b50505050600160009054906101000a900473ffffffffffffffffffffffffffffffffffffffff1673ffffffffffffffffffffffffffffffffffffffff16639af6eed18585856040518463ffffffff167c010000000000000000000000000000000000000000000000000000000002815260040180848152602001806020018281038252848482818152602001925080828437600081840152601f19601f820116905080830192505050945050505050600060405180830381600087803b158015610d9d57600080fd5b505af1158015610db1573d6000803e3d6000fd5b50505050600160009054906101000a900473ffffffffffffffffffffffffffffffffffffffff1673ffffffffffffffffffffffffffffffffffffffff166362367d4d6001806040518363ffffffff167c0100000000000000000000000000000000000000000000000000000000028152600401808315151515815260200182815260200192505050600060405180830381600087803b158015610e5357600080fd5b505af1158015610e67573d6000803e3d6000fd5b50505050610f04565b6040517f08c379a00000000000000000000000000000000000000000000000000000000081526004018080602001828103825260218152602001807f5468697320726f756e642068617320616c7265616479206265656e206164646581526020017f640000000000000000000000000000000000000000000000000000000000000081525060400191505060405180910390fd5b50505050565b60008060009054906101000a900473ffffffffffffffffffffffffffffffffffffffff16905090565b3373ffffffffffffffffffffffffffffffffffffffff166000809054906101000a900473ffffffffffffffffffffffffffffffffffffffff1673ffffffffffffffffffffffffffffffffffffffff16141515610ff7576040517f08c379a00000000000000000000000000000000000000000000000000000000081526004018080602001828103825260168152602001807f4e6f742074686520636f6e7472616374206f776e65720000000000000000000081525060200191505060405180910390fd5b600160009054906101000a900473ffffffffffffffffffffffffffffffffffffffff1673ffffffffffffffffffffffffffffffffffffffff166313af4035826040518263ffffffff167c0100000000000000000000000000000000000000000000000000000000028152600401808273ffffffffffffffffffffffffffffffffffffffff1673ffffffffffffffffffffffffffffffffffffffff168152602001915050600060405180830381600087803b1580156110b457600080fd5b505af11580156110c8573d6000803e3d6000fd5b5050505050565b6000600160009054906101000a900473ffffffffffffffffffffffffffffffffffffffff16905090565b6000809054906101000a900473ffffffffffffffffffffffffffffffffffffffff1681565b3373ffffffffffffffffffffffffffffffffffffffff166000809054906101000a900473ffffffffffffffffffffffffffffffffffffffff1673ffffffffffffffffffffffffffffffffffffffff161415156111e2576040517f08c379a00000000000000000000000000000000000000000000000000000000081526004018080602001828103825260168152602001807f4e6f742074686520636f6e7472616374206f776e65720000000000000000000081525060200191505060405180910390fd5b6000600160009054906101000a900473ffffffffffffffffffffffffffffffffffffffff1673ffffffffffffffffffffffffffffffffffffffff166380fa7e8a88886040518363ffffffff167c0100000000000000000000000000000000000000000000000000000000028152600401808381526020018281526020019250505060206040518083038186803b15801561127b57600080fd5b505afa15801561128f573d6000803e3d6000fd5b505050506040513d60208110156112a557600080fd5b810190808051906020019092919050505090506060600160009054906101000a900473ffffffffffffffffffffffffffffffffffffffff1673ffffffffffffffffffffffffffffffffffffffff16634432181989896040518363ffffffff167c0100000000000000000000000000000000000000000000000000000000028152600401808381526020018281526020019250505060006040518083038186803b15801561135157600080fd5b505afa158015611365573d6000803e3d6000fd5b505050506040513d6000823e3d601f19601f82011682018060405250602081101561138f57600080fd5b8101908080516401000000008111156113a757600080fd5b828101905060208101848111156113bd57600080fd5b81518560018202830111640100000000821117156113da57600080fd5b50509291905050509050600082148015611487575060405160200180600001905060405160208183030381529060405280519060200120816040516020018082805190602001908083835b60208310151561144a5780518252602082019150602081019050602083039250611425565b6001836020036101000a03801982511681845116808217855250505050505090500191505060405160208183030381529060405280519060200120145b156117b657600160009054906101000a900473ffffffffffffffffffffffffffffffffffffffff1673ffffffffffffffffffffffffffffffffffffffff16636067144589898989896040518663ffffffff167c010000000000000000000000000000000000000000000000000000000002815260040180868152602001858152602001848152602001806020018281038252848482818152602001925080828437600081840152601f19601f8201169050808301925050509650505050505050600060405180830381600087803b15801561156157600080fd5b505af1158015611575573d6000803e3d6000fd5b50505050600160009054906101000a900473ffffffffffffffffffffffffffffffffffffffff1673ffffffffffffffffffffffffffffffffffffffff16639839ac116001808b6040518463ffffffff167c010000000000000000000000000000000000000000000000000000000002815260040180841515151581526020018381526020018281526020019350505050600060405180830381600087803b15801561161f57600080fd5b505af1158015611633573d6000803e3d6000fd5b50505050600160009054906101000a900473ffffffffffffffffffffffffffffffffffffffff1673ffffffffffffffffffffffffffffffffffffffff16638c7f108c6001886040518363ffffffff167c0100000000000000000000000000000000000000000000000000000000028152600401808315151515815260200182815260200192505050600060405180830381600087803b1580156116d557600080fd5b505af11580156116e9573d6000803e3d6000fd5b505050506001151583151514156117b157600160009054906101000a900473ffffffffffffffffffffffffffffffffffffffff1673ffffffffffffffffffffffffffffffffffffffff16631e8baaab6001806040518363ffffffff167c0100000000000000000000000000000000000000000000000000000000028152600401808315151515815260200182815260200192505050600060405180830381600087803b15801561179857600080fd5b505af11580156117ac573d6000803e3d6000fd5b505050505b61184a565b6040517f08c379a00000000000000000000000000000000000000000000000000000000081526004018080602001828103825260268152602001807f5468697320696e766573746d656e742068617320616c7265616479206265656e81526020017f206164646564000000000000000000000000000000000000000000000000000081525060400191505060405180910390fd5b5050505050505050565b3373ffffffffffffffffffffffffffffffffffffffff166000809054906101000a900473ffffffffffffffffffffffffffffffffffffffff1673ffffffffffffffffffffffffffffffffffffffff16141515611918576040517f08c379a00000000000000000000000000000000000000000000000000000000081526004018080602001828103825260168152602001807f4e6f742074686520636f6e7472616374206f776e65720000000000000000000081525060200191505060405180910390fd5b6060600160009054906101000a900473ffffffffffffffffffffffffffffffffffffffff1673ffffffffffffffffffffffffffffffffffffffff16634432181988886040518363ffffffff167c0100000000000000000000000000000000000000000000000000000000028152600401808381526020018281526020019250505060006040518083038186803b1580156119b157600080fd5b505afa1580156119c5573d6000803e3d6000fd5b505050506040513d6000823e3d601f19601f8201168201806040525060208110156119ef57600080fd5b810190808051640100000000811115611a0757600080fd5b82810190506020810184811115611a1d57600080fd5b8151856001820283011164010000000082111715611a3a57600080fd5b505092919050505090506000600160009054906101000a900473ffffffffffffffffffffffffffffffffffffffff1673ffffffffffffffffffffffffffffffffffffffff166380fa7e8a89896040518363ffffffff167c0100000000000000000000000000000000000000000000000000000000028152600401808381526020018281526020019250505060206040518083038186803b158015611add57600080fd5b505afa158015611af1573d6000803e3d6000fd5b505050506040513d6020811015611b0757600080fd5b8101908080519060200190929190505050905060405160200180600001905060405160208183030381529060405280519060200120826040516020018082805190602001908083835b602083101515611b755780518252602082019150602081019050602083039250611b50565b6001836020036101000a03801982511681845116808217855250505050505090500191505060405160208183030381529060405280519060200120141515611f8c57600160009054906101000a900473ffffffffffffffffffffffffffffffffffffffff1673ffffffffffffffffffffffffffffffffffffffff16636067144589898989896040518663ffffffff167c010000000000000000000000000000000000000000000000000000000002815260040180868152602001858152602001848152602001806020018281038252848482818152602001925080828437600081840152601f19601f8201169050808301925050509650505050505050600060405180830381600087803b158015611c8c57600080fd5b505af1158015611ca0573d6000803e3d6000fd5b50505050600160009054906101000a900473ffffffffffffffffffffffffffffffffffffffff1673ffffffffffffffffffffffffffffffffffffffff16638c7f108c6000836040518363ffffffff167c0100000000000000000000000000000000000000000000000000000000028152600401808315151515815260200182815260200192505050600060405180830381600087803b158015611d4257600080fd5b505af1158015611d56573d6000803e3d6000fd5b50505050600160009054906101000a900473ffffffffffffffffffffffffffffffffffffffff1673ffffffffffffffffffffffffffffffffffffffff16638c7f108c6001886040518363ffffffff167c0100000000000000000000000000000000000000000000000000000000028152600401808315151515815260200182815260200192505050600060405180830381600087803b158015611df857600080fd5b505af1158015611e0c573d6000803e3d6000fd5b50505050600086148015611e24575060011515831515145b15611ee557600160009054906101000a900473ffffffffffffffffffffffffffffffffffffffff1673ffffffffffffffffffffffffffffffffffffffff16631e8baaab600060016040518363ffffffff167c0100000000000000000000000000000000000000000000000000000000028152600401808315151515815260200182815260200192505050600060405180830381600087803b158015611ec857600080fd5b505af1158015611edc573d6000803e3d6000fd5b50505050611f87565b600115158315151415611f86576040517f08c379a000000000000000000000000000000000000000000000000000000000815260040180806020018281038252603b8152602001807f43616e6e6f742072656d6f766520696e766573746f7220696620746865206e6581526020017f774e756d53656375726974696573206973207374696c6c203e2030000000000081525060400191505060405180910390fd5b5b612020565b6040517f08c379a00000000000000000000000000000000000000000000000000000000081526004018080602001828103825260288152602001807f596f752063616e206f6e6c79206368616e676520612063757272656e7420696e81526020017f766573746d656e7400000000000000000000000000000000000000000000000081525060400191505060405180910390fd5b505050505050505056fea165627a7a723058201bb948e822d797c0cc4316eddbf7943604be4458795733362dfb4c5f6e6b444f0029",
  "source": "pragma solidity ^0.5.0;\nimport \"./CompanyData.sol\";\n\n//** This contract holds information on:\n//**\n\ncontract CompanyLogic {\n    \n    //holds the address of the contract creator\n    address public Owner;\n    //The current CompanyData contract\n    CompanyData CurrentCompanyData;\n    \n    /******** Start of modifiers *********/\n\t\n\t//** any function containing this modifier, only allows the contract owner to call it**//\n\tmodifier ifOwner(){\n        if(Owner != msg.sender){\n            revert(\"Not the contract owner\");\n        }else{\n            _; //means continue on the functions that called it\n        }\n    }\n\n\t/******** End of Modifiers  *********/\n\t\n\t\t//** The constructor sets the smart contract owner as the address that put the create contract transaction onto the blockchain**//\n    constructor (address thisCurrentCompanyData) public {\n    \n            Owner = msg.sender;\n            CurrentCompanyData = CompanyData(thisCurrentCompanyData);\n            \n    }  \n    \n    function upgradeCompanyDataContract(address thisCurrentCompanyData) external ifOwner {\n        CurrentCompanyData = CompanyData(thisCurrentCompanyData);\n    }\n\n\t\n    /*********************Start of SET functions**************************************************/\n\n    function setOwner(address newOwner) external ifOwner {\n        \n        Owner = newOwner;\n        \n    } \n    \n    function setOwnerOfDataContract(address newOwner) external ifOwner {\n        \n        CurrentCompanyData.setOwner(newOwner);\n        \n    } \n\n     function setCompanyInfo(uint newId, string calldata name) external ifOwner {\n        //only set companyId if it is not already set\n//        uint currentCompanyId = CurrentCompanyData.getCompanyId();\n//        if (currentCompanyId == 0){\n            CurrentCompanyData.setCompanyId(newId);    \n//        } else {\n    //        revert(\"The company's ID has already been set\");\n //       }\n//        if (keccak256(abi.encodePacked(name)) == keccak256(abi.encodePacked(\"\"))){\n            CurrentCompanyData.setCompanyName(name);\n //       } else {\n  //          revert(\"The company's name has already been set\");\n//        }\n        \n    }\n\n    function addNewRound(uint newRoundId, string calldata newName) external ifOwner {\n\n        //only set the newRound if it is not already set\n        string memory currentRoundName = CurrentCompanyData.getRoundName(newRoundId);\n        if (keccak256(abi.encodePacked(currentRoundName)) == keccak256(abi.encodePacked(\"\"))){\n           CurrentCompanyData.addNewRound(newRoundId, newName);\n           CurrentCompanyData.addNewRoundName(newRoundId, newName);\n           CurrentCompanyData.changeRoundCounter(true, 1);\n        } else {\n            revert(\"This round has already been added\");\n        }\n    }\n    \n    function addNewInvestment(uint newRoundId, uint newInvestorId, uint newNumSecurities, string calldata newSecurityType, bool newInvestor) external ifOwner {\n\n        //If the new security type has not been saved then save it\n       // if (securityTypeId == 0){\n         //  uint newTypeId = CurrentCompanyData.getNumOfSecurityTypes() + 1;\n         //  CurrentCompanyData.addNewSecurityType(newTypeId, newSecurityType);\n        //}\n        //only set the new Investment if it is not already set\n        uint currentNumSecurities = CurrentCompanyData.getInvestmentNumSecurities(newRoundId, newInvestorId);\n        string memory currentSecurityType = CurrentCompanyData.getInvestmentSecurityType(newRoundId, newInvestorId);\n        if ((currentNumSecurities == 0)&&(keccak256(abi.encodePacked(currentSecurityType)) == keccak256(abi.encodePacked(\"\")))){\n            CurrentCompanyData.changeInvestment(newRoundId, newInvestorId, newNumSecurities,newSecurityType);\n            CurrentCompanyData.changeNextFreeInvestmentCounter(true, 1, newRoundId);\n            CurrentCompanyData.changeActiveSecuritiesCount(true, newNumSecurities);\n            if (newInvestor == true){\n                CurrentCompanyData.changeActiveInvestorsCount(true, 1);\n            }\n        } else {\n            revert(\"This investment has already been added\");\n        }\n        \n    }\n    \n    function changeInvestment(uint roundId, uint investorId, uint newNumSecurities, string calldata newSecurityType, bool removeInvestor) external ifOwner {\n\n        //If the new security type has not been saved then save it\n       // if (securityTypeId == 0){\n         //  uint newTypeId = CurrentCompanyData.getNumOfSecurityTypes() + 1;\n           //CurrentCompanyData.addNewSecurityType(newTypeId, newSecurityType);\n        //}\n        //only change the new Investment if it is already set\n        string memory currentSecurityType = CurrentCompanyData.getInvestmentSecurityType(roundId, investorId);\n        uint currentNumSecurities = CurrentCompanyData.getInvestmentNumSecurities(roundId, investorId);\n        if ((keccak256(abi.encodePacked(currentSecurityType)) != keccak256(abi.encodePacked(\"\")))){\n            CurrentCompanyData.changeInvestment(roundId, investorId, newNumSecurities, newSecurityType);\n            CurrentCompanyData.changeActiveSecuritiesCount(false, currentNumSecurities);\n            CurrentCompanyData.changeActiveSecuritiesCount(true, newNumSecurities);\n            if ((newNumSecurities == 0)&&(removeInvestor == true)){\n                CurrentCompanyData.changeActiveInvestorsCount(false, 1);\n            } else if (removeInvestor == true) {\n                revert(\"Cannot remove investor if the newNumSecurities is still > 0\");\n            }\n        } else {\n            revert(\"You can only change a current investment\");\n        }\n        \n    }\n    \n\n    \n\n    /***********************End of SET functions**************************************************/\n\n\n    /*********************Start of GET functions**************************************************/\n\n\n    function getOwner() public view returns (address){\n        return Owner;\n    }\n    \n    function getContractDataAddress() public view returns (address){\n        return address(CurrentCompanyData);\n    }\n    /***********************End of GET functions**************************************************/\n\n    \n}\n",
  "sourcePath": "/home/luke/Documents/Code/AAMAS/volt_v2/TruffleVersion/contracts/CompanyLogic.sol",
  "compiler": {
    "name": "solc",
    "version": "0.5.0+commit.1d4f565a.Emscripten.clang"
  },
  "schemaVersion": "3.0.1",
  "updatedAt": "2019-05-15T17:07:17.063Z",
  "devdoc": {
    "methods": {}
  },
  "userdoc": {
    "methods": {
      "constructor": "****** End of Modifiers  ********",
      "getOwner()": {
        "notice": "*******************Start of GET functions*************************************************"
      },
      "setOwner(address)": {
        "notice": "*******************Start of SET functions*************************************************"
      }
    }
  }
}