{
  "contractName": "CompanyManagementData",
  "abi": [
    {
      "inputs": [],
      "payable": false,
      "stateMutability": "nonpayable",
      "type": "constructor",
      "signature": "constructor"
    },
    {
      "constant": false,
      "inputs": [
        {
          "name": "newOwner",
          "type": "address"
        }
      ],
      "name": "setOwner",
      "outputs": [],
      "payable": false,
      "stateMutability": "nonpayable",
      "type": "function",
      "signature": "0x13af4035"
    },
    {
      "constant": false,
      "inputs": [
        {
          "name": "newCompanyAddress",
          "type": "address"
        },
        {
          "name": "companyAddressCount",
          "type": "uint256"
        }
      ],
      "name": "addNewCompanyAddress",
      "outputs": [],
      "payable": false,
      "stateMutability": "nonpayable",
      "type": "function",
      "signature": "0x881db006"
    },
    {
      "constant": false,
      "inputs": [
        {
          "name": "add",
          "type": "bool"
        },
        {
          "name": "number",
          "type": "uint256"
        }
      ],
      "name": "changeNumberOfCompanyCounter",
      "outputs": [],
      "payable": false,
      "stateMutability": "nonpayable",
      "type": "function",
      "signature": "0x613a97cf"
    },
    {
      "constant": false,
      "inputs": [
        {
          "name": "companyAddress",
          "type": "address"
        },
        {
          "name": "newVotingAddress",
          "type": "address"
        },
        {
          "name": "votingContractCount",
          "type": "uint256"
        }
      ],
      "name": "addVotingContractAddress",
      "outputs": [],
      "payable": false,
      "stateMutability": "nonpayable",
      "type": "function",
      "signature": "0xa5fe8632"
    },
    {
      "constant": false,
      "inputs": [
        {
          "name": "companyAddress",
          "type": "address"
        },
        {
          "name": "votingContract",
          "type": "address"
        },
        {
          "name": "used",
          "type": "bool"
        }
      ],
      "name": "addVotingContractUsed",
      "outputs": [],
      "payable": false,
      "stateMutability": "nonpayable",
      "type": "function",
      "signature": "0xc4084eb9"
    },
    {
      "constant": false,
      "inputs": [
        {
          "name": "add",
          "type": "bool"
        },
        {
          "name": "number",
          "type": "uint256"
        },
        {
          "name": "companyAddress",
          "type": "address"
        }
      ],
      "name": "changeVotingContractCount",
      "outputs": [],
      "payable": false,
      "stateMutability": "nonpayable",
      "type": "function",
      "signature": "0xdfd78f7f"
    },
    {
      "constant": true,
      "inputs": [],
      "name": "getOwner",
      "outputs": [
        {
          "name": "",
          "type": "address"
        }
      ],
      "payable": false,
      "stateMutability": "view",
      "type": "function",
      "signature": "0x893d20e8"
    },
    {
      "constant": true,
      "inputs": [
        {
          "name": "companyAddressId",
          "type": "uint256"
        }
      ],
      "name": "getCompanyAddress",
      "outputs": [
        {
          "name": "",
          "type": "address"
        }
      ],
      "payable": false,
      "stateMutability": "view",
      "type": "function",
      "signature": "0x3fba851c"
    },
    {
      "constant": true,
      "inputs": [],
      "name": "getNumberOfCompanyAddresses",
      "outputs": [
        {
          "name": "",
          "type": "uint256"
        }
      ],
      "payable": false,
      "stateMutability": "view",
      "type": "function",
      "signature": "0xd76b4e11"
    },
    {
      "constant": true,
      "inputs": [
        {
          "name": "companyAddress",
          "type": "address"
        }
      ],
      "name": "getCompanyNumberOfVotingContracts",
      "outputs": [
        {
          "name": "",
          "type": "uint256"
        }
      ],
      "payable": false,
      "stateMutability": "view",
      "type": "function",
      "signature": "0x122b255c"
    },
    {
      "constant": true,
      "inputs": [
        {
          "name": "companyAddress",
          "type": "address"
        },
        {
          "name": "votingContractCount",
          "type": "uint256"
        }
      ],
      "name": "getCompanyVotingAddress",
      "outputs": [
        {
          "name": "",
          "type": "address"
        }
      ],
      "payable": false,
      "stateMutability": "view",
      "type": "function",
      "signature": "0x25635dfe"
    },
    {
      "constant": true,
      "inputs": [
        {
          "name": "companyAddress",
          "type": "address"
        },
        {
          "name": "votingContract",
          "type": "address"
        }
      ],
      "name": "getCompanyVotingContractUsed",
      "outputs": [
        {
          "name": "",
          "type": "bool"
        }
      ],
      "payable": false,
      "stateMutability": "view",
      "type": "function",
      "signature": "0x8a06128a"
    }
  ],
  "bytecode": "0x608060405234801561001057600080fd5b50336000806101000a81548173ffffffffffffffffffffffffffffffffffffffff021916908373ffffffffffffffffffffffffffffffffffffffff160217905550610f53806100606000396000f3fe6080604052600436106100ba576000357c0100000000000000000000000000000000000000000000000000000000900463ffffffff168063122b255c146100bf57806313af40351461012457806325635dfe146101755780633fba851c14610210578063613a97cf1461028b578063881db006146102d2578063893d20e81461032d5780638a06128a14610384578063a5fe86321461040d578063c4084eb914610488578063d76b4e1114610505578063dfd78f7f14610530575b600080fd5b3480156100cb57600080fd5b5061010e600480360360208110156100e257600080fd5b81019080803573ffffffffffffffffffffffffffffffffffffffff169060200190929190505050610597565b6040518082815260200191505060405180910390f35b34801561013057600080fd5b506101736004803603602081101561014757600080fd5b81019080803573ffffffffffffffffffffffffffffffffffffffff1690602001909291905050506105e3565b005b34801561018157600080fd5b506101ce6004803603604081101561019857600080fd5b81019080803573ffffffffffffffffffffffffffffffffffffffff169060200190929190803590602001909291905050506106ea565b604051808273ffffffffffffffffffffffffffffffffffffffff1673ffffffffffffffffffffffffffffffffffffffff16815260200191505060405180910390f35b34801561021c57600080fd5b506102496004803603602081101561023357600080fd5b8101908080359060200190929190505050610768565b604051808273ffffffffffffffffffffffffffffffffffffffff1673ffffffffffffffffffffffffffffffffffffffff16815260200191505060405180910390f35b34801561029757600080fd5b506102d0600480360360408110156102ae57600080fd5b81019080803515159060200190929190803590602001909291905050506107a5565b005b3480156102de57600080fd5b5061032b600480360360408110156102f557600080fd5b81019080803573ffffffffffffffffffffffffffffffffffffffff16906020019092919080359060200190929190505050610896565b005b34801561033957600080fd5b506103426109b0565b604051808273ffffffffffffffffffffffffffffffffffffffff1673ffffffffffffffffffffffffffffffffffffffff16815260200191505060405180910390f35b34801561039057600080fd5b506103f3600480360360408110156103a757600080fd5b81019080803573ffffffffffffffffffffffffffffffffffffffff169060200190929190803573ffffffffffffffffffffffffffffffffffffffff1690602001909291905050506109d9565b604051808215151515815260200191505060405180910390f35b34801561041957600080fd5b506104866004803603606081101561043057600080fd5b81019080803573ffffffffffffffffffffffffffffffffffffffff169060200190929190803573ffffffffffffffffffffffffffffffffffffffff16906020019092919080359060200190929190505050610a70565b005b34801561049457600080fd5b50610503600480360360608110156104ab57600080fd5b81019080803573ffffffffffffffffffffffffffffffffffffffff169060200190929190803573ffffffffffffffffffffffffffffffffffffffff169060200190929190803515159060200190929190505050610bcb565b005b34801561051157600080fd5b5061051a610d2b565b6040518082815260200191505060405180910390f35b34801561053c57600080fd5b506105956004803603606081101561055357600080fd5b8101908080351515906020019092919080359060200190929190803573ffffffffffffffffffffffffffffffffffffffff169060200190929190505050610d35565b005b6000600360008373ffffffffffffffffffffffffffffffffffffffff1673ffffffffffffffffffffffffffffffffffffffff168152602001908152602001600020600201549050919050565b3373ffffffffffffffffffffffffffffffffffffffff166000809054906101000a900473ffffffffffffffffffffffffffffffffffffffff1673ffffffffffffffffffffffffffffffffffffffff161415156106a7576040517f08c379a00000000000000000000000000000000000000000000000000000000081526004018080602001828103825260168152602001807f4e6f742074686520636f6e7472616374206f776e65720000000000000000000081525060200191505060405180910390fd5b806000806101000a81548173ffffffffffffffffffffffffffffffffffffffff021916908373ffffffffffffffffffffffffffffffffffffffff16021790555050565b6000600360008473ffffffffffffffffffffffffffffffffffffffff1673ffffffffffffffffffffffffffffffffffffffff168152602001908152602001600020600001600083815260200190815260200160002060009054906101000a900473ffffffffffffffffffffffffffffffffffffffff16905092915050565b60006001600083815260200190815260200160002060009054906101000a900473ffffffffffffffffffffffffffffffffffffffff169050919050565b3373ffffffffffffffffffffffffffffffffffffffff166000809054906101000a900473ffffffffffffffffffffffffffffffffffffffff1673ffffffffffffffffffffffffffffffffffffffff16141515610869576040517f08c379a00000000000000000000000000000000000000000000000000000000081526004018080602001828103825260168152602001807f4e6f742074686520636f6e7472616374206f776e65720000000000000000000081525060200191505060405180910390fd5b600115158215151415610886578060025401600281905550610892565b80600254036002819055505b5050565b3373ffffffffffffffffffffffffffffffffffffffff166000809054906101000a900473ffffffffffffffffffffffffffffffffffffffff1673ffffffffffffffffffffffffffffffffffffffff1614151561095a576040517f08c379a00000000000000000000000000000000000000000000000000000000081526004018080602001828103825260168152602001807f4e6f742074686520636f6e7472616374206f776e65720000000000000000000081525060200191505060405180910390fd5b816001600083815260200190815260200160002060006101000a81548173ffffffffffffffffffffffffffffffffffffffff021916908373ffffffffffffffffffffffffffffffffffffffff1602179055505050565b60008060009054906101000a900473ffffffffffffffffffffffffffffffffffffffff16905090565b6000600360008473ffffffffffffffffffffffffffffffffffffffff1673ffffffffffffffffffffffffffffffffffffffff16815260200190815260200160002060010160008373ffffffffffffffffffffffffffffffffffffffff1673ffffffffffffffffffffffffffffffffffffffff16815260200190815260200160002060009054906101000a900460ff16905092915050565b3373ffffffffffffffffffffffffffffffffffffffff166000809054906101000a900473ffffffffffffffffffffffffffffffffffffffff1673ffffffffffffffffffffffffffffffffffffffff16141515610b34576040517f08c379a00000000000000000000000000000000000000000000000000000000081526004018080602001828103825260168152602001807f4e6f742074686520636f6e7472616374206f776e65720000000000000000000081525060200191505060405180910390fd5b81600360008573ffffffffffffffffffffffffffffffffffffffff1673ffffffffffffffffffffffffffffffffffffffff168152602001908152602001600020600001600083815260200190815260200160002060006101000a81548173ffffffffffffffffffffffffffffffffffffffff021916908373ffffffffffffffffffffffffffffffffffffffff160217905550505050565b3373ffffffffffffffffffffffffffffffffffffffff166000809054906101000a900473ffffffffffffffffffffffffffffffffffffffff1673ffffffffffffffffffffffffffffffffffffffff16141515610c8f576040517f08c379a00000000000000000000000000000000000000000000000000000000081526004018080602001828103825260168152602001807f4e6f742074686520636f6e7472616374206f776e65720000000000000000000081525060200191505060405180910390fd5b80600360008573ffffffffffffffffffffffffffffffffffffffff1673ffffffffffffffffffffffffffffffffffffffff16815260200190815260200160002060010160008473ffffffffffffffffffffffffffffffffffffffff1673ffffffffffffffffffffffffffffffffffffffff16815260200190815260200160002060006101000a81548160ff021916908315150217905550505050565b6000600254905090565b3373ffffffffffffffffffffffffffffffffffffffff166000809054906101000a900473ffffffffffffffffffffffffffffffffffffffff1673ffffffffffffffffffffffffffffffffffffffff16141515610df9576040517f08c379a00000000000000000000000000000000000000000000000000000000081526004018080602001828103825260168152602001807f4e6f742074686520636f6e7472616374206f776e65720000000000000000000081525060200191505060405180910390fd5b600115158315151415610e965781600360008373ffffffffffffffffffffffffffffffffffffffff1673ffffffffffffffffffffffffffffffffffffffff1681526020019081526020016000206002015401600360008373ffffffffffffffffffffffffffffffffffffffff1673ffffffffffffffffffffffffffffffffffffffff16815260200190815260200160002060020181905550610f22565b81600360008373ffffffffffffffffffffffffffffffffffffffff1673ffffffffffffffffffffffffffffffffffffffff1681526020019081526020016000206002015403600360008373ffffffffffffffffffffffffffffffffffffffff1673ffffffffffffffffffffffffffffffffffffffff168152602001908152602001600020600201819055505b50505056fea165627a7a723058200f72eaabc6fa8e93de9bb3d5959ee819ee7c3756eeaf5d46496db64b39732e2a0029",
  "source": "pragma solidity ^0.5.0;\n\n//** This contract holds information on:\n//** All the listed companies\n//** All the listed voting contracts\n\ncontract CompanyManagementData {\n    \n    //holds the address of the contract creator\n    address Owner;\n    mapping (uint => address) companyAddresses;\n    uint numberOfCompanyAddresses;\n    mapping (address => CompanyContract) companies;\n    \n    /******** Start of modifiers *********/\n\t\n\t//** any function containing this modifier, only allows the contract owner to call it**//\n\tmodifier ifOwner(){\n        if(Owner != msg.sender){\n            revert(\"Not the contract owner\");\n        }else{\n            _; //means continue on the functions that called it\n        }\n    }\n\n\t/******** End of Modifiers  *********/\n\t\n\n    /******** Start of Structures *********/\n    \n    struct CompanyContract {\n\n        //addresses of any voting contracts\n        mapping (uint => address) votingContractAddresses;\n        mapping (address => bool) votingContractUsed;\n        //number of voting contracts\n        uint votingContractCount;\n    }\n    \n    /******** End of Structures *********/\n    \n    \t//** The constructor sets the smart contract owner as the address that put the create contract transaction onto the blockchain**//\n    constructor () public {\n    \n            Owner = msg.sender;\n            \n    } \n    \n    /*********************Start of SET functions**************************************************/\n        \n        function setOwner(address newOwner) external ifOwner {\n        \n            Owner = newOwner;\n        \n        } \n        \n        function addNewCompanyAddress(address newCompanyAddress, uint companyAddressCount) external ifOwner {\n        \n            companyAddresses[companyAddressCount] = newCompanyAddress;\n        \n        }\n        \n        function changeNumberOfCompanyCounter(bool add, uint number) external ifOwner{\n            \n            if (add == true){\n                numberOfCompanyAddresses = numberOfCompanyAddresses + number;\n            } else {\n                numberOfCompanyAddresses = numberOfCompanyAddresses - number;\n            }\n            \n        }\n        \n        function addVotingContractAddress(address companyAddress, address newVotingAddress, uint votingContractCount) external ifOwner {\n         \n            companies[companyAddress].votingContractAddresses[votingContractCount] = newVotingAddress;\n            \n        }\n        \n        function addVotingContractUsed(address companyAddress, address votingContract, bool used) external ifOwner {\n            companies[companyAddress].votingContractUsed[votingContract] = used;\n        }\n        \n        function changeVotingContractCount(bool add, uint number, address companyAddress) external ifOwner{\n            \n            if (add == true){\n                companies[companyAddress].votingContractCount = companies[companyAddress].votingContractCount  + number;\n            } else {\n                companies[companyAddress].votingContractCount  = companies[companyAddress].votingContractCount  - number;\n            }\n            \n        }\n    \n    \n    /*********************End of SET functions**************************************************/    \n    \n    /*********************Start of GET functions**************************************************/\n    \n    function getOwner() public view returns (address){\n        return Owner;\n    }\n    \n    function getCompanyAddress(uint companyAddressId) public view returns (address){\n        return  companyAddresses[companyAddressId];\n    }\n    \n    function getNumberOfCompanyAddresses() public view returns (uint){\n        return  numberOfCompanyAddresses;\n    }\n    \n    function getCompanyNumberOfVotingContracts(address companyAddress) public view returns (uint){\n        return  companies[companyAddress].votingContractCount;\n    }  \n    \n    function getCompanyVotingAddress(address companyAddress, uint votingContractCount) public view returns (address){\n        return  companies[companyAddress].votingContractAddresses[votingContractCount];\n    }  \n    \n    function getCompanyVotingContractUsed(address companyAddress, address votingContract) public view returns (bool){\n        return companies[companyAddress].votingContractUsed[votingContract];\n    }\n    \n    /*********************End of GET functions**************************************************/\n\n\n\t\n}\n",
  "sourcePath": "/home/luke/Documents/Code/AAMAS/volt_v2/TruffleVersion/contracts/CompanyManagementData.sol",
  "compiler": {
    "name": "solc",
    "version": "0.5.0+commit.1d4f565a.Emscripten.clang"
  },
  "schemaVersion": "3.0.1",
  "updatedAt": "2019-05-15T17:05:26.701Z",
  "devdoc": {
    "methods": {}
  },
  "userdoc": {
    "methods": {
      "constructor": "****** End of Structures ********",
      "getOwner()": {
        "notice": "*******************Start of GET functions*************************************************"
      },
      "setOwner(address)": {
        "notice": "*******************Start of SET functions*************************************************"
      }
    }
  }
}