{
  "contractName": "CompanyManagementLogic",
  "abi": [
    {
      "constant": true,
      "inputs": [],
      "name": "Owner",
      "outputs": [
        {
          "name": "",
          "type": "address"
        }
      ],
      "payable": false,
      "stateMutability": "view",
      "type": "function",
      "signature": "0xb4a99a4e"
    },
    {
      "inputs": [
        {
          "name": "thisCurrentCompanyManagmentData",
          "type": "address"
        }
      ],
      "payable": false,
      "stateMutability": "nonpayable",
      "type": "constructor",
      "signature": "constructor"
    },
    {
      "constant": false,
      "inputs": [
        {
          "name": "thisCurrentCompanyManagementData",
          "type": "address"
        }
      ],
      "name": "upgradeCompanyDataContract",
      "outputs": [],
      "payable": false,
      "stateMutability": "nonpayable",
      "type": "function",
      "signature": "0x4fd3f712"
    },
    {
      "constant": false,
      "inputs": [
        {
          "name": "newOwner",
          "type": "address"
        }
      ],
      "name": "setOwner",
      "outputs": [],
      "payable": false,
      "stateMutability": "nonpayable",
      "type": "function",
      "signature": "0x13af4035"
    },
    {
      "constant": false,
      "inputs": [
        {
          "name": "newOwner",
          "type": "address"
        }
      ],
      "name": "setOwnerOfDataContract",
      "outputs": [],
      "payable": false,
      "stateMutability": "nonpayable",
      "type": "function",
      "signature": "0x8a009aa4"
    },
    {
      "constant": false,
      "inputs": [
        {
          "name": "newCompanyAddress",
          "type": "address"
        },
        {
          "name": "companyAddressCount",
          "type": "uint256"
        },
        {
          "name": "newVotingAddress",
          "type": "address"
        },
        {
          "name": "votingAddressCount",
          "type": "uint256"
        }
      ],
      "name": "addNewCompany",
      "outputs": [],
      "payable": false,
      "stateMutability": "nonpayable",
      "type": "function",
      "signature": "0xfea537f1"
    },
    {
      "constant": false,
      "inputs": [
        {
          "name": "companyAddress",
          "type": "address"
        },
        {
          "name": "newVotingAddress",
          "type": "address"
        },
        {
          "name": "votingAddressCount",
          "type": "uint256"
        }
      ],
      "name": "addVotingContractAddress",
      "outputs": [],
      "payable": false,
      "stateMutability": "nonpayable",
      "type": "function",
      "signature": "0xa5fe8632"
    },
    {
      "constant": true,
      "inputs": [],
      "name": "getOwner",
      "outputs": [
        {
          "name": "",
          "type": "address"
        }
      ],
      "payable": false,
      "stateMutability": "view",
      "type": "function",
      "signature": "0x893d20e8"
    },
    {
      "constant": true,
      "inputs": [],
      "name": "getContractDataAddress",
      "outputs": [
        {
          "name": "",
          "type": "address"
        }
      ],
      "payable": false,
      "stateMutability": "view",
      "type": "function",
      "signature": "0x8b38a6c9"
    }
  ],
  "bytecode": "0x608060405234801561001057600080fd5b5060405160208061163e8339810180604052602081101561003057600080fd5b8101908080519060200190929190505050336000806101000a81548173ffffffffffffffffffffffffffffffffffffffff021916908373ffffffffffffffffffffffffffffffffffffffff16021790555080600160006101000a81548173ffffffffffffffffffffffffffffffffffffffff021916908373ffffffffffffffffffffffffffffffffffffffff1602179055505061156c806100d26000396000f3fe60806040526004361061008e576000357c0100000000000000000000000000000000000000000000000000000000900463ffffffff16806313af4035146100935780634fd3f712146100e4578063893d20e8146101355780638a009aa41461018c5780638b38a6c9146101dd578063a5fe863214610234578063b4a99a4e146102af578063fea537f114610306575b600080fd5b34801561009f57600080fd5b506100e2600480360360208110156100b657600080fd5b81019080803573ffffffffffffffffffffffffffffffffffffffff16906020019092919050505061038b565b005b3480156100f057600080fd5b506101336004803603602081101561010757600080fd5b81019080803573ffffffffffffffffffffffffffffffffffffffff169060200190929190505050610492565b005b34801561014157600080fd5b5061014a61059a565b604051808273ffffffffffffffffffffffffffffffffffffffff1673ffffffffffffffffffffffffffffffffffffffff16815260200191505060405180910390f35b34801561019857600080fd5b506101db600480360360208110156101af57600080fd5b81019080803573ffffffffffffffffffffffffffffffffffffffff1690602001909291905050506105c3565b005b3480156101e957600080fd5b506101f261075f565b604051808273ffffffffffffffffffffffffffffffffffffffff1673ffffffffffffffffffffffffffffffffffffffff16815260200191505060405180910390f35b34801561024057600080fd5b506102ad6004803603606081101561025757600080fd5b81019080803573ffffffffffffffffffffffffffffffffffffffff169060200190929190803573ffffffffffffffffffffffffffffffffffffffff16906020019092919080359060200190929190505050610789565b005b3480156102bb57600080fd5b506102c4610df5565b604051808273ffffffffffffffffffffffffffffffffffffffff1673ffffffffffffffffffffffffffffffffffffffff16815260200191505060405180910390f35b34801561031257600080fd5b506103896004803603608081101561032957600080fd5b81019080803573ffffffffffffffffffffffffffffffffffffffff16906020019092919080359060200190929190803573ffffffffffffffffffffffffffffffffffffffff16906020019092919080359060200190929190505050610e1a565b005b3373ffffffffffffffffffffffffffffffffffffffff166000809054906101000a900473ffffffffffffffffffffffffffffffffffffffff1673ffffffffffffffffffffffffffffffffffffffff1614151561044f576040517f08c379a00000000000000000000000000000000000000000000000000000000081526004018080602001828103825260168152602001807f4e6f742074686520636f6e7472616374206f776e65720000000000000000000081525060200191505060405180910390fd5b806000806101000a81548173ffffffffffffffffffffffffffffffffffffffff021916908373ffffffffffffffffffffffffffffffffffffffff16021790555050565b3373ffffffffffffffffffffffffffffffffffffffff166000809054906101000a900473ffffffffffffffffffffffffffffffffffffffff1673ffffffffffffffffffffffffffffffffffffffff16141515610556576040517f08c379a00000000000000000000000000000000000000000000000000000000081526004018080602001828103825260168152602001807f4e6f742074686520636f6e7472616374206f776e65720000000000000000000081525060200191505060405180910390fd5b80600160006101000a81548173ffffffffffffffffffffffffffffffffffffffff021916908373ffffffffffffffffffffffffffffffffffffffff16021790555050565b60008060009054906101000a900473ffffffffffffffffffffffffffffffffffffffff16905090565b3373ffffffffffffffffffffffffffffffffffffffff166000809054906101000a900473ffffffffffffffffffffffffffffffffffffffff1673ffffffffffffffffffffffffffffffffffffffff16141515610687576040517f08c379a00000000000000000000000000000000000000000000000000000000081526004018080602001828103825260168152602001807f4e6f742074686520636f6e7472616374206f776e65720000000000000000000081525060200191505060405180910390fd5b600160009054906101000a900473ffffffffffffffffffffffffffffffffffffffff1673ffffffffffffffffffffffffffffffffffffffff166313af4035826040518263ffffffff167c0100000000000000000000000000000000000000000000000000000000028152600401808273ffffffffffffffffffffffffffffffffffffffff1673ffffffffffffffffffffffffffffffffffffffff168152602001915050600060405180830381600087803b15801561074457600080fd5b505af1158015610758573d6000803e3d6000fd5b5050505050565b6000600160009054906101000a900473ffffffffffffffffffffffffffffffffffffffff16905090565b3373ffffffffffffffffffffffffffffffffffffffff166000809054906101000a900473ffffffffffffffffffffffffffffffffffffffff1673ffffffffffffffffffffffffffffffffffffffff1614151561084d576040517f08c379a00000000000000000000000000000000000000000000000000000000081526004018080602001828103825260168152602001807f4e6f742074686520636f6e7472616374206f776e65720000000000000000000081525060200191505060405180910390fd5b6000600160009054906101000a900473ffffffffffffffffffffffffffffffffffffffff1673ffffffffffffffffffffffffffffffffffffffff1663122b255c856040518263ffffffff167c0100000000000000000000000000000000000000000000000000000000028152600401808273ffffffffffffffffffffffffffffffffffffffff1673ffffffffffffffffffffffffffffffffffffffff16815260200191505060206040518083038186803b15801561090a57600080fd5b505afa15801561091e573d6000803e3d6000fd5b505050506040513d602081101561093457600080fd5b81019080805190602001909291905050501115610a05576040517f08c379a00000000000000000000000000000000000000000000000000000000081526004018080602001828103825260428152602001807f596f752063616e206f6e6c792061646420616e6f7468657220636f6d70616e7981526020017f20696620697420686173206e6f7420616c7265616479206265656e206164646581526020017f642100000000000000000000000000000000000000000000000000000000000081525060600191505060405180910390fd5b60011515600160009054906101000a900473ffffffffffffffffffffffffffffffffffffffff1673ffffffffffffffffffffffffffffffffffffffff16638a06128a85856040518363ffffffff167c0100000000000000000000000000000000000000000000000000000000028152600401808373ffffffffffffffffffffffffffffffffffffffff1673ffffffffffffffffffffffffffffffffffffffff1681526020018273ffffffffffffffffffffffffffffffffffffffff1673ffffffffffffffffffffffffffffffffffffffff1681526020019250505060206040518083038186803b158015610af857600080fd5b505afa158015610b0c573d6000803e3d6000fd5b505050506040513d6020811015610b2257600080fd5b810190808051906020019092919050505015151415610bf5576040517f08c379a000000000000000000000000000000000000000000000000000000000815260040180806020018281038252604a8152602001807f596f752063616e206f6e6c792061646420616e6f7468657220766f74696e672081526020017f636f6e747261637420696620697420686173206e6f7420616c7265616479206281526020017f65656e206164646564210000000000000000000000000000000000000000000081525060600191505060405180910390fd5b600160009054906101000a900473ffffffffffffffffffffffffffffffffffffffff1673ffffffffffffffffffffffffffffffffffffffff1663a5fe86328484846040518463ffffffff167c0100000000000000000000000000000000000000000000000000000000028152600401808473ffffffffffffffffffffffffffffffffffffffff1673ffffffffffffffffffffffffffffffffffffffff1681526020018373ffffffffffffffffffffffffffffffffffffffff1673ffffffffffffffffffffffffffffffffffffffff1681526020018281526020019350505050600060405180830381600087803b158015610cee57600080fd5b505af1158015610d02573d6000803e3d6000fd5b50505050600160009054906101000a900473ffffffffffffffffffffffffffffffffffffffff1673ffffffffffffffffffffffffffffffffffffffff1663dfd78f7f600180866040518463ffffffff167c010000000000000000000000000000000000000000000000000000000002815260040180841515151581526020018381526020018273ffffffffffffffffffffffffffffffffffffffff1673ffffffffffffffffffffffffffffffffffffffff1681526020019350505050600060405180830381600087803b158015610dd857600080fd5b505af1158015610dec573d6000803e3d6000fd5b50505050505050565b6000809054906101000a900473ffffffffffffffffffffffffffffffffffffffff1681565b3373ffffffffffffffffffffffffffffffffffffffff166000809054906101000a900473ffffffffffffffffffffffffffffffffffffffff1673ffffffffffffffffffffffffffffffffffffffff16141515610ede576040517f08c379a00000000000000000000000000000000000000000000000000000000081526004018080602001828103825260168152602001807f4e6f742074686520636f6e7472616374206f776e65720000000000000000000081525060200191505060405180910390fd5b6000600160009054906101000a900473ffffffffffffffffffffffffffffffffffffffff1673ffffffffffffffffffffffffffffffffffffffff1663122b255c866040518263ffffffff167c0100000000000000000000000000000000000000000000000000000000028152600401808273ffffffffffffffffffffffffffffffffffffffff1673ffffffffffffffffffffffffffffffffffffffff16815260200191505060206040518083038186803b158015610f9b57600080fd5b505afa158015610faf573d6000803e3d6000fd5b505050506040513d6020811015610fc557600080fd5b81019080805190602001909291905050501115611096576040517f08c379a00000000000000000000000000000000000000000000000000000000081526004018080602001828103825260428152602001807f596f752063616e206f6e6c792061646420616e6f7468657220636f6d70616e7981526020017f20696620697420686173206e6f7420616c7265616479206265656e206164646581526020017f642100000000000000000000000000000000000000000000000000000000000081525060600191505060405180910390fd5b600160009054906101000a900473ffffffffffffffffffffffffffffffffffffffff1673ffffffffffffffffffffffffffffffffffffffff1663881db00685856040518363ffffffff167c0100000000000000000000000000000000000000000000000000000000028152600401808373ffffffffffffffffffffffffffffffffffffffff1673ffffffffffffffffffffffffffffffffffffffff16815260200182815260200192505050600060405180830381600087803b15801561115b57600080fd5b505af115801561116f573d6000803e3d6000fd5b50505050600160009054906101000a900473ffffffffffffffffffffffffffffffffffffffff1673ffffffffffffffffffffffffffffffffffffffff1663613a97cf6001806040518363ffffffff167c0100000000000000000000000000000000000000000000000000000000028152600401808315151515815260200182815260200192505050600060405180830381600087803b15801561121157600080fd5b505af1158015611225573d6000803e3d6000fd5b50505050600160009054906101000a900473ffffffffffffffffffffffffffffffffffffffff1673ffffffffffffffffffffffffffffffffffffffff1663a5fe86328584846040518463ffffffff167c0100000000000000000000000000000000000000000000000000000000028152600401808473ffffffffffffffffffffffffffffffffffffffff1673ffffffffffffffffffffffffffffffffffffffff1681526020018373ffffffffffffffffffffffffffffffffffffffff1673ffffffffffffffffffffffffffffffffffffffff1681526020018281526020019350505050600060405180830381600087803b15801561132257600080fd5b505af1158015611336573d6000803e3d6000fd5b50505050600160009054906101000a900473ffffffffffffffffffffffffffffffffffffffff1673ffffffffffffffffffffffffffffffffffffffff1663dfd78f7f600180876040518463ffffffff167c010000000000000000000000000000000000000000000000000000000002815260040180841515151581526020018381526020018273ffffffffffffffffffffffffffffffffffffffff1673ffffffffffffffffffffffffffffffffffffffff1681526020019350505050600060405180830381600087803b15801561140c57600080fd5b505af1158015611420573d6000803e3d6000fd5b50505050600160009054906101000a900473ffffffffffffffffffffffffffffffffffffffff1673ffffffffffffffffffffffffffffffffffffffff1663c4084eb9858460016040518463ffffffff167c0100000000000000000000000000000000000000000000000000000000028152600401808473ffffffffffffffffffffffffffffffffffffffff1673ffffffffffffffffffffffffffffffffffffffff1681526020018373ffffffffffffffffffffffffffffffffffffffff1673ffffffffffffffffffffffffffffffffffffffff168152602001821515151581526020019350505050600060405180830381600087803b15801561152257600080fd5b505af1158015611536573d6000803e3d6000fd5b505050505050505056fea165627a7a72305820d43dbc39faf4698127c06a34a7da175cece86a90042a30b8f68012661e351b310029",
  "source": "pragma solidity ^0.5.0;\nimport \"./CompanyManagementData.sol\";\n\n//** This contract holds information on:\n//** All the listed companies\n//** All the listed voting contracts\n\ncontract CompanyManagementLogic {\n    \n    //holds the address of the contract creator\n    address public Owner;\n    //The current CompanyData contract\n    CompanyManagementData CurrentCompanyManagementData;\n\n    \n    /******** Start of modifiers *********/\n\t\n\t//** any function containing this modifier, only allows the contract owner to call it**//\n\tmodifier ifOwner(){\n        if(Owner != msg.sender){\n            revert(\"Not the contract owner\");\n        }else{\n            _; //means continue on the functions that called it\n        }\n    }\n\n\t/******** End of Modifiers  *********/\n\t\n\n    /******** Start of Structures *********/\n    \n    struct CompanyContract {\n\n        //addresses of any voting contracts\n        mapping (uint => address) votingContractAddresses;\n        //number of voting contracts\n        uint votingContractCount;\n    }\n    \n    /******** End of Structures *********/\n    \n    \t\t//** The constructor sets the smart contract owner as the address that put the create contract transaction onto the blockchain**//\n    constructor (address thisCurrentCompanyManagmentData) public {\n    \n            Owner = msg.sender;\n            CurrentCompanyManagementData = CompanyManagementData(thisCurrentCompanyManagmentData);\n            \n    }  \n    \n    function upgradeCompanyDataContract(address thisCurrentCompanyManagementData) external ifOwner {\n        CurrentCompanyManagementData = CompanyManagementData(thisCurrentCompanyManagementData);\n    }\n    \n    /*********************Start of SET functions**************************************************/\n        \n        function setOwner(address newOwner) external ifOwner {\n            \n            Owner = newOwner;\n            \n        } \n        \n        function setOwnerOfDataContract(address newOwner) external ifOwner {\n            \n            CurrentCompanyManagementData.setOwner(newOwner);\n            \n        } \n        \n        function addNewCompany(address newCompanyAddress, uint companyAddressCount, address newVotingAddress, uint votingAddressCount) external ifOwner {\n        \n            //check if company contract is already there\n            if (CurrentCompanyManagementData.getCompanyNumberOfVotingContracts(newCompanyAddress) > 0){\n                revert(\"You can only add another company if it has not already been added!\");                \n            } else {\n                CurrentCompanyManagementData.addNewCompanyAddress(newCompanyAddress, companyAddressCount);\n                CurrentCompanyManagementData.changeNumberOfCompanyCounter(true, 1); \n                CurrentCompanyManagementData.addVotingContractAddress(newCompanyAddress, newVotingAddress, votingAddressCount);\n                CurrentCompanyManagementData.changeVotingContractCount(true, 1, newCompanyAddress);\n                CurrentCompanyManagementData.addVotingContractUsed(newCompanyAddress, newVotingAddress, true);\n            }\n           \n        }\n        \n        function addVotingContractAddress(address companyAddress, address newVotingAddress, uint votingAddressCount) external ifOwner {\n         \n            //check if company contract is already there\n            if (CurrentCompanyManagementData.getCompanyNumberOfVotingContracts(companyAddress) > 0){\n                revert(\"You can only add another company if it has not already been added!\");                \n            } else if (CurrentCompanyManagementData.getCompanyVotingContractUsed(companyAddress, newVotingAddress) == true){\n                //check if votingContract has already been used\n                revert(\"You can only add another voting contract if it has not already been added!\");\n            } else {\n                CurrentCompanyManagementData.addVotingContractAddress(companyAddress, newVotingAddress, votingAddressCount);\n                CurrentCompanyManagementData.changeVotingContractCount(true, 1, companyAddress);   \n            }\n            \n        }\n        \n    \n    \n    /*********************End of SET functions**************************************************/    \n    \n    /*********************Start of GET functions**************************************************/\n    \n    function getOwner() public view returns (address){\n        return Owner;\n    }\n    \n    function getContractDataAddress() public view returns (address){\n        return address(CurrentCompanyManagementData);\n    } \n    \n    /*********************End of GET functions**************************************************/\n\n\n\t\n}\n",
  "sourcePath": "/home/luke/Documents/Code/AAMAS/volt_v2/TruffleVersion/contracts/CompanyManagementLogic.sol",
  "compiler": {
    "name": "solc",
    "version": "0.5.0+commit.1d4f565a.Emscripten.clang"
  },
  "schemaVersion": "3.0.1",
  "updatedAt": "2019-05-15T17:07:17.057Z",
  "devdoc": {
    "methods": {}
  },
  "userdoc": {
    "methods": {
      "constructor": "****** End of Structures ********",
      "getOwner()": {
        "notice": "*******************Start of GET functions*************************************************"
      },
      "setOwner(address)": {
        "notice": "*******************Start of SET functions*************************************************"
      }
    }
  }
}