{
  "contractName": "CompanyData",
  "abi": [
    {
      "constant": true,
      "inputs": [],
      "name": "Owner",
      "outputs": [
        {
          "name": "",
          "type": "address"
        }
      ],
      "payable": false,
      "stateMutability": "view",
      "type": "function",
      "signature": "0xb4a99a4e"
    },
    {
      "inputs": [],
      "payable": false,
      "stateMutability": "nonpayable",
      "type": "constructor",
      "signature": "constructor"
    },
    {
      "constant": false,
      "inputs": [
        {
          "name": "newOwner",
          "type": "address"
        }
      ],
      "name": "setOwner",
      "outputs": [],
      "payable": false,
      "stateMutability": "nonpayable",
      "type": "function",
      "signature": "0x13af4035"
    },
    {
      "constant": false,
      "inputs": [
        {
          "name": "newId",
          "type": "uint256"
        }
      ],
      "name": "setCompanyId",
      "outputs": [],
      "payable": false,
      "stateMutability": "nonpayable",
      "type": "function",
      "signature": "0x39015f0f"
    },
    {
      "constant": false,
      "inputs": [
        {
          "name": "newName",
          "type": "string"
        }
      ],
      "name": "setCompanyName",
      "outputs": [],
      "payable": false,
      "stateMutability": "nonpayable",
      "type": "function",
      "signature": "0xeb3313f0"
    },
    {
      "constant": false,
      "inputs": [
        {
          "name": "newRoundId",
          "type": "uint256"
        },
        {
          "name": "roundName",
          "type": "string"
        }
      ],
      "name": "addNewRound",
      "outputs": [],
      "payable": false,
      "stateMutability": "nonpayable",
      "type": "function",
      "signature": "0x66bdcf5c"
    },
    {
      "constant": false,
      "inputs": [
        {
          "name": "newRoundId",
          "type": "uint256"
        },
        {
          "name": "roundName",
          "type": "string"
        }
      ],
      "name": "addNewRoundName",
      "outputs": [],
      "payable": false,
      "stateMutability": "nonpayable",
      "type": "function",
      "signature": "0x9af6eed1"
    },
    {
      "constant": false,
      "inputs": [
        {
          "name": "add",
          "type": "bool"
        },
        {
          "name": "number",
          "type": "uint256"
        }
      ],
      "name": "changeRoundCounter",
      "outputs": [],
      "payable": false,
      "stateMutability": "nonpayable",
      "type": "function",
      "signature": "0x62367d4d"
    },
    {
      "constant": false,
      "inputs": [
        {
          "name": "roundId",
          "type": "uint256"
        },
        {
          "name": "investorId",
          "type": "uint256"
        },
        {
          "name": "newNumSecurities",
          "type": "uint256"
        },
        {
          "name": "newSecurityType",
          "type": "string"
        }
      ],
      "name": "changeInvestment",
      "outputs": [],
      "payable": false,
      "stateMutability": "nonpayable",
      "type": "function",
      "signature": "0x60671445"
    },
    {
      "constant": false,
      "inputs": [
        {
          "name": "add",
          "type": "bool"
        },
        {
          "name": "number",
          "type": "uint256"
        },
        {
          "name": "roundId",
          "type": "uint256"
        }
      ],
      "name": "changeNextFreeInvestmentCounter",
      "outputs": [],
      "payable": false,
      "stateMutability": "nonpayable",
      "type": "function",
      "signature": "0x9839ac11"
    },
    {
      "constant": false,
      "inputs": [
        {
          "name": "add",
          "type": "bool"
        },
        {
          "name": "number",
          "type": "uint256"
        }
      ],
      "name": "changeActiveInvestorsCount",
      "outputs": [],
      "payable": false,
      "stateMutability": "nonpayable",
      "type": "function",
      "signature": "0x1e8baaab"
    },
    {
      "constant": false,
      "inputs": [
        {
          "name": "add",
          "type": "bool"
        },
        {
          "name": "number",
          "type": "uint256"
        }
      ],
      "name": "changeActiveSecuritiesCount",
      "outputs": [],
      "payable": false,
      "stateMutability": "nonpayable",
      "type": "function",
      "signature": "0x8c7f108c"
    },
    {
      "constant": false,
      "inputs": [
        {
          "name": "typeId",
          "type": "uint256"
        },
        {
          "name": "newType",
          "type": "string"
        }
      ],
      "name": "addNewSecurityType",
      "outputs": [],
      "payable": false,
      "stateMutability": "nonpayable",
      "type": "function",
      "signature": "0x0d6e1f79"
    },
    {
      "constant": false,
      "inputs": [
        {
          "name": "add",
          "type": "bool"
        },
        {
          "name": "number",
          "type": "uint256"
        }
      ],
      "name": "changeNumberOfSecurityTypes",
      "outputs": [],
      "payable": false,
      "stateMutability": "nonpayable",
      "type": "function",
      "signature": "0x2dea1b24"
    },
    {
      "constant": true,
      "inputs": [],
      "name": "getOwner",
      "outputs": [
        {
          "name": "",
          "type": "address"
        }
      ],
      "payable": false,
      "stateMutability": "view",
      "type": "function",
      "signature": "0x893d20e8"
    },
    {
      "constant": true,
      "inputs": [],
      "name": "getCompanyId",
      "outputs": [
        {
          "name": "",
          "type": "uint256"
        }
      ],
      "payable": false,
      "stateMutability": "view",
      "type": "function",
      "signature": "0x9f14d7c2"
    },
    {
      "constant": true,
      "inputs": [],
      "name": "getName",
      "outputs": [
        {
          "name": "",
          "type": "string"
        }
      ],
      "payable": false,
      "stateMutability": "view",
      "type": "function",
      "signature": "0x17d7de7c"
    },
    {
      "constant": true,
      "inputs": [
        {
          "name": "roundName",
          "type": "string"
        }
      ],
      "name": "getRoundId",
      "outputs": [
        {
          "name": "",
          "type": "uint256"
        }
      ],
      "payable": false,
      "stateMutability": "view",
      "type": "function",
      "signature": "0x3dc14dbb"
    },
    {
      "constant": true,
      "inputs": [
        {
          "name": "roundId",
          "type": "uint256"
        }
      ],
      "name": "getRoundName",
      "outputs": [
        {
          "name": "",
          "type": "string"
        }
      ],
      "payable": false,
      "stateMutability": "view",
      "type": "function",
      "signature": "0xaa48221d"
    },
    {
      "constant": true,
      "inputs": [
        {
          "name": "roundId",
          "type": "uint256"
        },
        {
          "name": "investorId",
          "type": "uint256"
        }
      ],
      "name": "getInvestmentNumSecurities",
      "outputs": [
        {
          "name": "",
          "type": "uint256"
        }
      ],
      "payable": false,
      "stateMutability": "view",
      "type": "function",
      "signature": "0x80fa7e8a"
    },
    {
      "constant": true,
      "inputs": [
        {
          "name": "roundId",
          "type": "uint256"
        },
        {
          "name": "investorId",
          "type": "uint256"
        }
      ],
      "name": "getInvestmentSecurityType",
      "outputs": [
        {
          "name": "",
          "type": "string"
        }
      ],
      "payable": false,
      "stateMutability": "view",
      "type": "function",
      "signature": "0x44321819"
    },
    {
      "constant": true,
      "inputs": [],
      "name": "getNumberOfRounds",
      "outputs": [
        {
          "name": "",
          "type": "uint256"
        }
      ],
      "payable": false,
      "stateMutability": "view",
      "type": "function",
      "signature": "0xbb163f51"
    },
    {
      "constant": true,
      "inputs": [
        {
          "name": "roundId",
          "type": "uint256"
        }
      ],
      "name": "getNumberOfInvestments",
      "outputs": [
        {
          "name": "",
          "type": "uint256"
        }
      ],
      "payable": false,
      "stateMutability": "view",
      "type": "function",
      "signature": "0x7b1765d6"
    },
    {
      "constant": true,
      "inputs": [],
      "name": "getAllActiveSecurities",
      "outputs": [
        {
          "name": "",
          "type": "uint256"
        }
      ],
      "payable": false,
      "stateMutability": "view",
      "type": "function",
      "signature": "0x776044ae"
    },
    {
      "constant": true,
      "inputs": [],
      "name": "getNumOfActiveInvestors",
      "outputs": [
        {
          "name": "",
          "type": "uint256"
        }
      ],
      "payable": false,
      "stateMutability": "view",
      "type": "function",
      "signature": "0x12f365f5"
    },
    {
      "constant": true,
      "inputs": [],
      "name": "getNumOfSecurityTypes",
      "outputs": [
        {
          "name": "",
          "type": "uint256"
        }
      ],
      "payable": false,
      "stateMutability": "view",
      "type": "function",
      "signature": "0x235b12e1"
    },
    {
      "constant": true,
      "inputs": [
        {
          "name": "typeId",
          "type": "uint256"
        }
      ],
      "name": "getSecurityType",
      "outputs": [
        {
          "name": "",
          "type": "string"
        }
      ],
      "payable": false,
      "stateMutability": "view",
      "type": "function",
      "signature": "0x5d05e744"
    }
  ],
  "bytecode": "0x608060405234801561001057600080fd5b50336000806101000a81548173ffffffffffffffffffffffffffffffffffffffff021916908373ffffffffffffffffffffffffffffffffffffffff160217905550611c7a806100606000396000f3fe608060405260043610610154576000357c0100000000000000000000000000000000000000000000000000000000900463ffffffff1680630d6e1f791461015957806312f365f5146101e957806313af40351461021457806317d7de7c146102655780631e8baaab146102f5578063235b12e11461033c5780632dea1b241461036757806339015f0f146103ae5780633dc14dbb146103e957806344321819146104c55780635d05e74414610583578063606714451461063757806362367d4d146106db57806366bdcf5c14610722578063776044ae146107b25780637b1765d6146107dd57806380fa7e8a1461082c578063893d20e8146108855780638c7f108c146108dc5780639839ac11146109235780639af6eed1146109745780639f14d7c214610a04578063aa48221d14610a2f578063b4a99a4e14610ae3578063bb163f5114610b3a578063eb3313f014610b65575b600080fd5b34801561016557600080fd5b506101e76004803603604081101561017c57600080fd5b8101908080359060200190929190803590602001906401000000008111156101a357600080fd5b8201836020820111156101b557600080fd5b803590602001918460018302840111640100000000831117156101d757600080fd5b9091929391929390505050610beb565b005b3480156101f557600080fd5b506101fe610cd7565b6040518082815260200191505060405180910390f35b34801561022057600080fd5b506102636004803603602081101561023757600080fd5b81019080803573ffffffffffffffffffffffffffffffffffffffff169060200190929190505050610ce1565b005b34801561027157600080fd5b5061027a610de8565b6040518080602001828103825283818151815260200191508051906020019080838360005b838110156102ba57808201518184015260208101905061029f565b50505050905090810190601f1680156102e75780820380516001836020036101000a031916815260200191505b509250505060405180910390f35b34801561030157600080fd5b5061033a6004803603604081101561031857600080fd5b8101908080351515906020019092919080359060200190929190505050610e8a565b005b34801561034857600080fd5b50610351610f7b565b6040518082815260200191505060405180910390f35b34801561037357600080fd5b506103ac6004803603604081101561038a57600080fd5b8101908080351515906020019092919080359060200190929190505050610f85565b005b3480156103ba57600080fd5b506103e7600480360360208110156103d157600080fd5b8101908080359060200190929190505050611076565b005b3480156103f557600080fd5b506104af6004803603602081101561040c57600080fd5b810190808035906020019064010000000081111561042957600080fd5b82018360208201111561043b57600080fd5b8035906020019184600183028401116401000000008311171561045d57600080fd5b91908080601f016020809104026020016040519081016040528093929190818152602001838380828437600081840152601f19601f820116905080830192505050505050509192919290505050611144565b6040518082815260200191505060405180910390f35b3480156104d157600080fd5b50610508600480360360408110156104e857600080fd5b8101908080359060200190929190803590602001909291905050506111b9565b6040518080602001828103825283818151815260200191508051906020019080838360005b8381101561054857808201518184015260208101905061052d565b50505050905090810190601f1680156105755780820380516001836020036101000a031916815260200191505b509250505060405180910390f35b34801561058f57600080fd5b506105bc600480360360208110156105a657600080fd5b8101908080359060200190929190505050611283565b6040518080602001828103825283818151815260200191508051906020019080838360005b838110156105fc5780820151818401526020810190506105e1565b50505050905090810190601f1680156106295780820380516001836020036101000a031916815260200191505b509250505060405180910390f35b34801561064357600080fd5b506106d96004803603608081101561065a57600080fd5b810190808035906020019092919080359060200190929190803590602001909291908035906020019064010000000081111561069557600080fd5b8201836020820111156106a757600080fd5b803590602001918460018302840111640100000000831117156106c957600080fd5b9091929391929390505050611338565b005b3480156106e757600080fd5b50610720600480360360408110156106fe57600080fd5b8101908080351515906020019092919080359060200190929190505050611466565b005b34801561072e57600080fd5b506107b06004803603604081101561074557600080fd5b81019080803590602001909291908035906020019064010000000081111561076c57600080fd5b82018360208201111561077e57600080fd5b803590602001918460018302840111640100000000831117156107a057600080fd5b9091929391929390505050611557565b005b3480156107be57600080fd5b506107c761164c565b6040518082815260200191505060405180910390f35b3480156107e957600080fd5b506108166004803603602081101561080057600080fd5b8101908080359060200190929190505050611656565b6040518082815260200191505060405180910390f35b34801561083857600080fd5b5061086f6004803603604081101561084f57600080fd5b810190808035906020019092919080359060200190929190505050611673565b6040518082815260200191505060405180910390f35b34801561089157600080fd5b5061089a6116a5565b604051808273ffffffffffffffffffffffffffffffffffffffff1673ffffffffffffffffffffffffffffffffffffffff16815260200191505060405180910390f35b3480156108e857600080fd5b50610921600480360360408110156108ff57600080fd5b81019080803515159060200190929190803590602001909291905050506116ce565b005b34801561092f57600080fd5b506109726004803603606081101561094657600080fd5b8101908080351515906020019092919080359060200190929190803590602001909291905050506117bf565b005b34801561098057600080fd5b50610a026004803603604081101561099757600080fd5b8101908080359060200190929190803590602001906401000000008111156109be57600080fd5b8201836020820111156109d057600080fd5b803590602001918460018302840111640100000000831117156109f257600080fd5b90919293919293905050506118f5565b005b348015610a1057600080fd5b50610a196119e1565b6040518082815260200191505060405180910390f35b348015610a3b57600080fd5b50610a6860048036036020811015610a5257600080fd5b81019080803590602001909291905050506119eb565b6040518080602001828103825283818151815260200191508051906020019080838360005b83811015610aa8578082015181840152602081019050610a8d565b50505050905090810190601f168015610ad55780820380516001836020036101000a031916815260200191505b509250505060405180910390f35b348015610aef57600080fd5b50610af8611aa0565b604051808273ffffffffffffffffffffffffffffffffffffffff1673ffffffffffffffffffffffffffffffffffffffff16815260200191505060405180910390f35b348015610b4657600080fd5b50610b4f611ac5565b6040518082815260200191505060405180910390f35b348015610b7157600080fd5b50610be960048036036020811015610b8857600080fd5b8101908080359060200190640100000000811115610ba557600080fd5b820183602082011115610bb757600080fd5b80359060200191846001830284011164010000000083111715610bd957600080fd5b9091929391929390505050611acf565b005b3373ffffffffffffffffffffffffffffffffffffffff166000809054906101000a900473ffffffffffffffffffffffffffffffffffffffff1673ffffffffffffffffffffffffffffffffffffffff16141515610caf576040517f08c379a00000000000000000000000000000000000000000000000000000000081526004018080602001828103825260168152602001807f4e6f742074686520636f6e7472616374206f776e65720000000000000000000081525060200191505060405180910390fd5b8181600a60008681526020019081526020016000209190610cd1929190611ba9565b50505050565b6000600854905090565b3373ffffffffffffffffffffffffffffffffffffffff166000809054906101000a900473ffffffffffffffffffffffffffffffffffffffff1673ffffffffffffffffffffffffffffffffffffffff16141515610da5576040517f08c379a00000000000000000000000000000000000000000000000000000000081526004018080602001828103825260168152602001807f4e6f742074686520636f6e7472616374206f776e65720000000000000000000081525060200191505060405180910390fd5b806000806101000a81548173ffffffffffffffffffffffffffffffffffffffff021916908373ffffffffffffffffffffffffffffffffffffffff16021790555050565b606060028054600181600116156101000203166002900480601f016020809104026020016040519081016040528092919081815260200182805460018160011615610100020316600290048015610e805780601f10610e5557610100808354040283529160200191610e80565b820191906000526020600020905b815481529060010190602001808311610e6357829003601f168201915b5050505050905090565b3373ffffffffffffffffffffffffffffffffffffffff166000809054906101000a900473ffffffffffffffffffffffffffffffffffffffff1673ffffffffffffffffffffffffffffffffffffffff16141515610f4e576040517f08c379a00000000000000000000000000000000000000000000000000000000081526004018080602001828103825260168152602001807f4e6f742074686520636f6e7472616374206f776e65720000000000000000000081525060200191505060405180910390fd5b600115158215151415610f6b578060085401600881905550610f77565b80600854036008819055505b5050565b6000600b54905090565b3373ffffffffffffffffffffffffffffffffffffffff166000809054906101000a900473ffffffffffffffffffffffffffffffffffffffff1673ffffffffffffffffffffffffffffffffffffffff16141515611049576040517f08c379a00000000000000000000000000000000000000000000000000000000081526004018080602001828103825260168152602001807f4e6f742074686520636f6e7472616374206f776e65720000000000000000000081525060200191505060405180910390fd5b6001151582151514156110665780600b5401600b81905550611072565b80600b5403600b819055505b5050565b3373ffffffffffffffffffffffffffffffffffffffff166000809054906101000a900473ffffffffffffffffffffffffffffffffffffffff1673ffffffffffffffffffffffffffffffffffffffff1614151561113a576040517f08c379a00000000000000000000000000000000000000000000000000000000081526004018080602001828103825260168152602001807f4e6f742074686520636f6e7472616374206f776e65720000000000000000000081525060200191505060405180910390fd5b8060018190555050565b60006004826040518082805190602001908083835b60208310151561117e5780518252602082019150602081019050602083039250611159565b6001836020036101000a0380198251168184511680821785525050505050509050019150509081526020016040518091039020549050919050565b60606006600084815260200190815260200160002060008381526020019081526020016000206001018054600181600116156101000203166002900480601f0160208091040260200160405190810160405280929190818152602001828054600181600116156101000203166002900480156112765780601f1061124b57610100808354040283529160200191611276565b820191906000526020600020905b81548152906001019060200180831161125957829003601f168201915b5050505050905092915050565b6060600a60008381526020019081526020016000208054600181600116156101000203166002900480601f01602080910402602001604051908101604052809291908181526020018280546001816001161561010002031660029004801561132c5780601f106113015761010080835404028352916020019161132c565b820191906000526020600020905b81548152906001019060200180831161130f57829003601f168201915b50505050509050919050565b3373ffffffffffffffffffffffffffffffffffffffff166000809054906101000a900473ffffffffffffffffffffffffffffffffffffffff1673ffffffffffffffffffffffffffffffffffffffff161415156113fc576040517f08c379a00000000000000000000000000000000000000000000000000000000081526004018080602001828103825260168152602001807f4e6f742074686520636f6e7472616374206f776e65720000000000000000000081525060200191505060405180910390fd5b82600660008781526020019081526020016000206000868152602001908152602001600020600001819055508181600660008881526020019081526020016000206000878152602001908152602001600020600101919061145e929190611ba9565b505050505050565b3373ffffffffffffffffffffffffffffffffffffffff166000809054906101000a900473ffffffffffffffffffffffffffffffffffffffff1673ffffffffffffffffffffffffffffffffffffffff1614151561152a576040517f08c379a00000000000000000000000000000000000000000000000000000000081526004018080602001828103825260168152602001807f4e6f742074686520636f6e7472616374206f776e65720000000000000000000081525060200191505060405180910390fd5b600115158215151415611547578060055401600581905550611553565b80600554036005819055505b5050565b3373ffffffffffffffffffffffffffffffffffffffff166000809054906101000a900473ffffffffffffffffffffffffffffffffffffffff1673ffffffffffffffffffffffffffffffffffffffff1614151561161b576040517f08c379a00000000000000000000000000000000000000000000000000000000081526004018080602001828103825260168152602001807f4e6f742074686520636f6e7472616374206f776e65720000000000000000000081525060200191505060405180910390fd5b8260048383604051808383808284378083019250505092505050908152602001604051809103902081905550505050565b6000600954905090565b600060076000838152602001908152602001600020549050919050565b600060066000848152602001908152602001600020600083815260200190815260200160002060000154905092915050565b60008060009054906101000a900473ffffffffffffffffffffffffffffffffffffffff16905090565b3373ffffffffffffffffffffffffffffffffffffffff166000809054906101000a900473ffffffffffffffffffffffffffffffffffffffff1673ffffffffffffffffffffffffffffffffffffffff16141515611792576040517f08c379a00000000000000000000000000000000000000000000000000000000081526004018080602001828103825260168152602001807f4e6f742074686520636f6e7472616374206f776e65720000000000000000000081525060200191505060405180910390fd5b6001151582151514156117af5780600954016009819055506117bb565b80600954036009819055505b5050565b3373ffffffffffffffffffffffffffffffffffffffff166000809054906101000a900473ffffffffffffffffffffffffffffffffffffffff1673ffffffffffffffffffffffffffffffffffffffff16141515611883576040517f08c379a00000000000000000000000000000000000000000000000000000000081526004018080602001828103825260168152602001807f4e6f742074686520636f6e7472616374206f776e65720000000000000000000081525060200191505060405180910390fd5b6001151583151514156118c2578160076000838152602001908152602001600020540160076000838152602001908152602001600020819055506118f0565b8160076000838152602001908152602001600020540360076000838152602001908152602001600020819055505b505050565b3373ffffffffffffffffffffffffffffffffffffffff166000809054906101000a900473ffffffffffffffffffffffffffffffffffffffff1673ffffffffffffffffffffffffffffffffffffffff161415156119b9576040517f08c379a00000000000000000000000000000000000000000000000000000000081526004018080602001828103825260168152602001807f4e6f742074686520636f6e7472616374206f776e65720000000000000000000081525060200191505060405180910390fd5b81816003600086815260200190815260200160002091906119db929190611ba9565b50505050565b6000600154905090565b6060600360008381526020019081526020016000208054600181600116156101000203166002900480601f016020809104026020016040519081016040528092919081815260200182805460018160011615610100020316600290048015611a945780601f10611a6957610100808354040283529160200191611a94565b820191906000526020600020905b815481529060010190602001808311611a7757829003601f168201915b50505050509050919050565b6000809054906101000a900473ffffffffffffffffffffffffffffffffffffffff1681565b6000600554905090565b3373ffffffffffffffffffffffffffffffffffffffff166000809054906101000a900473ffffffffffffffffffffffffffffffffffffffff1673ffffffffffffffffffffffffffffffffffffffff16141515611b93576040517f08c379a00000000000000000000000000000000000000000000000000000000081526004018080602001828103825260168152602001807f4e6f742074686520636f6e7472616374206f776e65720000000000000000000081525060200191505060405180910390fd5b818160029190611ba4929190611ba9565b505050565b828054600181600116156101000203166002900490600052602060002090601f016020900481019282601f10611bea57803560ff1916838001178555611c18565b82800160010185558215611c18579182015b82811115611c17578235825591602001919060010190611bfc565b5b509050611c259190611c29565b5090565b611c4b91905b80821115611c47576000816000905550600101611c2f565b5090565b9056fea165627a7a723058201104cc1a116b0a823c07dfe4e56332fdfb5954119185936341f37a0cf83d6f2f0029",
  "source": "//Solidity online complier: https://remix.ethereum.org/\n\npragma solidity ^0.5.0;\n\n//** This contract holds information on:\n// - A company\n// - Company investor rounds\n// - Company investments\n// - Company Investors\n//**\n\ncontract CompanyData {\n\n    //holds the address of the contract creator\n    address public Owner;\t\t\t\t\t\n    //holds the crowdcube ID of the CompanyID\n    uint CompanyId;         \n    //holds the name of the CompanyID\n    string name;\n    //holds the different investment rounds of the company\n    mapping(uint => string) roundNames;\n    //*NOTE given a roundName has it actually been assigned a roundId? (if not -> then it is not a valid round)\n    mapping(string => uint) Rounds;\n    //holds the number of different investment Rounds\n    uint numOfRounds;\n    //holds the different individual investment in the company\n    //*NOTE that the index is the roundId then the investorId*\n    mapping(uint => mapping (uint => Investment)) Investments;\n    //holds the number of different individual investments\n    mapping (uint => uint) numOfInvestments;\n    //The number of investors after deletion\n    uint numOfActiveInvestors;\n    //all investors securities\n    uint allActiveSecurities;\n    //list the different security types\n    mapping (uint => string) AllSecurityTypes;\n    //list the number of security types\n    uint numOfSecurityTypes;\n    \t\n\n    /******** Start of Structures *********/\n    \n    struct Round {\n\n        //the name of this round\n        string name;\n    }\n    \n    struct Investment {\n        \n        //the number of securities this investor has\n        uint numSecurities;\n        //what type of security these are\n        string securityType;\n        //if the investor\n    }\n    \n\n    \n    \n    /******** End of Structures *********/\n    \n    /******** Start of modifiers *********/\n\t\n\t//** any function containing this modifier, only allows the contract owner to call it**//\n\tmodifier ifOwner(){\n        if(Owner != msg.sender){\n            revert(\"Not the contract owner\");\n        }else{\n            _; //means continue on the functions that called it\n        }\n    }\n\n\t\n\t/******** End of Modifiers  *********/\n\t\n\n\t\n\t\n\t/******** Start of Functions  *********/\n\n\t//** The constructor sets the smart contract owner as the address that put the create contract transaction onto the blockchain**//\n    constructor () public {\n    \n            Owner = msg.sender;\n            \n    }    \n    \n    \n    /*********************Start of SET functions**************************************************/\n\n    function setOwner(address newOwner) external ifOwner {\n        \n        Owner = newOwner;\n        \n    } \n\n    function setCompanyId(uint newId) external ifOwner {\n        \n        CompanyId = newId;\n    }\n    \n    function setCompanyName(string calldata newName) external ifOwner {\n        \n        name = newName;\n    }\n    \n    function addNewRound(uint newRoundId, string calldata roundName) external ifOwner {\n\n        Rounds[roundName] = newRoundId;\n    }\n    \n    function addNewRoundName(uint newRoundId, string calldata roundName) external ifOwner {\n\n        roundNames[newRoundId] = roundName;\n    }\n    \n    function changeRoundCounter(bool add, uint number) external ifOwner {\n        \n        if (add == true){\n            numOfRounds = numOfRounds + number;    \n        } else {\n            numOfRounds = numOfRounds - number;\n        }\n    }\n\n    function changeInvestment(uint roundId, uint investorId, uint newNumSecurities, string calldata newSecurityType) external ifOwner {\n\n        Investments[roundId][investorId].numSecurities = newNumSecurities;\n        Investments[roundId][investorId].securityType = newSecurityType;\n        \n    }\n    \n    \n    function changeNextFreeInvestmentCounter(bool add, uint number, uint roundId) external ifOwner {\n        if (add == true){\n            numOfInvestments[roundId] = numOfInvestments[roundId] + number;\n        } else {\n            numOfInvestments[roundId] = numOfInvestments[roundId] - number;\n        }\n    }\n    \n    function changeActiveInvestorsCount(bool add, uint number) external ifOwner {\n        if (add == true){\n            numOfActiveInvestors = numOfActiveInvestors + number;\n        } else {\n            numOfActiveInvestors = numOfActiveInvestors - number;\n        }\n    }\n    \n    function changeActiveSecuritiesCount(bool add, uint number) external ifOwner {\n        if (add == true){\n            allActiveSecurities = allActiveSecurities + number;\n        } else {\n            allActiveSecurities = allActiveSecurities - number;\n        }\n    }\n    \n    function addNewSecurityType(uint typeId, string calldata newType) external ifOwner {\n        \n        AllSecurityTypes[typeId] = newType;\n    }\n    \n    function changeNumberOfSecurityTypes(bool add, uint number) external ifOwner {\n        if (add == true){\n            numOfSecurityTypes = numOfSecurityTypes + number;\n        } else {\n            numOfSecurityTypes = numOfSecurityTypes - number;\n        }\n    }\n    \n\n    /***********************End of SET functions**************************************************/\n\n\n    /*********************Start of GET functions**************************************************/\n    \n    \n    function getOwner() public view returns (address){\n        return Owner;\n    }\n    \n    function getCompanyId() public view returns (uint) {\n        return CompanyId;\n    }\n\n    function getName() public view returns (string memory) {\n        return name;\n    }\n    \n    function getRoundId(string memory roundName) public view returns (uint) {\n        return Rounds[roundName];\n    }\n    \n    function getRoundName(uint roundId) public view returns (string memory){\n        return roundNames[roundId];\n    }\n    \n    function getInvestmentNumSecurities(uint roundId, uint investorId) public view returns (uint) {\n        return Investments[roundId][investorId].numSecurities;\n    }\n    \n    function getInvestmentSecurityType(uint roundId, uint investorId) public view returns (string memory) {\n        return Investments[roundId][investorId].securityType;\n    }\n    \n    function getNumberOfRounds() public view returns (uint) {\n        return numOfRounds;\n    }\n    \n    function getNumberOfInvestments(uint roundId) public view returns (uint) {\n        return numOfInvestments[roundId];\n    }\n    \n    function getAllActiveSecurities() public view returns (uint) {\n        return allActiveSecurities;\n    }\n    \n    function getNumOfActiveInvestors() public view returns (uint){\n        return numOfActiveInvestors;\n    }\n    \n    function getNumOfSecurityTypes() public view returns (uint){\n        return numOfSecurityTypes;\n    }\n    \n    function getSecurityType(uint typeId) public view returns (string memory){\n        return AllSecurityTypes[typeId];\n    }\n\n    /***********************End of GET functions**************************************************/\n\n\n\n}\n\t\n\n     \n",
  "sourcePath": "/home/luke/Documents/Code/AAMAS/volt_v2/TruffleVersion/contracts/CompanyData.sol",
  "compiler": {
    "name": "solc",
    "version": "0.5.0+commit.1d4f565a.Emscripten.clang"
  },
  "schemaVersion": "3.0.1",
  "updatedAt": "2019-05-15T17:06:36.521Z",
  "devdoc": {
    "methods": {}
  },
  "userdoc": {
    "methods": {
      "constructor": "****** Start of Functions  ********",
      "getOwner()": {
        "notice": "*******************Start of GET functions*************************************************"
      },
      "setOwner(address)": {
        "notice": "*******************Start of SET functions*************************************************"
      }
    }
  }
}