{
  "contractName": "InvestorMangementLogic",
  "abi": [
    {
      "constant": true,
      "inputs": [],
      "name": "Owner",
      "outputs": [
        {
          "name": "",
          "type": "address"
        }
      ],
      "payable": false,
      "stateMutability": "view",
      "type": "function"
    },
    {
      "inputs": [
        {
          "name": "thisCurrentInvestorManagmentData",
          "type": "address"
        }
      ],
      "payable": false,
      "stateMutability": "nonpayable",
      "type": "constructor"
    },
    {
      "constant": false,
      "inputs": [
        {
          "name": "thisCurrentInvestorManagementData",
          "type": "address"
        }
      ],
      "name": "upgradeInvestorDataContract",
      "outputs": [],
      "payable": false,
      "stateMutability": "nonpayable",
      "type": "function"
    },
    {
      "constant": false,
      "inputs": [
        {
          "name": "newOwner",
          "type": "address"
        }
      ],
      "name": "setOwner",
      "outputs": [],
      "payable": false,
      "stateMutability": "nonpayable",
      "type": "function"
    },
    {
      "constant": false,
      "inputs": [
        {
          "name": "newOwner",
          "type": "address"
        }
      ],
      "name": "setOwnerOfDataContract",
      "outputs": [],
      "payable": false,
      "stateMutability": "nonpayable",
      "type": "function"
    },
    {
      "constant": false,
      "inputs": [
        {
          "name": "newInvestorId",
          "type": "uint256"
        },
        {
          "name": "newName",
          "type": "string"
        }
      ],
      "name": "addNewInvestor",
      "outputs": [],
      "payable": false,
      "stateMutability": "nonpayable",
      "type": "function"
    },
    {
      "constant": false,
      "inputs": [
        {
          "name": "investorId",
          "type": "uint256"
        }
      ],
      "name": "deleteInvestor",
      "outputs": [],
      "payable": false,
      "stateMutability": "nonpayable",
      "type": "function"
    },
    {
      "constant": false,
      "inputs": [
        {
          "name": "investorId",
          "type": "uint256"
        },
        {
          "name": "investorName",
          "type": "string"
        },
        {
          "name": "add",
          "type": "bool"
        },
        {
          "name": "number",
          "type": "uint256"
        },
        {
          "name": "companyName",
          "type": "string"
        }
      ],
      "name": "changeInvestorSecurityCount",
      "outputs": [],
      "payable": false,
      "stateMutability": "nonpayable",
      "type": "function"
    },
    {
      "constant": false,
      "inputs": [
        {
          "name": "investorId",
          "type": "uint256"
        },
        {
          "name": "company",
          "type": "address"
        },
        {
          "name": "roundId",
          "type": "uint256"
        }
      ],
      "name": "addInvestorsInvestment",
      "outputs": [],
      "payable": false,
      "stateMutability": "nonpayable",
      "type": "function"
    },
    {
      "constant": true,
      "inputs": [],
      "name": "getOwner",
      "outputs": [
        {
          "name": "",
          "type": "address"
        }
      ],
      "payable": false,
      "stateMutability": "view",
      "type": "function"
    },
    {
      "constant": true,
      "inputs": [],
      "name": "getContractDataAddress",
      "outputs": [
        {
          "name": "",
          "type": "address"
        }
      ],
      "payable": false,
      "stateMutability": "view",
      "type": "function"
    }
  ],
  "bytecode": "0x608060405234801561001057600080fd5b50604051602080611e148339810180604052602081101561003057600080fd5b8101908080519060200190929190505050336000806101000a81548173ffffffffffffffffffffffffffffffffffffffff021916908373ffffffffffffffffffffffffffffffffffffffff16021790555080600160006101000a81548173ffffffffffffffffffffffffffffffffffffffff021916908373ffffffffffffffffffffffffffffffffffffffff16021790555050611d42806100d26000396000f3fe6080604052600436106100a4576000357c0100000000000000000000000000000000000000000000000000000000900463ffffffff16806313af4035146100a95780631653e432146100fa5780635fe5ae441461018a57806386a7f080146101c5578063893d20e8146102c05780638a009aa4146103175780638b38a6c914610368578063b4a99a4e146103bf578063e75a902214610416578063e8ad044614610467575b600080fd5b3480156100b557600080fd5b506100f8600480360360208110156100cc57600080fd5b81019080803573ffffffffffffffffffffffffffffffffffffffff1690602001909291905050506104cc565b005b34801561010657600080fd5b506101886004803603604081101561011d57600080fd5b81019080803590602001909291908035906020019064010000000081111561014457600080fd5b82018360208201111561015657600080fd5b8035906020019184600183028401116401000000008311171561017857600080fd5b90919293919293905050506105d3565b005b34801561019657600080fd5b506101c3600480360360208110156101ad57600080fd5b8101908080359060200190929190505050610b3f565b005b3480156101d157600080fd5b506102be600480360360a08110156101e857600080fd5b81019080803590602001909291908035906020019064010000000081111561020f57600080fd5b82018360208201111561022157600080fd5b8035906020019184600183028401116401000000008311171561024357600080fd5b9091929391929390803515159060200190929190803590602001909291908035906020019064010000000081111561027a57600080fd5b82018360208201111561028c57600080fd5b803590602001918460018302840111640100000000831117156102ae57600080fd5b9091929391929390505050610f29565b005b3480156102cc57600080fd5b506102d561150d565b604051808273ffffffffffffffffffffffffffffffffffffffff1673ffffffffffffffffffffffffffffffffffffffff16815260200191505060405180910390f35b34801561032357600080fd5b506103666004803603602081101561033a57600080fd5b81019080803573ffffffffffffffffffffffffffffffffffffffff169060200190929190505050611536565b005b34801561037457600080fd5b5061037d6116d2565b604051808273ffffffffffffffffffffffffffffffffffffffff1673ffffffffffffffffffffffffffffffffffffffff16815260200191505060405180910390f35b3480156103cb57600080fd5b506103d46116fc565b604051808273ffffffffffffffffffffffffffffffffffffffff1673ffffffffffffffffffffffffffffffffffffffff16815260200191505060405180910390f35b34801561042257600080fd5b506104656004803603602081101561043957600080fd5b81019080803573ffffffffffffffffffffffffffffffffffffffff169060200190929190505050611721565b005b34801561047357600080fd5b506104ca6004803603606081101561048a57600080fd5b8101908080359060200190929190803573ffffffffffffffffffffffffffffffffffffffff16906020019092919080359060200190929190505050611829565b005b3373ffffffffffffffffffffffffffffffffffffffff166000809054906101000a900473ffffffffffffffffffffffffffffffffffffffff1673ffffffffffffffffffffffffffffffffffffffff16141515610590576040517f08c379a00000000000000000000000000000000000000000000000000000000081526004018080602001828103825260168152602001807f4e6f742074686520636f6e7472616374206f776e65720000000000000000000081525060200191505060405180910390fd5b806000806101000a81548173ffffffffffffffffffffffffffffffffffffffff021916908373ffffffffffffffffffffffffffffffffffffffff16021790555050565b3373ffffffffffffffffffffffffffffffffffffffff166000809054906101000a900473ffffffffffffffffffffffffffffffffffffffff1673ffffffffffffffffffffffffffffffffffffffff16141515610697576040517f08c379a00000000000000000000000000000000000000000000000000000000081526004018080602001828103825260168152602001807f4e6f742074686520636f6e7472616374206f776e65720000000000000000000081525060200191505060405180910390fd5b6060600160009054906101000a900473ffffffffffffffffffffffffffffffffffffffff1673ffffffffffffffffffffffffffffffffffffffff16636b198e5c856040518263ffffffff167c01000000000000000000000000000000000000000000000000000000000281526004018082815260200191505060006040518083038186803b15801561072857600080fd5b505afa15801561073c573d6000803e3d6000fd5b505050506040513d6000823e3d601f19601f82011682018060405250602081101561076657600080fd5b81019080805164010000000081111561077e57600080fd5b8281019050602081018481111561079457600080fd5b81518560018202830111640100000000821117156107b157600080fd5b5050929190505050905060405160200180600001905060405160208183030381529060405280519060200120816040516020018082805190602001908083835b60208310151561081657805182526020820191506020810190506020830392506107f1565b6001836020036101000a038019825116818451168082178552505050505050905001915050604051602081830303815290604052805190602001201415610aa557600160009054906101000a900473ffffffffffffffffffffffffffffffffffffffff1673ffffffffffffffffffffffffffffffffffffffff16631653e4328585856040518463ffffffff167c010000000000000000000000000000000000000000000000000000000002815260040180848152602001806020018281038252848482818152602001925080828437600081840152601f19601f820116905080830192505050945050505050600060405180830381600087803b15801561091c57600080fd5b505af1158015610930573d6000803e3d6000fd5b50505050600160009054906101000a900473ffffffffffffffffffffffffffffffffffffffff1673ffffffffffffffffffffffffffffffffffffffff16638765a1c66001806040518363ffffffff167c0100000000000000000000000000000000000000000000000000000000028152600401808315151515815260200182815260200192505050600060405180830381600087803b1580156109d257600080fd5b505af11580156109e6573d6000803e3d6000fd5b50505050600160009054906101000a900473ffffffffffffffffffffffffffffffffffffffff1673ffffffffffffffffffffffffffffffffffffffff16635ea766726001806040518363ffffffff167c0100000000000000000000000000000000000000000000000000000000028152600401808315151515815260200182815260200192505050600060405180830381600087803b158015610a8857600080fd5b505af1158015610a9c573d6000803e3d6000fd5b50505050610b39565b6040517f08c379a00000000000000000000000000000000000000000000000000000000081526004018080602001828103825260248152602001807f5468697320696e766573746f722068617320616c7265616479206265656e206181526020017f646465640000000000000000000000000000000000000000000000000000000081525060400191505060405180910390fd5b50505050565b3373ffffffffffffffffffffffffffffffffffffffff166000809054906101000a900473ffffffffffffffffffffffffffffffffffffffff1673ffffffffffffffffffffffffffffffffffffffff16141515610c03576040517f08c379a00000000000000000000000000000000000000000000000000000000081526004018080602001828103825260168152602001807f4e6f742074686520636f6e7472616374206f776e65720000000000000000000081525060200191505060405180910390fd5b6060600160009054906101000a900473ffffffffffffffffffffffffffffffffffffffff1673ffffffffffffffffffffffffffffffffffffffff16636b198e5c836040518263ffffffff167c01000000000000000000000000000000000000000000000000000000000281526004018082815260200191505060006040518083038186803b158015610c9457600080fd5b505afa158015610ca8573d6000803e3d6000fd5b505050506040513d6000823e3d601f19601f820116820180604052506020811015610cd257600080fd5b810190808051640100000000811115610cea57600080fd5b82810190506020810184811115610d0057600080fd5b8151856001820283011164010000000082111715610d1d57600080fd5b5050929190505050905060405160200180600001905060405160208183030381529060405280519060200120816040516020018082805190602001908083835b602083101515610d825780518252602082019150602081019050602083039250610d5d565b6001836020036101000a03801982511681845116808217855250505050505090500191505060405160208183030381529060405280519060200120141515610f2557600160009054906101000a900473ffffffffffffffffffffffffffffffffffffffff1673ffffffffffffffffffffffffffffffffffffffff16635fe5ae44836040518263ffffffff167c010000000000000000000000000000000000000000000000000000000002815260040180828152602001915050600060405180830381600087803b158015610e5557600080fd5b505af1158015610e69573d6000803e3d6000fd5b50505050600160009054906101000a900473ffffffffffffffffffffffffffffffffffffffff1673ffffffffffffffffffffffffffffffffffffffff16635ea76672600060016040518363ffffffff167c0100000000000000000000000000000000000000000000000000000000028152600401808315151515815260200182815260200192505050600060405180830381600087803b158015610f0c57600080fd5b505af1158015610f20573d6000803e3d6000fd5b505050505b5050565b3373ffffffffffffffffffffffffffffffffffffffff166000809054906101000a900473ffffffffffffffffffffffffffffffffffffffff1673ffffffffffffffffffffffffffffffffffffffff16141515610fed576040517f08c379a00000000000000000000000000000000000000000000000000000000081526004018080602001828103825260168152602001807f4e6f742074686520636f6e7472616374206f776e65720000000000000000000081525060200191505060405180910390fd5b6060600160009054906101000a900473ffffffffffffffffffffffffffffffffffffffff1673ffffffffffffffffffffffffffffffffffffffff16636b198e5c896040518263ffffffff167c01000000000000000000000000000000000000000000000000000000000281526004018082815260200191505060006040518083038186803b15801561107e57600080fd5b505afa158015611092573d6000803e3d6000fd5b505050506040513d6000823e3d601f19601f8201168201806040525060208110156110bc57600080fd5b8101908080516401000000008111156110d457600080fd5b828101905060208101848111156110ea57600080fd5b815185600182028301116401000000008211171561110757600080fd5b50509291905050509050868660405160200180838380828437808301925050509250505060405160208183030381529060405280519060200120816040516020018082805190602001908083835b60208310151561117a5780518252602082019150602081019050602083039250611155565b6001836020036101000a03801982511681845116808217855250505050505090500191505060405160208183030381529060405280519060200120141561142357600160009054906101000a900473ffffffffffffffffffffffffffffffffffffffff1673ffffffffffffffffffffffffffffffffffffffff16630dd7db9a86868b6040518463ffffffff167c010000000000000000000000000000000000000000000000000000000002815260040180841515151581526020018381526020018281526020019350505050600060405180830381600087803b15801561126057600080fd5b505af1158015611274573d6000803e3d6000fd5b50505050600160009054906101000a900473ffffffffffffffffffffffffffffffffffffffff1673ffffffffffffffffffffffffffffffffffffffff1663cda57bca86866040518363ffffffff167c0100000000000000000000000000000000000000000000000000000000028152600401808315151515815260200182815260200192505050600060405180830381600087803b15801561131557600080fd5b505af1158015611329573d6000803e3d6000fd5b50505050600160009054906101000a900473ffffffffffffffffffffffffffffffffffffffff1673ffffffffffffffffffffffffffffffffffffffff1663e6efec0986868b87876040518663ffffffff167c01000000000000000000000000000000000000000000000000000000000281526004018086151515158152602001858152602001848152602001806020018281038252848482818152602001925080828437600081840152601f19601f8201169050808301925050509650505050505050600060405180830381600087803b15801561140657600080fd5b505af115801561141a573d6000803e3d6000fd5b50505050611503565b6040517f08c379a00000000000000000000000000000000000000000000000000000000081526004018080602001828103825260688152602001807f476976656e20696e766573746f724e616d6520616e6420736176656420696e7681526020017f6573746f72206e616d6520646f206e6f74206d617463682c20736f206e6f207581526020017f706461746520746f2074686520736563757269747920636f756e74206861732081526020017f6f6363757272656400000000000000000000000000000000000000000000000081525060800191505060405180910390fd5b5050505050505050565b60008060009054906101000a900473ffffffffffffffffffffffffffffffffffffffff16905090565b3373ffffffffffffffffffffffffffffffffffffffff166000809054906101000a900473ffffffffffffffffffffffffffffffffffffffff1673ffffffffffffffffffffffffffffffffffffffff161415156115fa576040517f08c379a00000000000000000000000000000000000000000000000000000000081526004018080602001828103825260168152602001807f4e6f742074686520636f6e7472616374206f776e65720000000000000000000081525060200191505060405180910390fd5b600160009054906101000a900473ffffffffffffffffffffffffffffffffffffffff1673ffffffffffffffffffffffffffffffffffffffff166313af4035826040518263ffffffff167c0100000000000000000000000000000000000000000000000000000000028152600401808273ffffffffffffffffffffffffffffffffffffffff1673ffffffffffffffffffffffffffffffffffffffff168152602001915050600060405180830381600087803b1580156116b757600080fd5b505af11580156116cb573d6000803e3d6000fd5b5050505050565b6000600160009054906101000a900473ffffffffffffffffffffffffffffffffffffffff16905090565b6000809054906101000a900473ffffffffffffffffffffffffffffffffffffffff1681565b3373ffffffffffffffffffffffffffffffffffffffff166000809054906101000a900473ffffffffffffffffffffffffffffffffffffffff1673ffffffffffffffffffffffffffffffffffffffff161415156117e5576040517f08c379a00000000000000000000000000000000000000000000000000000000081526004018080602001828103825260168152602001807f4e6f742074686520636f6e7472616374206f776e65720000000000000000000081525060200191505060405180910390fd5b80600160006101000a81548173ffffffffffffffffffffffffffffffffffffffff021916908373ffffffffffffffffffffffffffffffffffffffff16021790555050565b3373ffffffffffffffffffffffffffffffffffffffff166000809054906101000a900473ffffffffffffffffffffffffffffffffffffffff1673ffffffffffffffffffffffffffffffffffffffff161415156118ed576040517f08c379a00000000000000000000000000000000000000000000000000000000081526004018080602001828103825260168152602001807f4e6f742074686520636f6e7472616374206f776e65720000000000000000000081525060200191505060405180910390fd5b6060600160009054906101000a900473ffffffffffffffffffffffffffffffffffffffff1673ffffffffffffffffffffffffffffffffffffffff16636b198e5c856040518263ffffffff167c01000000000000000000000000000000000000000000000000000000000281526004018082815260200191505060006040518083038186803b15801561197e57600080fd5b505afa158015611992573d6000803e3d6000fd5b505050506040513d6000823e3d601f19601f8201168201806040525060208110156119bc57600080fd5b8101908080516401000000008111156119d457600080fd5b828101905060208101848111156119ea57600080fd5b8151856001820283011164010000000082111715611a0757600080fd5b5050929190505050905060405160200180600001905060405160208183030381529060405280519060200120816040516020018082805190602001908083835b602083101515611a6c5780518252602082019150602081019050602083039250611a47565b6001836020036101000a03801982511681845116808217855250505050505090500191505060405160208183030381529060405280519060200120141515611c5657600160009054906101000a900473ffffffffffffffffffffffffffffffffffffffff1673ffffffffffffffffffffffffffffffffffffffff1663e8ad04468585856040518463ffffffff167c0100000000000000000000000000000000000000000000000000000000028152600401808481526020018373ffffffffffffffffffffffffffffffffffffffff1673ffffffffffffffffffffffffffffffffffffffff1681526020018281526020019350505050600060405180830381600087803b158015611b7b57600080fd5b505af1158015611b8f573d6000803e3d6000fd5b50505050600160009054906101000a900473ffffffffffffffffffffffffffffffffffffffff1673ffffffffffffffffffffffffffffffffffffffff166324450352600180876040518463ffffffff167c010000000000000000000000000000000000000000000000000000000002815260040180841515151581526020018381526020018281526020019350505050600060405180830381600087803b158015611c3957600080fd5b505af1158015611c4d573d6000803e3d6000fd5b50505050611d10565b6040517f08c379a00000000000000000000000000000000000000000000000000000000081526004018080602001828103825260468152602001807f54686520676976656e20696e766573746f7220646f6573206e6f74206578697381526020017f742c20736f20616e20696e766573746d656e7420686173206e6f74206265656e81526020017f206164646564000000000000000000000000000000000000000000000000000081525060600191505060405180910390fd5b5050505056fea165627a7a723058209a1be80184dcc2da6f9db966a7ea8c7a882ffdbd107d9b124983f8afbf1e1bf60029",
  "source": "pragma solidity ^0.5.0;\nimport \"./InvestorManagementData.sol\";\n\n//** This contract holds information on:\n//**\n\ncontract InvestorMangementLogic {\n    \n        //holds the address of the contract creator\n    address public Owner;\n    //The current CompanyData contract\n    InvestorManagementData CurrentInvestorManagementData;\n    \n\n    \n    /******** Start of modifiers *********/\n\t\n\t//** any function containing this modifier, only allows the contract owner to call it**//\n\tmodifier ifOwner(){\n        if(Owner != msg.sender){\n            revert(\"Not the contract owner\");\n        }else{\n            _; //means continue on the functions that called it\n        }\n    }\n\n\t/******** End of Modifiers  *********/\n\t\n    \n    \t\t//** The constructor sets the smart contract owner as the address that put the create contract transaction onto the blockchain**//\n    constructor (address thisCurrentInvestorManagmentData) public {\n    \n            Owner = msg.sender;\n            CurrentInvestorManagementData = InvestorManagementData(thisCurrentInvestorManagmentData);\n            \n    }  \n    \n    function upgradeInvestorDataContract(address thisCurrentInvestorManagementData) external ifOwner {\n        CurrentInvestorManagementData = InvestorManagementData(thisCurrentInvestorManagementData);\n    }\n    \n    /*********************Start of SET functions**************************************************/\n        \n        function setOwner(address newOwner) external ifOwner {\n            \n            Owner = newOwner;\n            \n        } \n        \n        function setOwnerOfDataContract(address newOwner) external ifOwner {\n            \n            CurrentInvestorManagementData.setOwner(newOwner);\n            \n        } \n        \n    function addNewInvestor(uint newInvestorId, string calldata newName) external ifOwner {\n\n            //only set the new investor if it is not already set\n            string memory currentName = CurrentInvestorManagementData.getInvestorName(newInvestorId);\n            if (keccak256(abi.encodePacked(currentName)) == keccak256(abi.encodePacked(\"\"))){\n                CurrentInvestorManagementData.addNewInvestor(newInvestorId, newName);\n                CurrentInvestorManagementData.changeNextFreeInvestor(true, 1);\n                CurrentInvestorManagementData.changeActiveInvestorCount(true, 1);\n            } else {\n                revert(\"This investor has already been added\");\n            }\n\n    }\n        \n    function deleteInvestor(uint investorId) external ifOwner {\n        \n            string memory currentName = CurrentInvestorManagementData.getInvestorName(investorId);\n            if (keccak256(abi.encodePacked(currentName)) != keccak256(abi.encodePacked(\"\"))){\n                CurrentInvestorManagementData.deleteInvestor(investorId);\n                CurrentInvestorManagementData.changeActiveInvestorCount(false, 1);\n                \n            } \n        \n    }\n    \n    function changeInvestorSecurityCount(uint investorId, string calldata investorName, bool add, uint number, string calldata companyName/*, string calldata securityName*/) external ifOwner {\n        //if investor exists...\n        string memory currentName = CurrentInvestorManagementData.getInvestorName(investorId);\n        if (keccak256(abi.encodePacked(currentName)) == keccak256(abi.encodePacked(investorName))){\n            CurrentInvestorManagementData.changeInvestorSecurityTotal(add,number,investorId);\n            CurrentInvestorManagementData.changeAllActiveSecuritiesCount(add, number);\n            CurrentInvestorManagementData.changeInvestorsTotalNumOfSecurityCount(add,number,investorId,companyName);\n        } else {\n            revert(\"Given investorName and saved investor name do not match, so no update to the security count has occurred\");\n        }\n        \n    }\n    \n    \n    function addInvestorsInvestment(uint investorId, address company, uint roundId) external ifOwner {\n        //if investor exists...\n        string memory currentName = CurrentInvestorManagementData.getInvestorName(investorId);\n        if (keccak256(abi.encodePacked(currentName)) != keccak256(abi.encodePacked(\"\"))){\n            CurrentInvestorManagementData.addInvestorsInvestment(investorId,company,roundId);\n            CurrentInvestorManagementData.changeInvestorsInvestmentCount(true, 1, investorId);\n        } else {\n            revert(\"The given investor does not exist, so an investment has not been added\");\n        }    \n                \n    }\n    \n        /*********************Start of GET functions**************************************************/\n\n\n    function getOwner() public view returns (address){\n        return Owner;\n    }\n    \n    function getContractDataAddress() public view returns (address){\n        return address(CurrentInvestorManagementData);\n    }\n    /***********************End of GET functions**************************************************/\n\n        \n        \n    \n}\n",
  "sourcePath": "/home/luke/Documents/Code/CrowdcubeGit/volt_v2/TruffleVersion/contracts/InvestorManagementLogic.sol",
  "compiler": {
    "name": "solc",
    "version": "0.5.0+commit.1d4f565a.Emscripten.clang"
  },
  "schemaVersion": "3.0.1",
  "updatedAt": "2019-01-24T11:21:49.865Z",
  "devdoc": {
    "methods": {}
  },
  "userdoc": {
    "methods": {
      "constructor": "****** End of Modifiers  ********",
      "getOwner()": {
        "notice": "*******************Start of GET functions*************************************************"
      },
      "setOwner(address)": {
        "notice": "*******************Start of SET functions*************************************************"
      }
    }
  }
}