{
  "contractName": "InvestorManagementData",
  "abi": [
    {
      "constant": true,
      "inputs": [],
      "name": "Owner",
      "outputs": [
        {
          "name": "",
          "type": "address"
        }
      ],
      "payable": false,
      "stateMutability": "view",
      "type": "function",
      "signature": "0xb4a99a4e"
    },
    {
      "inputs": [],
      "payable": false,
      "stateMutability": "nonpayable",
      "type": "constructor",
      "signature": "constructor"
    },
    {
      "constant": false,
      "inputs": [
        {
          "name": "newOwner",
          "type": "address"
        }
      ],
      "name": "setOwner",
      "outputs": [],
      "payable": false,
      "stateMutability": "nonpayable",
      "type": "function",
      "signature": "0x13af4035"
    },
    {
      "constant": false,
      "inputs": [
        {
          "name": "newInvestorId",
          "type": "uint256"
        },
        {
          "name": "newName",
          "type": "string"
        }
      ],
      "name": "addNewInvestor",
      "outputs": [],
      "payable": false,
      "stateMutability": "nonpayable",
      "type": "function",
      "signature": "0x1653e432"
    },
    {
      "constant": false,
      "inputs": [
        {
          "name": "investorId",
          "type": "uint256"
        }
      ],
      "name": "deleteInvestor",
      "outputs": [],
      "payable": false,
      "stateMutability": "nonpayable",
      "type": "function",
      "signature": "0x5fe5ae44"
    },
    {
      "constant": false,
      "inputs": [
        {
          "name": "investorId",
          "type": "uint256"
        },
        {
          "name": "company",
          "type": "address"
        },
        {
          "name": "roundId",
          "type": "uint256"
        }
      ],
      "name": "addInvestorsInvestment",
      "outputs": [],
      "payable": false,
      "stateMutability": "nonpayable",
      "type": "function",
      "signature": "0xe8ad0446"
    },
    {
      "constant": false,
      "inputs": [
        {
          "name": "add",
          "type": "bool"
        },
        {
          "name": "number",
          "type": "uint256"
        }
      ],
      "name": "changeNextFreeInvestor",
      "outputs": [],
      "payable": false,
      "stateMutability": "nonpayable",
      "type": "function",
      "signature": "0x8765a1c6"
    },
    {
      "constant": false,
      "inputs": [
        {
          "name": "add",
          "type": "bool"
        },
        {
          "name": "number",
          "type": "uint256"
        }
      ],
      "name": "changeActiveInvestorCount",
      "outputs": [],
      "payable": false,
      "stateMutability": "nonpayable",
      "type": "function",
      "signature": "0x5ea76672"
    },
    {
      "constant": false,
      "inputs": [
        {
          "name": "add",
          "type": "bool"
        },
        {
          "name": "number",
          "type": "uint256"
        }
      ],
      "name": "changeAllActiveSecuritiesCount",
      "outputs": [],
      "payable": false,
      "stateMutability": "nonpayable",
      "type": "function",
      "signature": "0xcda57bca"
    },
    {
      "constant": false,
      "inputs": [
        {
          "name": "add",
          "type": "bool"
        },
        {
          "name": "number",
          "type": "uint256"
        },
        {
          "name": "investorId",
          "type": "uint256"
        }
      ],
      "name": "changeInvestorSecurityTotal",
      "outputs": [],
      "payable": false,
      "stateMutability": "nonpayable",
      "type": "function",
      "signature": "0x0dd7db9a"
    },
    {
      "constant": false,
      "inputs": [
        {
          "name": "add",
          "type": "bool"
        },
        {
          "name": "number",
          "type": "uint256"
        },
        {
          "name": "investorId",
          "type": "uint256"
        }
      ],
      "name": "changeInvestorsInvestmentCount",
      "outputs": [],
      "payable": false,
      "stateMutability": "nonpayable",
      "type": "function",
      "signature": "0x24450352"
    },
    {
      "constant": false,
      "inputs": [
        {
          "name": "add",
          "type": "bool"
        },
        {
          "name": "number",
          "type": "uint256"
        },
        {
          "name": "investorId",
          "type": "uint256"
        },
        {
          "name": "companyName",
          "type": "string"
        }
      ],
      "name": "changeInvestorsTotalNumOfSecurityCount",
      "outputs": [],
      "payable": false,
      "stateMutability": "nonpayable",
      "type": "function",
      "signature": "0xe6efec09"
    },
    {
      "constant": true,
      "inputs": [],
      "name": "getOwner",
      "outputs": [
        {
          "name": "",
          "type": "address"
        }
      ],
      "payable": false,
      "stateMutability": "view",
      "type": "function",
      "signature": "0x893d20e8"
    },
    {
      "constant": true,
      "inputs": [],
      "name": "getNextFreeInvestor",
      "outputs": [
        {
          "name": "",
          "type": "uint256"
        }
      ],
      "payable": false,
      "stateMutability": "view",
      "type": "function",
      "signature": "0xfa93c794"
    },
    {
      "constant": true,
      "inputs": [],
      "name": "getNumOfActiveInvestors",
      "outputs": [
        {
          "name": "",
          "type": "uint256"
        }
      ],
      "payable": false,
      "stateMutability": "view",
      "type": "function",
      "signature": "0x12f365f5"
    },
    {
      "constant": true,
      "inputs": [
        {
          "name": "investorId",
          "type": "uint256"
        }
      ],
      "name": "getInvestorName",
      "outputs": [
        {
          "name": "",
          "type": "string"
        }
      ],
      "payable": false,
      "stateMutability": "view",
      "type": "function",
      "signature": "0x6b198e5c"
    },
    {
      "constant": true,
      "inputs": [
        {
          "name": "investorId",
          "type": "uint256"
        }
      ],
      "name": "getInvestorTotalSecurities",
      "outputs": [
        {
          "name": "",
          "type": "uint256"
        }
      ],
      "payable": false,
      "stateMutability": "view",
      "type": "function",
      "signature": "0x349f83ec"
    },
    {
      "constant": true,
      "inputs": [
        {
          "name": "investorId",
          "type": "uint256"
        }
      ],
      "name": "getNextFreeInvestment",
      "outputs": [
        {
          "name": "",
          "type": "uint256"
        }
      ],
      "payable": false,
      "stateMutability": "view",
      "type": "function",
      "signature": "0x488deeac"
    },
    {
      "constant": true,
      "inputs": [
        {
          "name": "investorId",
          "type": "uint256"
        },
        {
          "name": "investmentId",
          "type": "uint256"
        }
      ],
      "name": "getInvestorInvestmentCompany",
      "outputs": [
        {
          "name": "",
          "type": "address"
        }
      ],
      "payable": false,
      "stateMutability": "view",
      "type": "function",
      "signature": "0x7b748632"
    },
    {
      "constant": true,
      "inputs": [
        {
          "name": "investorId",
          "type": "uint256"
        },
        {
          "name": "companyName",
          "type": "string"
        }
      ],
      "name": "getInvestorTotalNumOfSecurities",
      "outputs": [
        {
          "name": "",
          "type": "uint256"
        }
      ],
      "payable": false,
      "stateMutability": "view",
      "type": "function",
      "signature": "0x16523c0f"
    },
    {
      "constant": true,
      "inputs": [
        {
          "name": "investorId",
          "type": "uint256"
        },
        {
          "name": "investmentId",
          "type": "uint256"
        }
      ],
      "name": "getInvestorInvestmentId",
      "outputs": [
        {
          "name": "",
          "type": "uint256"
        }
      ],
      "payable": false,
      "stateMutability": "view",
      "type": "function",
      "signature": "0xec51bd14"
    },
    {
      "constant": true,
      "inputs": [],
      "name": "getAllActiveSecurities",
      "outputs": [
        {
          "name": "",
          "type": "uint256"
        }
      ],
      "payable": false,
      "stateMutability": "view",
      "type": "function",
      "signature": "0x776044ae"
    }
  ],
  "bytecode": "0x608060405234801561001057600080fd5b50336000806101000a81548173ffffffffffffffffffffffffffffffffffffffff021916908373ffffffffffffffffffffffffffffffffffffffff1602179055506118e1806100606000396000f3fe60806040526004361061011d576000357c0100000000000000000000000000000000000000000000000000000000900463ffffffff1680630dd7db9a1461012257806312f365f51461017357806313af40351461019e57806316523c0f146101ef5780631653e432146102d55780632445035214610365578063349f83ec146103b6578063488deeac146104055780635ea76672146104545780635fe5ae441461049b5780636b198e5c146104d6578063776044ae1461058a5780637b748632146105b55780638765a1c61461063a578063893d20e814610681578063b4a99a4e146106d8578063cda57bca1461072f578063e6efec0914610776578063e8ad04461461081c578063ec51bd1414610881578063fa93c794146108da575b600080fd5b34801561012e57600080fd5b506101716004803603606081101561014557600080fd5b810190808035151590602001909291908035906020019092919080359060200190929190505050610905565b005b34801561017f57600080fd5b50610188610a47565b6040518082815260200191505060405180910390f35b3480156101aa57600080fd5b506101ed600480360360208110156101c157600080fd5b81019080803573ffffffffffffffffffffffffffffffffffffffff169060200190929190505050610a51565b005b3480156101fb57600080fd5b506102bf6004803603604081101561021257600080fd5b81019080803590602001909291908035906020019064010000000081111561023957600080fd5b82018360208201111561024b57600080fd5b8035906020019184600183028401116401000000008311171561026d57600080fd5b91908080601f016020809104026020016040519081016040528093929190818152602001838380828437600081840152601f19601f820116905080830192505050505050509192919290505050610b58565b6040518082815260200191505060405180910390f35b3480156102e157600080fd5b50610363600480360360408110156102f857600080fd5b81019080803590602001909291908035906020019064010000000081111561031f57600080fd5b82018360208201111561033157600080fd5b8035906020019184600183028401116401000000008311171561035357600080fd5b9091929391929390505050610be2565b005b34801561037157600080fd5b506103b46004803603606081101561038857600080fd5b810190808035151590602001909291908035906020019092919080359060200190929190505050610d08565b005b3480156103c257600080fd5b506103ef600480360360208110156103d957600080fd5b8101908080359060200190929190505050610e4a565b6040518082815260200191505060405180910390f35b34801561041157600080fd5b5061043e6004803603602081101561042857600080fd5b8101908080359060200190929190505050610e6a565b6040518082815260200191505060405180910390f35b34801561046057600080fd5b506104996004803603604081101561047757600080fd5b8101908080351515906020019092919080359060200190929190505050610e8a565b005b3480156104a757600080fd5b506104d4600480360360208110156104be57600080fd5b8101908080359060200190929190505050610f7b565b005b3480156104e257600080fd5b5061050f600480360360208110156104f957600080fd5b81019080803590602001909291905050506110b5565b6040518080602001828103825283818151815260200191508051906020019080838360005b8381101561054f578082015181840152602081019050610534565b50505050905090810190601f16801561057c5780820380516001836020036101000a031916815260200191505b509250505060405180910390f35b34801561059657600080fd5b5061059f61116d565b6040518082815260200191505060405180910390f35b3480156105c157600080fd5b506105f8600480360360408110156105d857600080fd5b810190808035906020019092919080359060200190929190505050611177565b604051808273ffffffffffffffffffffffffffffffffffffffff1673ffffffffffffffffffffffffffffffffffffffff16815260200191505060405180910390f35b34801561064657600080fd5b5061067f6004803603604081101561065d57600080fd5b81019080803515159060200190929190803590602001909291905050506111cc565b005b34801561068d57600080fd5b506106966112bd565b604051808273ffffffffffffffffffffffffffffffffffffffff1673ffffffffffffffffffffffffffffffffffffffff16815260200191505060405180910390f35b3480156106e457600080fd5b506106ed6112e6565b604051808273ffffffffffffffffffffffffffffffffffffffff1673ffffffffffffffffffffffffffffffffffffffff16815260200191505060405180910390f35b34801561073b57600080fd5b506107746004803603604081101561075257600080fd5b810190808035151590602001909291908035906020019092919050505061130b565b005b34801561078257600080fd5b5061081a6004803603608081101561079957600080fd5b810190808035151590602001909291908035906020019092919080359060200190929190803590602001906401000000008111156107d657600080fd5b8201836020820111156107e857600080fd5b8035906020019184600183028401116401000000008311171561080a57600080fd5b90919293919293905050506113fc565b005b34801561082857600080fd5b5061087f6004803603606081101561083f57600080fd5b8101908080359060200190929190803573ffffffffffffffffffffffffffffffffffffffff169060200190929190803590602001909291905050506115d4565b005b34801561088d57600080fd5b506108c4600480360360408110156108a457600080fd5b810190808035906020019092919080359060200190929190505050611751565b6040518082815260200191505060405180910390f35b3480156108e657600080fd5b506108ef611786565b6040518082815260200191505060405180910390f35b3373ffffffffffffffffffffffffffffffffffffffff166000809054906101000a900473ffffffffffffffffffffffffffffffffffffffff1673ffffffffffffffffffffffffffffffffffffffff161415156109c9576040517f08c379a00000000000000000000000000000000000000000000000000000000081526004018080602001828103825260168152602001807f4e6f742074686520636f6e7472616374206f776e65720000000000000000000081525060200191505060405180910390fd5b600115158315151415610a0e57816001600083815260200190815260200160002060010154016001600083815260200190815260200160002060010181905550610a42565b8160016000838152602001908152602001600020600101540360016000838152602001908152602001600020600101819055505b505050565b6000600354905090565b3373ffffffffffffffffffffffffffffffffffffffff166000809054906101000a900473ffffffffffffffffffffffffffffffffffffffff1673ffffffffffffffffffffffffffffffffffffffff16141515610b15576040517f08c379a00000000000000000000000000000000000000000000000000000000081526004018080602001828103825260168152602001807f4e6f742074686520636f6e7472616374206f776e65720000000000000000000081525060200191505060405180910390fd5b806000806101000a81548173ffffffffffffffffffffffffffffffffffffffff021916908373ffffffffffffffffffffffffffffffffffffffff16021790555050565b600060016000848152602001908152602001600020600401826040518082805190602001908083835b602083101515610ba65780518252602082019150602081019050602083039250610b81565b6001836020036101000a038019825116818451168082178552505050505050905001915050908152602001604051809103902054905092915050565b3373ffffffffffffffffffffffffffffffffffffffff166000809054906101000a900473ffffffffffffffffffffffffffffffffffffffff1673ffffffffffffffffffffffffffffffffffffffff16141515610ca6576040517f08c379a00000000000000000000000000000000000000000000000000000000081526004018080602001828103825260168152602001807f4e6f742074686520636f6e7472616374206f776e65720000000000000000000081525060200191505060405180910390fd5b8181600160008681526020019081526020016000206000019190610ccb929190611790565b5060006001600085815260200190815260200160002060010181905550600180600085815260200190815260200160002060030181905550505050565b3373ffffffffffffffffffffffffffffffffffffffff166000809054906101000a900473ffffffffffffffffffffffffffffffffffffffff1673ffffffffffffffffffffffffffffffffffffffff16141515610dcc576040517f08c379a00000000000000000000000000000000000000000000000000000000081526004018080602001828103825260168152602001807f4e6f742074686520636f6e7472616374206f776e65720000000000000000000081525060200191505060405180910390fd5b600115158315151415610e1157816001600083815260200190815260200160002060030154016001600083815260200190815260200160002060030181905550610e45565b8160016000838152602001908152602001600020600301540360016000838152602001908152602001600020600301819055505b505050565b600060016000838152602001908152602001600020600101549050919050565b600060016000838152602001908152602001600020600301549050919050565b3373ffffffffffffffffffffffffffffffffffffffff166000809054906101000a900473ffffffffffffffffffffffffffffffffffffffff1673ffffffffffffffffffffffffffffffffffffffff16141515610f4e576040517f08c379a00000000000000000000000000000000000000000000000000000000081526004018080602001828103825260168152602001807f4e6f742074686520636f6e7472616374206f776e65720000000000000000000081525060200191505060405180910390fd5b600115158215151415610f6b578060035401600381905550610f77565b80600354036003819055505b5050565b3373ffffffffffffffffffffffffffffffffffffffff166000809054906101000a900473ffffffffffffffffffffffffffffffffffffffff1673ffffffffffffffffffffffffffffffffffffffff1614151561103f576040517f08c379a00000000000000000000000000000000000000000000000000000000081526004018080602001828103825260168152602001807f4e6f742074686520636f6e7472616374206f776e65720000000000000000000081525060200191505060405180910390fd5b6020604051908101604052806000815250600160008381526020019081526020016000206000019080519060200190611079929190611810565b50600060016000838152602001908152602001600020600101819055506000600160008381526020019081526020016000206003018190555050565b6060600160008381526020019081526020016000206000018054600181600116156101000203166002900480601f0160208091040260200160405190810160405280929190818152602001828054600181600116156101000203166002900480156111615780601f1061113657610100808354040283529160200191611161565b820191906000526020600020905b81548152906001019060200180831161114457829003601f168201915b50505050509050919050565b6000600454905090565b600060016000848152602001908152602001600020600201600083815260200190815260200160002060000160009054906101000a900473ffffffffffffffffffffffffffffffffffffffff16905092915050565b3373ffffffffffffffffffffffffffffffffffffffff166000809054906101000a900473ffffffffffffffffffffffffffffffffffffffff1673ffffffffffffffffffffffffffffffffffffffff16141515611290576040517f08c379a00000000000000000000000000000000000000000000000000000000081526004018080602001828103825260168152602001807f4e6f742074686520636f6e7472616374206f776e65720000000000000000000081525060200191505060405180910390fd5b6001151582151514156112ad5780600254016002819055506112b9565b80600254036002819055505b5050565b60008060009054906101000a900473ffffffffffffffffffffffffffffffffffffffff16905090565b6000809054906101000a900473ffffffffffffffffffffffffffffffffffffffff1681565b3373ffffffffffffffffffffffffffffffffffffffff166000809054906101000a900473ffffffffffffffffffffffffffffffffffffffff1673ffffffffffffffffffffffffffffffffffffffff161415156113cf576040517f08c379a00000000000000000000000000000000000000000000000000000000081526004018080602001828103825260168152602001807f4e6f742074686520636f6e7472616374206f776e65720000000000000000000081525060200191505060405180910390fd5b6001151582151514156113ec5780600454016004819055506113f8565b80600454036004819055505b5050565b3373ffffffffffffffffffffffffffffffffffffffff166000809054906101000a900473ffffffffffffffffffffffffffffffffffffffff1673ffffffffffffffffffffffffffffffffffffffff161415156114c0576040517f08c379a00000000000000000000000000000000000000000000000000000000081526004018080602001828103825260168152602001807f4e6f742074686520636f6e7472616374206f776e65720000000000000000000081525060200191505060405180910390fd5b60011515851515141561154f5783600160008581526020019081526020016000206004018383604051808383808284378083019250505092505050908152602001604051809103902054016001600085815260200190815260200160002060040183836040518083838082843780830192505050925050509081526020016040518091039020819055506115cd565b83600160008581526020019081526020016000206004018383604051808383808284378083019250505092505050908152602001604051809103902054036001600085815260200190815260200160002060040183836040518083838082843780830192505050925050509081526020016040518091039020819055505b5050505050565b3373ffffffffffffffffffffffffffffffffffffffff166000809054906101000a900473ffffffffffffffffffffffffffffffffffffffff1673ffffffffffffffffffffffffffffffffffffffff16141515611698576040517f08c379a00000000000000000000000000000000000000000000000000000000081526004018080602001828103825260168152602001807f4e6f742074686520636f6e7472616374206f776e65720000000000000000000081525060200191505060405180910390fd5b6000600160008581526020019081526020016000206003015490508260016000868152602001908152602001600020600201600083815260200190815260200160002060000160006101000a81548173ffffffffffffffffffffffffffffffffffffffff021916908373ffffffffffffffffffffffffffffffffffffffff160217905550816001600086815260200190815260200160002060020160008381526020019081526020016000206001018190555050505050565b600060016000848152602001908152602001600020600201600083815260200190815260200160002060010154905092915050565b6000600254905090565b828054600181600116156101000203166002900490600052602060002090601f016020900481019282601f106117d157803560ff19168380011785556117ff565b828001600101855582156117ff579182015b828111156117fe5782358255916020019190600101906117e3565b5b50905061180c9190611890565b5090565b828054600181600116156101000203166002900490600052602060002090601f016020900481019282601f1061185157805160ff191683800117855561187f565b8280016001018555821561187f579182015b8281111561187e578251825591602001919060010190611863565b5b50905061188c9190611890565b5090565b6118b291905b808211156118ae576000816000905550600101611896565b5090565b9056fea165627a7a72305820c3b3b6e9fae792b95f6c710c63e9e3bef4f618c7cb4d37ea6d2c30bd0ad8cb880029",
  "source": "//Solidity online complier: https://remix.ethereum.org/\n\npragma solidity ^0.5.0;\n\n\ncontract InvestorManagementData {\n    \n    //holds the address of the contract creator\n    address public Owner;\t\n    mapping (uint => Investor) investors;\n    uint nextFreeInvestor;\n    //The number of investors after deletion\n    uint numOfActiveInvestors;\n    //all investors securities\n    uint allActiveSecurities;\n    \n    struct Investor{\n\n        //the name of this investor\n        string name;\n        //total of all securities held by investor\n        uint totalSecurities;\n        //all investments held at some point\n        mapping (uint => Investment) investments;\n        uint nextFreeInvestment;\n        //NOTE that this string is a combination of companyName and securityName\n        //mapping (string => mapping (string => uint)) totalNumOfSecurity;\n        //in this case it is just going to have to be companyName and not differiante on the securitytype\n        mapping (string => uint) totalNumOfSecurity;\n    }\n    \n    struct Investment {\n        //the address of the company being invested into\n        address company;\n        //the roundId of the investment\n        uint roundId;\n    }\n    \n    \n    /******** End of Structures *********/\n    \n    /******** Start of modifiers *********/\n\t\n\t//** any function containing this modifier, only allows the contract owner to call it**//\n\tmodifier ifOwner(){\n        if(Owner != msg.sender){\n            revert(\"Not the contract owner\");\n        }else{\n            _; //means continue on the functions that called it\n        }\n    }\n\t\n\t/******** End of Modifiers  *********/\n\t\n    /******** Start of Functions  *********/\n\n\t//** The constructor sets the smart contract owner as the address that put the create contract transaction onto the blockchain**//\n    constructor () public {\n    \n            Owner = msg.sender;\n            \n    }    \n    \n    /*********************Start of SET functions**************************************************/\n\n    function setOwner(address newOwner) external ifOwner {\n        \n        Owner = newOwner;\n        \n    } \n\n    function addNewInvestor(uint newInvestorId, string calldata newName) external ifOwner {\n\n        investors[newInvestorId].name = newName;\n        investors[newInvestorId].totalSecurities = 0;\n        investors[newInvestorId].nextFreeInvestment = 1; //0 will be used for error condition\n\n    }\n    \n    function deleteInvestor(uint investorId) external ifOwner {\n\n        investors[investorId].name = \"\";\n        investors[investorId].totalSecurities = 0;\n        investors[investorId].nextFreeInvestment = 0; //0 will be used for error condition\n\n    }\n    \n    \n    function addInvestorsInvestment(uint investorId, address company, uint roundId) external ifOwner {\n        \n        uint counter = investors[investorId].nextFreeInvestment;\n        investors[investorId].investments[counter].company = company;\n        investors[investorId].investments[counter].roundId = roundId;\n        \n    }\n    \n    function changeNextFreeInvestor(bool add, uint number) external ifOwner {\n        if (add == true){\n            nextFreeInvestor = nextFreeInvestor + number;\n        } else {\n            nextFreeInvestor = nextFreeInvestor - number;\n        }\n    }\n    \n    function changeActiveInvestorCount(bool add, uint number) external ifOwner {\n        if (add == true){\n            numOfActiveInvestors = numOfActiveInvestors + number;\n        } else {\n            numOfActiveInvestors = numOfActiveInvestors - number;\n        }\n    }\n    \n    function changeAllActiveSecuritiesCount(bool add, uint number) external ifOwner {\n        \n        if (add == true){\n            allActiveSecurities = allActiveSecurities + number;\n        } else {\n            allActiveSecurities = allActiveSecurities - number;\n        }\n        \n    }\n    \n    function changeInvestorSecurityTotal(bool add, uint number, uint investorId) external ifOwner {\n        if (add == true){\n            investors[investorId].totalSecurities = investors[investorId].totalSecurities + number;\n        } else {\n            investors[investorId].totalSecurities = investors[investorId].totalSecurities - number;\n        }\n    }\n    \n    function changeInvestorsInvestmentCount(bool add, uint number, uint investorId) external ifOwner {\n        \n        if (add == true){\n            investors[investorId].nextFreeInvestment = investors[investorId].nextFreeInvestment + number;\n        } else {\n            investors[investorId].nextFreeInvestment = investors[investorId].nextFreeInvestment - number;\n        }\n        \n    }\n    \n        function changeInvestorsTotalNumOfSecurityCount(bool add, uint number, uint investorId, string calldata companyName/*,string calldata security*/) external ifOwner {\n        if (add == true){\n            investors[investorId].totalNumOfSecurity[companyName] = investors[investorId].totalNumOfSecurity[companyName] + number;\n        } else {\n            investors[investorId].totalNumOfSecurity[companyName] = investors[investorId].totalNumOfSecurity[companyName] - number;\n        }\n        \n    }\n    \n\n    /***********************End of SET functions**************************************************/\n\n\n    /*********************Start of GET functions**************************************************/\n    \n    \n    function getOwner() public view returns (address){\n        return Owner;\n    }\n\n    function getNextFreeInvestor() public view returns (uint){\n        return nextFreeInvestor;\n    }\n    \n    function getNumOfActiveInvestors() public view returns (uint){\n        return numOfActiveInvestors;\n    }\n    \n    function getInvestorName(uint investorId) public view returns (string memory){\n        return investors[investorId].name;    \n    }\n    \n    function getInvestorTotalSecurities(uint investorId) public view returns (uint){\n        return investors[investorId].totalSecurities;\n    }\n    \n    function getNextFreeInvestment(uint investorId) public view returns (uint){\n        return investors[investorId].nextFreeInvestment;\n    }\n    \n    function getInvestorInvestmentCompany(uint investorId, uint investmentId) public view returns (address){\n        return investors[investorId].investments[investmentId].company;\n    }\n    \n    function getInvestorTotalNumOfSecurities(uint investorId, string memory companyName/*, string memory securityName*/) public view returns (uint) {\n        return investors[investorId].totalNumOfSecurity[companyName];\n    }\n\n    function getInvestorInvestmentId(uint investorId, uint investmentId) public view returns (uint) {\n        return investors[investorId].investments[investmentId].roundId;\n    }\n    \n    function getAllActiveSecurities() public view returns (uint) {\n        return allActiveSecurities;\n    }\n    \n}\n",
  "sourcePath": "/home/luke/Documents/Code/AAMAS/volt_v2/TruffleVersion/contracts/InvestorManagementData.sol",
  "compiler": {
    "name": "solc",
    "version": "0.5.0+commit.1d4f565a.Emscripten.clang"
  },
  "schemaVersion": "3.0.1",
  "updatedAt": "2019-05-15T17:06:46.847Z",
  "devdoc": {
    "methods": {}
  },
  "userdoc": {
    "methods": {
      "constructor": "****** Start of Functions  ********",
      "getOwner()": {
        "notice": "*******************Start of GET functions*************************************************"
      },
      "setOwner(address)": {
        "notice": "*******************Start of SET functions*************************************************"
      }
    }
  }
}