{
  "contractName": "VotingLogic",
  "abi": [
    {
      "constant": true,
      "inputs": [],
      "name": "Owner",
      "outputs": [
        {
          "name": "",
          "type": "address"
        }
      ],
      "payable": false,
      "stateMutability": "view",
      "type": "function",
      "signature": "0xb4a99a4e"
    },
    {
      "inputs": [
        {
          "name": "votingDataContract",
          "type": "address"
        },
        {
          "name": "investorManagementContract",
          "type": "address"
        }
      ],
      "payable": false,
      "stateMutability": "nonpayable",
      "type": "constructor",
      "signature": "constructor"
    },
    {
      "anonymous": false,
      "inputs": [
        {
          "indexed": false,
          "name": "s",
          "type": "string"
        },
        {
          "indexed": false,
          "name": "voteId",
          "type": "uint256"
        },
        {
          "indexed": false,
          "name": "investorId",
          "type": "uint256"
        },
        {
          "indexed": false,
          "name": "newDate",
          "type": "uint256"
        },
        {
          "indexed": false,
          "name": "selectedOption",
          "type": "string"
        },
        {
          "indexed": false,
          "name": "currentVoterId",
          "type": "uint256"
        }
      ],
      "name": "NewVoter",
      "type": "event",
      "signature": "0xd42c98e4e025485311ab52c891eedf4b7abf891ce79dc3b70a1bce358e5ad2a0"
    },
    {
      "constant": false,
      "inputs": [
        {
          "name": "thisCurrentVotingData",
          "type": "address"
        }
      ],
      "name": "upgradeVotingDataContract",
      "outputs": [],
      "payable": false,
      "stateMutability": "nonpayable",
      "type": "function",
      "signature": "0xaad3a7ab"
    },
    {
      "constant": false,
      "inputs": [
        {
          "name": "thisCurrentInvestorData",
          "type": "address"
        }
      ],
      "name": "upgradeInvestorDataContract",
      "outputs": [],
      "payable": false,
      "stateMutability": "nonpayable",
      "type": "function",
      "signature": "0xe75a9022"
    },
    {
      "constant": false,
      "inputs": [
        {
          "name": "newOwner",
          "type": "address"
        }
      ],
      "name": "setOwner",
      "outputs": [],
      "payable": false,
      "stateMutability": "nonpayable",
      "type": "function",
      "signature": "0x13af4035"
    },
    {
      "constant": false,
      "inputs": [
        {
          "name": "newLinkedCompany",
          "type": "address"
        }
      ],
      "name": "setLinkedCompany",
      "outputs": [],
      "payable": false,
      "stateMutability": "nonpayable",
      "type": "function",
      "signature": "0xee702934"
    },
    {
      "constant": false,
      "inputs": [
        {
          "name": "voteId",
          "type": "uint256"
        },
        {
          "name": "newExpiryDate",
          "type": "uint256"
        }
      ],
      "name": "setExpiryDate",
      "outputs": [],
      "payable": false,
      "stateMutability": "nonpayable",
      "type": "function",
      "signature": "0xd91f2a0b"
    },
    {
      "constant": false,
      "inputs": [
        {
          "name": "voteId",
          "type": "uint256"
        },
        {
          "name": "securityId",
          "type": "uint256"
        },
        {
          "name": "newSecurityType",
          "type": "string"
        }
      ],
      "name": "setSecurityType",
      "outputs": [],
      "payable": false,
      "stateMutability": "nonpayable",
      "type": "function",
      "signature": "0x5491d06f"
    },
    {
      "constant": false,
      "inputs": [
        {
          "name": "voteId",
          "type": "uint256"
        },
        {
          "name": "newQuestion",
          "type": "string"
        },
        {
          "name": "optionOne",
          "type": "string"
        },
        {
          "name": "optionTwo",
          "type": "string"
        },
        {
          "name": "newSecurityType",
          "type": "string"
        },
        {
          "name": "newExpiryDate",
          "type": "uint256"
        }
      ],
      "name": "addANewVote",
      "outputs": [],
      "payable": false,
      "stateMutability": "nonpayable",
      "type": "function",
      "signature": "0x76b26974"
    },
    {
      "constant": false,
      "inputs": [
        {
          "name": "voteId",
          "type": "uint256"
        },
        {
          "name": "optionId",
          "type": "uint256"
        },
        {
          "name": "newVoteOption",
          "type": "string"
        }
      ],
      "name": "setVoteOption",
      "outputs": [],
      "payable": false,
      "stateMutability": "nonpayable",
      "type": "function",
      "signature": "0x2ef37eff"
    },
    {
      "constant": false,
      "inputs": [
        {
          "name": "voteId",
          "type": "uint256"
        },
        {
          "name": "investorId",
          "type": "uint256"
        },
        {
          "name": "investorName",
          "type": "string"
        },
        {
          "name": "newDate",
          "type": "uint256"
        },
        {
          "name": "selectedOption",
          "type": "string"
        },
        {
          "name": "optionId",
          "type": "uint256"
        },
        {
          "name": "companyName",
          "type": "string"
        }
      ],
      "name": "setVoteAnswer",
      "outputs": [],
      "payable": false,
      "stateMutability": "nonpayable",
      "type": "function",
      "signature": "0xa7cc6397"
    },
    {
      "constant": false,
      "inputs": [
        {
          "name": "voteId",
          "type": "uint256"
        }
      ],
      "name": "setVoteStarted",
      "outputs": [],
      "payable": false,
      "stateMutability": "nonpayable",
      "type": "function",
      "signature": "0x03507d84"
    },
    {
      "constant": false,
      "inputs": [
        {
          "name": "voteId",
          "type": "uint256"
        }
      ],
      "name": "setVoteFinished",
      "outputs": [],
      "payable": false,
      "stateMutability": "nonpayable",
      "type": "function",
      "signature": "0x137f0b1f"
    },
    {
      "constant": true,
      "inputs": [],
      "name": "getOwner",
      "outputs": [
        {
          "name": "",
          "type": "address"
        }
      ],
      "payable": false,
      "stateMutability": "view",
      "type": "function",
      "signature": "0x893d20e8"
    },
    {
      "constant": true,
      "inputs": [],
      "name": "getContractDataAddress",
      "outputs": [
        {
          "name": "",
          "type": "address"
        }
      ],
      "payable": false,
      "stateMutability": "view",
      "type": "function",
      "signature": "0x8b38a6c9"
    },
    {
      "constant": true,
      "inputs": [],
      "name": "getCurrentInvestorDataAddress",
      "outputs": [
        {
          "name": "",
          "type": "address"
        }
      ],
      "payable": false,
      "stateMutability": "view",
      "type": "function",
      "signature": "0x4935b25b"
    }
  ],
  "bytecode": "0x608060405234801561001057600080fd5b50604051604080620045988339810180604052604081101561003157600080fd5b810190808051906020019092919080519060200190929190505050336000806101000a81548173ffffffffffffffffffffffffffffffffffffffff021916908373ffffffffffffffffffffffffffffffffffffffff16021790555081600160006101000a81548173ffffffffffffffffffffffffffffffffffffffff021916908373ffffffffffffffffffffffffffffffffffffffff16021790555080600260006101000a81548173ffffffffffffffffffffffffffffffffffffffff021916908373ffffffffffffffffffffffffffffffffffffffff160217905550505061447880620001206000396000f3fe6080604052600436106100db576000357c0100000000000000000000000000000000000000000000000000000000900463ffffffff16806303507d84146100e0578063137f0b1f1461011b57806313af4035146101565780632ef37eff146101a75780634935b25b146102415780635491d06f1461029857806376b2697414610332578063893d20e8146104cb5780638b38a6c914610522578063a7cc639714610579578063aad3a7ab146106d1578063b4a99a4e14610722578063d91f2a0b14610779578063e75a9022146107be578063ee7029341461080f575b600080fd5b3480156100ec57600080fd5b506101196004803603602081101561010357600080fd5b8101908080359060200190929190505050610860565b005b34801561012757600080fd5b506101546004803603602081101561013e57600080fd5b8101908080359060200190929190505050611077565b005b34801561016257600080fd5b506101a56004803603602081101561017957600080fd5b81019080803573ffffffffffffffffffffffffffffffffffffffff169060200190929190505050611719565b005b3480156101b357600080fd5b5061023f600480360360608110156101ca57600080fd5b810190808035906020019092919080359060200190929190803590602001906401000000008111156101fb57600080fd5b82018360208201111561020d57600080fd5b8035906020019184600183028401116401000000008311171561022f57600080fd5b90919293919293905050506118b5565b005b34801561024d57600080fd5b50610256611e22565b604051808273ffffffffffffffffffffffffffffffffffffffff1673ffffffffffffffffffffffffffffffffffffffff16815260200191505060405180910390f35b3480156102a457600080fd5b50610330600480360360608110156102bb57600080fd5b810190808035906020019092919080359060200190929190803590602001906401000000008111156102ec57600080fd5b8201836020820111156102fe57600080fd5b8035906020019184600183028401116401000000008311171561032057600080fd5b9091929391929390505050611e4c565b005b34801561033e57600080fd5b506104c9600480360360c081101561035557600080fd5b81019080803590602001909291908035906020019064010000000081111561037c57600080fd5b82018360208201111561038e57600080fd5b803590602001918460018302840111640100000000831117156103b057600080fd5b9091929391929390803590602001906401000000008111156103d157600080fd5b8201836020820111156103e357600080fd5b8035906020019184600183028401116401000000008311171561040557600080fd5b90919293919293908035906020019064010000000081111561042657600080fd5b82018360208201111561043857600080fd5b8035906020019184600183028401116401000000008311171561045a57600080fd5b90919293919293908035906020019064010000000081111561047b57600080fd5b82018360208201111561048d57600080fd5b803590602001918460018302840111640100000000831117156104af57600080fd5b9091929391929390803590602001909291905050506122fb565b005b3480156104d757600080fd5b506104e06128d7565b604051808273ffffffffffffffffffffffffffffffffffffffff1673ffffffffffffffffffffffffffffffffffffffff16815260200191505060405180910390f35b34801561052e57600080fd5b50610537612900565b604051808273ffffffffffffffffffffffffffffffffffffffff1673ffffffffffffffffffffffffffffffffffffffff16815260200191505060405180910390f35b34801561058557600080fd5b506106cf600480360360e081101561059c57600080fd5b810190808035906020019092919080359060200190929190803590602001906401000000008111156105cd57600080fd5b8201836020820111156105df57600080fd5b8035906020019184600183028401116401000000008311171561060157600080fd5b9091929391929390803590602001909291908035906020019064010000000081111561062c57600080fd5b82018360208201111561063e57600080fd5b8035906020019184600183028401116401000000008311171561066057600080fd5b9091929391929390803590602001909291908035906020019064010000000081111561068b57600080fd5b82018360208201111561069d57600080fd5b803590602001918460018302840111640100000000831117156106bf57600080fd5b909192939192939050505061292a565b005b3480156106dd57600080fd5b50610720600480360360208110156106f457600080fd5b81019080803573ffffffffffffffffffffffffffffffffffffffff169060200190929190505050613b0d565b005b34801561072e57600080fd5b50610737613c15565b604051808273ffffffffffffffffffffffffffffffffffffffff1673ffffffffffffffffffffffffffffffffffffffff16815260200191505060405180910390f35b34801561078557600080fd5b506107bc6004803603604081101561079c57600080fd5b810190808035906020019092919080359060200190929190505050613c3a565b005b3480156107ca57600080fd5b5061080d600480360360208110156107e157600080fd5b81019080803573ffffffffffffffffffffffffffffffffffffffff1690602001909291905050506140b3565b005b34801561081b57600080fd5b5061085e6004803603602081101561083257600080fd5b81019080803573ffffffffffffffffffffffffffffffffffffffff1690602001909291905050506141bb565b005b3373ffffffffffffffffffffffffffffffffffffffff166000809054906101000a900473ffffffffffffffffffffffffffffffffffffffff1673ffffffffffffffffffffffffffffffffffffffff16141515610924576040517f08c379a00000000000000000000000000000000000000000000000000000000081526004018080602001828103825260168152602001807f4e6f742074686520636f6e7472616374206f776e65720000000000000000000081525060200191505060405180910390fd5b806000600160009054906101000a900473ffffffffffffffffffffffffffffffffffffffff1673ffffffffffffffffffffffffffffffffffffffff1663cee024dc6040518163ffffffff167c010000000000000000000000000000000000000000000000000000000002815260040160206040518083038186803b1580156109ab57600080fd5b505afa1580156109bf573d6000803e3d6000fd5b505050506040513d60208110156109d557600080fd5b8101908080519060200190929190505050905081600182011015610aad576040517f08c379a00000000000000000000000000000000000000000000000000000000081526004018080602001828103825260418152602001807f54686520676976656e20766f746549642063616e6e6f74206265206d6f72652081526020017f7468616e2031206168656164206f66207468652063757272656e7420636f756e81526020017f740000000000000000000000000000000000000000000000000000000000000081525060600191505060405180910390fd5b6060600160009054906101000a900473ffffffffffffffffffffffffffffffffffffffff1673ffffffffffffffffffffffffffffffffffffffff16634ef332ef856040518263ffffffff167c01000000000000000000000000000000000000000000000000000000000281526004018082815260200191505060006040518083038186803b158015610b3e57600080fd5b505afa158015610b52573d6000803e3d6000fd5b505050506040513d6000823e3d601f19601f820116820180604052506020811015610b7c57600080fd5b810190808051640100000000811115610b9457600080fd5b82810190506020810184811115610baa57600080fd5b8151856001820283011164010000000082111715610bc757600080fd5b505092919050505090506000600160009054906101000a900473ffffffffffffffffffffffffffffffffffffffff1673ffffffffffffffffffffffffffffffffffffffff1663043a8f86866040518263ffffffff167c01000000000000000000000000000000000000000000000000000000000281526004018082815260200191505060206040518083038186803b158015610c6257600080fd5b505afa158015610c76573d6000803e3d6000fd5b505050506040513d6020811015610c8c57600080fd5b810190808051906020019092919050505090506000600160009054906101000a900473ffffffffffffffffffffffffffffffffffffffff1673ffffffffffffffffffffffffffffffffffffffff1663a9a57d0e876040518263ffffffff167c01000000000000000000000000000000000000000000000000000000000281526004018082815260200191505060206040518083038186803b158015610d3057600080fd5b505afa158015610d44573d6000803e3d6000fd5b505050506040513d6020811015610d5a57600080fd5b810190808051906020019092919050505090506040518060000190506040518091039020836040516020018082805190602001908083835b602083101515610db75780518252602082019150602081019050602083039250610d92565b6001836020036101000a038019825116818451168082178552505050505050905001915050604051602081830303815290604052805190602001201415610e8c576040517f08c379a000000000000000000000000000000000000000000000000000000000815260040180806020018281038252602a8152602001807f4120766f74652063616e6e6f74207374617274207769746820616e20656d707481526020017f79207175657374696f6e0000000000000000000000000000000000000000000081525060400191505060405180910390fd5b6000821415610f29576040517f08c379a000000000000000000000000000000000000000000000000000000000815260040180806020018281038252602d8152602001807f4120766f74652063616e6e6f74207374617274207769746820616e20656d707481526020017f792065787069727920646174650000000000000000000000000000000000000081525060400191505060405180910390fd5b6002811015610fc6576040517f08c379a00000000000000000000000000000000000000000000000000000000081526004018080602001828103825260238152602001807f4120766f7465206d7573742068617665206174206c656173742032206f70746981526020017f6f6e73000000000000000000000000000000000000000000000000000000000081525060400191505060405180910390fd5b600160009054906101000a900473ffffffffffffffffffffffffffffffffffffffff1673ffffffffffffffffffffffffffffffffffffffff166303507d84876040518263ffffffff167c010000000000000000000000000000000000000000000000000000000002815260040180828152602001915050600060405180830381600087803b15801561105757600080fd5b505af115801561106b573d6000803e3d6000fd5b50505050505050505050565b3373ffffffffffffffffffffffffffffffffffffffff166000809054906101000a900473ffffffffffffffffffffffffffffffffffffffff1673ffffffffffffffffffffffffffffffffffffffff1614151561113b576040517f08c379a00000000000000000000000000000000000000000000000000000000081526004018080602001828103825260168152602001807f4e6f742074686520636f6e7472616374206f776e65720000000000000000000081525060200191505060405180910390fd5b806000600160009054906101000a900473ffffffffffffffffffffffffffffffffffffffff1673ffffffffffffffffffffffffffffffffffffffff1663cee024dc6040518163ffffffff167c010000000000000000000000000000000000000000000000000000000002815260040160206040518083038186803b1580156111c257600080fd5b505afa1580156111d6573d6000803e3d6000fd5b505050506040513d60208110156111ec57600080fd5b81019080805190602001909291905050509050816001820110156112c4576040517f08c379a00000000000000000000000000000000000000000000000000000000081526004018080602001828103825260418152602001807f54686520676976656e20766f746549642063616e6e6f74206265206d6f72652081526020017f7468616e2031206168656164206f66207468652063757272656e7420636f756e81526020017f740000000000000000000000000000000000000000000000000000000000000081525060600191505060405180910390fd5b60001515600160009054906101000a900473ffffffffffffffffffffffffffffffffffffffff1673ffffffffffffffffffffffffffffffffffffffff1663595c84d0856040518263ffffffff167c01000000000000000000000000000000000000000000000000000000000281526004018082815260200191505060206040518083038186803b15801561135757600080fd5b505afa15801561136b573d6000803e3d6000fd5b505050506040513d602081101561138157600080fd5b81019080805190602001909291905050501515141561142e576040517f08c379a000000000000000000000000000000000000000000000000000000000815260040180806020018281038252602c8152602001807f566f74652063616e6e6f742066696e69736820617320697420686173206e6f7481526020017f207374617274656420796574000000000000000000000000000000000000000081525060400191505060405180910390fd5b42600160009054906101000a900473ffffffffffffffffffffffffffffffffffffffff1673ffffffffffffffffffffffffffffffffffffffff1663043a8f86856040518263ffffffff167c01000000000000000000000000000000000000000000000000000000000281526004018082815260200191505060206040518083038186803b1580156114be57600080fd5b505afa1580156114d2573d6000803e3d6000fd5b505050506040513d60208110156114e857600080fd5b81019080805190602001909291905050501115156115ae57600160009054906101000a900473ffffffffffffffffffffffffffffffffffffffff1673ffffffffffffffffffffffffffffffffffffffff1663137f0b1f846040518263ffffffff167c010000000000000000000000000000000000000000000000000000000002815260040180828152602001915050600060405180830381600087803b15801561159157600080fd5b505af11580156115a5573d6000803e3d6000fd5b50505050611714565b42600160009054906101000a900473ffffffffffffffffffffffffffffffffffffffff1673ffffffffffffffffffffffffffffffffffffffff1663043a8f86856040518263ffffffff167c01000000000000000000000000000000000000000000000000000000000281526004018082815260200191505060206040518083038186803b15801561163e57600080fd5b505afa158015611652573d6000803e3d6000fd5b505050506040513d602081101561166857600080fd5b81019080805190602001909291905050501115611713576040517f08c379a00000000000000000000000000000000000000000000000000000000081526004018080602001828103825260318152602001807f546865206578706972792064617465206f662074686520766f7465206861732081526020017f6e6f742079657420636f6d706c6574656400000000000000000000000000000081525060400191505060405180910390fd5b5b505050565b3373ffffffffffffffffffffffffffffffffffffffff166000809054906101000a900473ffffffffffffffffffffffffffffffffffffffff1673ffffffffffffffffffffffffffffffffffffffff161415156117dd576040517f08c379a00000000000000000000000000000000000000000000000000000000081526004018080602001828103825260168152602001807f4e6f742074686520636f6e7472616374206f776e65720000000000000000000081525060200191505060405180910390fd5b600160009054906101000a900473ffffffffffffffffffffffffffffffffffffffff1673ffffffffffffffffffffffffffffffffffffffff166313af4035826040518263ffffffff167c0100000000000000000000000000000000000000000000000000000000028152600401808273ffffffffffffffffffffffffffffffffffffffff1673ffffffffffffffffffffffffffffffffffffffff168152602001915050600060405180830381600087803b15801561189a57600080fd5b505af11580156118ae573d6000803e3d6000fd5b5050505050565b3373ffffffffffffffffffffffffffffffffffffffff166000809054906101000a900473ffffffffffffffffffffffffffffffffffffffff1673ffffffffffffffffffffffffffffffffffffffff16141515611979576040517f08c379a00000000000000000000000000000000000000000000000000000000081526004018080602001828103825260168152602001807f4e6f742074686520636f6e7472616374206f776e65720000000000000000000081525060200191505060405180910390fd5b836000600160009054906101000a900473ffffffffffffffffffffffffffffffffffffffff1673ffffffffffffffffffffffffffffffffffffffff1663cee024dc6040518163ffffffff167c010000000000000000000000000000000000000000000000000000000002815260040160206040518083038186803b158015611a0057600080fd5b505afa158015611a14573d6000803e3d6000fd5b505050506040513d6020811015611a2a57600080fd5b8101908080519060200190929190505050905081600182011015611b02576040517f08c379a00000000000000000000000000000000000000000000000000000000081526004018080602001828103825260418152602001807f54686520676976656e20766f746549642063616e6e6f74206265206d6f72652081526020017f7468616e2031206168656164206f66207468652063757272656e7420636f756e81526020017f740000000000000000000000000000000000000000000000000000000000000081525060600191505060405180910390fd5b6000600160009054906101000a900473ffffffffffffffffffffffffffffffffffffffff1673ffffffffffffffffffffffffffffffffffffffff1663595c84d0886040518263ffffffff167c01000000000000000000000000000000000000000000000000000000000281526004018082815260200191505060206040518083038186803b158015611b9357600080fd5b505afa158015611ba7573d6000803e3d6000fd5b505050506040513d6020811015611bbd57600080fd5b81019080805190602001909291905050509050600015158115151415611d8557600160009054906101000a900473ffffffffffffffffffffffffffffffffffffffff1673ffffffffffffffffffffffffffffffffffffffff16632ef37eff888888886040518563ffffffff167c010000000000000000000000000000000000000000000000000000000002815260040180858152602001848152602001806020018281038252848482818152602001925080828437600081840152601f19601f82011690508083019250505095505050505050600060405180830381600087803b158015611caa57600080fd5b505af1158015611cbe573d6000803e3d6000fd5b50505050600160009054906101000a900473ffffffffffffffffffffffffffffffffffffffff1673ffffffffffffffffffffffffffffffffffffffff16637f654f13886001806040518463ffffffff167c010000000000000000000000000000000000000000000000000000000002815260040180848152602001831515151581526020018281526020019350505050600060405180830381600087803b158015611d6857600080fd5b505af1158015611d7c573d6000803e3d6000fd5b50505050611e19565b6040517f08c379a000000000000000000000000000000000000000000000000000000000815260040180806020018281038252603b8152602001807f43616e6e6f74206368616e67652074686520766f7465206f7074696f6e206f6e81526020017f63652074686520766f74696e672068617320636f6d6d656e636564000000000081525060400191505060405180910390fd5b50505050505050565b6000600260009054906101000a900473ffffffffffffffffffffffffffffffffffffffff16905090565b3373ffffffffffffffffffffffffffffffffffffffff166000809054906101000a900473ffffffffffffffffffffffffffffffffffffffff1673ffffffffffffffffffffffffffffffffffffffff16141515611f10576040517f08c379a00000000000000000000000000000000000000000000000000000000081526004018080602001828103825260168152602001807f4e6f742074686520636f6e7472616374206f776e65720000000000000000000081525060200191505060405180910390fd5b836000600160009054906101000a900473ffffffffffffffffffffffffffffffffffffffff1673ffffffffffffffffffffffffffffffffffffffff1663cee024dc6040518163ffffffff167c010000000000000000000000000000000000000000000000000000000002815260040160206040518083038186803b158015611f9757600080fd5b505afa158015611fab573d6000803e3d6000fd5b505050506040513d6020811015611fc157600080fd5b8101908080519060200190929190505050905081600182011015612099576040517f08c379a00000000000000000000000000000000000000000000000000000000081526004018080602001828103825260418152602001807f54686520676976656e20766f746549642063616e6e6f74206265206d6f72652081526020017f7468616e2031206168656164206f66207468652063757272656e7420636f756e81526020017f740000000000000000000000000000000000000000000000000000000000000081525060600191505060405180910390fd5b6000600160009054906101000a900473ffffffffffffffffffffffffffffffffffffffff1673ffffffffffffffffffffffffffffffffffffffff1663595c84d0886040518263ffffffff167c01000000000000000000000000000000000000000000000000000000000281526004018082815260200191505060206040518083038186803b15801561212a57600080fd5b505afa15801561213e573d6000803e3d6000fd5b505050506040513d602081101561215457600080fd5b8101908080519060200190929190505050905060001515811515141561225e57600160009054906101000a900473ffffffffffffffffffffffffffffffffffffffff1673ffffffffffffffffffffffffffffffffffffffff16635491d06f888888886040518563ffffffff167c010000000000000000000000000000000000000000000000000000000002815260040180858152602001848152602001806020018281038252848482818152602001925080828437600081840152601f19601f82011690508083019250505095505050505050600060405180830381600087803b15801561224157600080fd5b505af1158015612255573d6000803e3d6000fd5b505050506122f2565b6040517f08c379a000000000000000000000000000000000000000000000000000000000815260040180806020018281038252603d8152602001807f43616e6e6f74206368616e67652074686520736563757269747920747970652081526020017f6f6e63652074686520766f74696e672068617320636f6d6d656e63656400000081525060400191505060405180910390fd5b50505050505050565b600115156123088b614357565b151514156128ca57600160009054906101000a900473ffffffffffffffffffffffffffffffffffffffff1673ffffffffffffffffffffffffffffffffffffffff1663fc76e4dd8b8b8b6040518463ffffffff167c010000000000000000000000000000000000000000000000000000000002815260040180848152602001806020018281038252848482818152602001925080828437600081840152601f19601f820116905080830192505050945050505050600060405180830381600087803b1580156123d557600080fd5b505af11580156123e9573d6000803e3d6000fd5b50505050600160009054906101000a900473ffffffffffffffffffffffffffffffffffffffff1673ffffffffffffffffffffffffffffffffffffffff16632ef37eff8b60018a8a6040518563ffffffff167c010000000000000000000000000000000000000000000000000000000002815260040180858152602001848152602001806020018281038252848482818152602001925080828437600081840152601f19601f82011690508083019250505095505050505050600060405180830381600087803b1580156124bb57600080fd5b505af11580156124cf573d6000803e3d6000fd5b50505050600160009054906101000a900473ffffffffffffffffffffffffffffffffffffffff1673ffffffffffffffffffffffffffffffffffffffff16632ef37eff8b600288886040518563ffffffff167c010000000000000000000000000000000000000000000000000000000002815260040180858152602001848152602001806020018281038252848482818152602001925080828437600081840152601f19601f82011690508083019250505095505050505050600060405180830381600087803b1580156125a157600080fd5b505af11580156125b5573d6000803e3d6000fd5b50505050600160009054906101000a900473ffffffffffffffffffffffffffffffffffffffff1673ffffffffffffffffffffffffffffffffffffffff16637f654f138b600160026040518463ffffffff167c010000000000000000000000000000000000000000000000000000000002815260040180848152602001831515151581526020018281526020019350505050600060405180830381600087803b15801561266057600080fd5b505af1158015612674573d6000803e3d6000fd5b50505050600160009054906101000a900473ffffffffffffffffffffffffffffffffffffffff1673ffffffffffffffffffffffffffffffffffffffff16635491d06f8b600186866040518563ffffffff167c010000000000000000000000000000000000000000000000000000000002815260040180858152602001848152602001806020018281038252848482818152602001925080828437600081840152601f19601f82011690508083019250505095505050505050600060405180830381600087803b15801561274657600080fd5b505af115801561275a573d6000803e3d6000fd5b50505050600160009054906101000a900473ffffffffffffffffffffffffffffffffffffffff1673ffffffffffffffffffffffffffffffffffffffff1663d91f2a0b8b836040518363ffffffff167c01000000000000000000000000000000000000000000000000000000000281526004018083815260200182815260200192505050600060405180830381600087803b1580156127f757600080fd5b505af115801561280b573d6000803e3d6000fd5b50505050600160009054906101000a900473ffffffffffffffffffffffffffffffffffffffff1673ffffffffffffffffffffffffffffffffffffffff16630ccd387f6001806040518363ffffffff167c0100000000000000000000000000000000000000000000000000000000028152600401808315151515815260200182815260200192505050600060405180830381600087803b1580156128ad57600080fd5b505af11580156128c1573d6000803e3d6000fd5b505050506128cb565b5b50505050505050505050565b60008060009054906101000a900473ffffffffffffffffffffffffffffffffffffffff16905090565b6000600160009054906101000a900473ffffffffffffffffffffffffffffffffffffffff16905090565b3373ffffffffffffffffffffffffffffffffffffffff166000809054906101000a900473ffffffffffffffffffffffffffffffffffffffff1673ffffffffffffffffffffffffffffffffffffffff161415156129ee576040517f08c379a00000000000000000000000000000000000000000000000000000000081526004018080602001828103825260168152602001807f4e6f742074686520636f6e7472616374206f776e65720000000000000000000081525060200191505060405180910390fd5b896000600160009054906101000a900473ffffffffffffffffffffffffffffffffffffffff1673ffffffffffffffffffffffffffffffffffffffff1663cee024dc6040518163ffffffff167c010000000000000000000000000000000000000000000000000000000002815260040160206040518083038186803b158015612a7557600080fd5b505afa158015612a89573d6000803e3d6000fd5b505050506040513d6020811015612a9f57600080fd5b8101908080519060200190929190505050905081600182011015612b77576040517f08c379a00000000000000000000000000000000000000000000000000000000081526004018080602001828103825260418152602001807f54686520676976656e20766f746549642063616e6e6f74206265206d6f72652081526020017f7468616e2031206168656164206f66207468652063757272656e7420636f756e81526020017f740000000000000000000000000000000000000000000000000000000000000081525060600191505060405180910390fd5b60001515600160009054906101000a900473ffffffffffffffffffffffffffffffffffffffff1673ffffffffffffffffffffffffffffffffffffffff1663595c84d08e6040518263ffffffff167c01000000000000000000000000000000000000000000000000000000000281526004018082815260200191505060206040518083038186803b158015612c0a57600080fd5b505afa158015612c1e573d6000803e3d6000fd5b505050506040513d6020811015612c3457600080fd5b810190808051906020019092919050505015151415612ce1576040517f08c379a00000000000000000000000000000000000000000000000000000000081526004018080602001828103825260348152602001807f416e20696e766573746f722063616e206f6e6c7920766f74652061667465722081526020017f74686520766f746520686173206f70656e6e656400000000000000000000000081525060400191505060405180910390fd5b42600160009054906101000a900473ffffffffffffffffffffffffffffffffffffffff1673ffffffffffffffffffffffffffffffffffffffff1663043a8f868e6040518263ffffffff167c01000000000000000000000000000000000000000000000000000000000281526004018082815260200191505060206040518083038186803b158015612d7157600080fd5b505afa158015612d85573d6000803e3d6000fd5b505050506040513d6020811015612d9b57600080fd5b8101908080519060200190929190505050111515612e47576040517f08c379a00000000000000000000000000000000000000000000000000000000081526004018080602001828103825260308152602001807f416e20696e766573746f722063616e6e6f7420766f7465207768656e2074686581526020017f20766f74652068617320636c6f7365640000000000000000000000000000000081525060400191505060405180910390fd5b60405160200180600001905060405160208183030381529060405280519060200120600160009054906101000a900473ffffffffffffffffffffffffffffffffffffffff1673ffffffffffffffffffffffffffffffffffffffff1663106f25808e8e6040518363ffffffff167c0100000000000000000000000000000000000000000000000000000000028152600401808381526020018281526020019250505060006040518083038186803b158015612f0057600080fd5b505afa158015612f14573d6000803e3d6000fd5b505050506040513d6000823e3d601f19601f820116820180604052506020811015612f3e57600080fd5b810190808051640100000000811115612f5657600080fd5b82810190506020810184811115612f6c57600080fd5b8151856001820283011164010000000082111715612f8957600080fd5b50509291905050506040516020018082805190602001908083835b602083101515612fc95780518252602082019150602081019050602083039250612fa4565b6001836020036101000a03801982511681845116808217855250505050505090500191505060405160208183030381529060405280519060200120141515613079576040517f08c379a000000000000000000000000000000000000000000000000000000000815260040180806020018281038252601e8152602001807f54686520696e766573746f722068617320616c726561647920766f746564000081525060200191505060405180910390fd5b898960405160200180838380828437808301925050509250505060405160208183030381529060405280519060200120600260009054906101000a900473ffffffffffffffffffffffffffffffffffffffff1673ffffffffffffffffffffffffffffffffffffffff16636b198e5c8d6040518263ffffffff167c01000000000000000000000000000000000000000000000000000000000281526004018082815260200191505060006040518083038186803b15801561313857600080fd5b505afa15801561314c573d6000803e3d6000fd5b505050506040513d6000823e3d601f19601f82011682018060405250602081101561317657600080fd5b81019080805164010000000081111561318e57600080fd5b828101905060208101848111156131a457600080fd5b81518560018202830111640100000000821117156131c157600080fd5b50509291905050506040516020018082805190602001908083835b60208310151561320157805182526020820191506020810190506020830392506131dc565b6001836020036101000a038019825116818451168082178552505050505050905001915050604051602081830303815290604052805190602001201415156132d7576040517f08c379a000000000000000000000000000000000000000000000000000000000815260040180806020018281038252602c8152602001807f54686520696e766573746f72496420616e6420696e766573746f724e616d652081526020017f646f206e6f74206d61746368000000000000000000000000000000000000000081525060400191505060405180910390fd5b600160009054906101000a900473ffffffffffffffffffffffffffffffffffffffff1673ffffffffffffffffffffffffffffffffffffffff16634bfe2ae68d876040518363ffffffff167c0100000000000000000000000000000000000000000000000000000000028152600401808381526020018281526020019250505060006040518083038186803b15801561336e57600080fd5b505afa158015613382573d6000803e3d6000fd5b505050506040513d6000823e3d601f19601f8201168201806040525060208110156133ac57600080fd5b8101908080516401000000008111156133c457600080fd5b828101905060208101848111156133da57600080fd5b81518560018202830111640100000000821117156133f757600080fd5b50509291905050506040516020018082805190602001908083835b6020831015156134375780518252602082019150602081019050602083039250613412565b6001836020036101000a0380198251168184511680821785525050505050509050019150506040516020818303038152906040528051906020012087876040516020018083838082843780830192505050925050506040516020818303038152906040528051906020012014151561353d576040517f08c379a00000000000000000000000000000000000000000000000000000000081526004018080602001828103825260308152602001807f5468652073656c65637465644f7074696f6e20616e6420746865206f7074696f81526020017f6e496420646f206e6f74206d617463680000000000000000000000000000000081525060400191505060405180910390fd5b600060018060009054906101000a900473ffffffffffffffffffffffffffffffffffffffff1673ffffffffffffffffffffffffffffffffffffffff1663e92e5c348f6040518263ffffffff167c01000000000000000000000000000000000000000000000000000000000281526004018082815260200191505060206040518083038186803b1580156135cf57600080fd5b505afa1580156135e3573d6000803e3d6000fd5b505050506040513d60208110156135f957600080fd5b8101908080519060200190929190505050019050600160009054906101000a900473ffffffffffffffffffffffffffffffffffffffff1673ffffffffffffffffffffffffffffffffffffffff1663a83f52bb8e6001806040518463ffffffff167c010000000000000000000000000000000000000000000000000000000002815260040180848152602001831515151581526020018281526020019350505050600060405180830381600087803b1580156136b357600080fd5b505af11580156136c7573d6000803e3d6000fd5b50505050600160009054906101000a900473ffffffffffffffffffffffffffffffffffffffff1673ffffffffffffffffffffffffffffffffffffffff1663120764648e8e8c8c8c8c6040518763ffffffff167c010000000000000000000000000000000000000000000000000000000002815260040180878152602001868152602001858152602001806020018381526020018281038252858582818152602001925080828437600081840152601f19601f820116905080830192505050975050505050505050600060405180830381600087803b1580156137a857600080fd5b505af11580156137bc573d6000803e3d6000fd5b50505050600160009054906101000a900473ffffffffffffffffffffffffffffffffffffffff1673ffffffffffffffffffffffffffffffffffffffff16632d613d768e838f6040518463ffffffff167c0100000000000000000000000000000000000000000000000000000000028152600401808481526020018381526020018281526020019350505050600060405180830381600087803b15801561386157600080fd5b505af1158015613875573d6000803e3d6000fd5b505050506000600260009054906101000a900473ffffffffffffffffffffffffffffffffffffffff1673ffffffffffffffffffffffffffffffffffffffff166316523c0f8e88886040518463ffffffff167c010000000000000000000000000000000000000000000000000000000002815260040180848152602001806020018281038252848482818152602001925080828437600081840152601f19601f82011690508083019250505094505050505060206040518083038186803b15801561393e57600080fd5b505afa158015613952573d6000803e3d6000fd5b505050506040513d602081101561396857600080fd5b81019080805190602001909291905050509050600160009054906101000a900473ffffffffffffffffffffffffffffffffffffffff1673ffffffffffffffffffffffffffffffffffffffff16634d343f978f896001856040518563ffffffff167c01000000000000000000000000000000000000000000000000000000000281526004018085815260200184815260200183151515158152602001828152602001945050505050600060405180830381600087803b158015613a2957600080fd5b505af1158015613a3d573d6000803e3d6000fd5b505050507fd42c98e4e025485311ab52c891eedf4b7abf891ce79dc3b70a1bce358e5ad2a08e8e8c8c8c876040518080602001888152602001878152602001868152602001806020018481526020018381038352601c8152602001807f41206e657720766f746520686173206265656e207265636f72646564000000008152506020018381038252868682818152602001925080828437600081840152601f19601f8201169050808301925050509850505050505050505060405180910390a15050505050505050505050505050565b3373ffffffffffffffffffffffffffffffffffffffff166000809054906101000a900473ffffffffffffffffffffffffffffffffffffffff1673ffffffffffffffffffffffffffffffffffffffff16141515613bd1576040517f08c379a00000000000000000000000000000000000000000000000000000000081526004018080602001828103825260168152602001807f4e6f742074686520636f6e7472616374206f776e65720000000000000000000081525060200191505060405180910390fd5b80600160006101000a81548173ffffffffffffffffffffffffffffffffffffffff021916908373ffffffffffffffffffffffffffffffffffffffff16021790555050565b6000809054906101000a900473ffffffffffffffffffffffffffffffffffffffff1681565b3373ffffffffffffffffffffffffffffffffffffffff166000809054906101000a900473ffffffffffffffffffffffffffffffffffffffff1673ffffffffffffffffffffffffffffffffffffffff16141515613cfe576040517f08c379a00000000000000000000000000000000000000000000000000000000081526004018080602001828103825260168152602001807f4e6f742074686520636f6e7472616374206f776e65720000000000000000000081525060200191505060405180910390fd5b816000600160009054906101000a900473ffffffffffffffffffffffffffffffffffffffff1673ffffffffffffffffffffffffffffffffffffffff1663cee024dc6040518163ffffffff167c010000000000000000000000000000000000000000000000000000000002815260040160206040518083038186803b158015613d8557600080fd5b505afa158015613d99573d6000803e3d6000fd5b505050506040513d6020811015613daf57600080fd5b8101908080519060200190929190505050905081600182011015613e87576040517f08c379a00000000000000000000000000000000000000000000000000000000081526004018080602001828103825260418152602001807f54686520676976656e20766f746549642063616e6e6f74206265206d6f72652081526020017f7468616e2031206168656164206f66207468652063757272656e7420636f756e81526020017f740000000000000000000000000000000000000000000000000000000000000081525060600191505060405180910390fd5b6000600160009054906101000a900473ffffffffffffffffffffffffffffffffffffffff1673ffffffffffffffffffffffffffffffffffffffff1663595c84d0866040518263ffffffff167c01000000000000000000000000000000000000000000000000000000000281526004018082815260200191505060206040518083038186803b158015613f1857600080fd5b505afa158015613f2c573d6000803e3d6000fd5b505050506040513d6020811015613f4257600080fd5b8101908080519060200190929190505050905060001515811515141561401857600160009054906101000a900473ffffffffffffffffffffffffffffffffffffffff1673ffffffffffffffffffffffffffffffffffffffff1663d91f2a0b86866040518363ffffffff167c01000000000000000000000000000000000000000000000000000000000281526004018083815260200182815260200192505050600060405180830381600087803b158015613ffb57600080fd5b505af115801561400f573d6000803e3d6000fd5b505050506140ac565b6040517f08c379a000000000000000000000000000000000000000000000000000000000815260040180806020018281038252603b8152602001807f43616e6e6f74206368616e676520746865206578706972792064617465206f6e81526020017f63652074686520766f74696e672068617320636f6d6d656e636564000000000081525060400191505060405180910390fd5b5050505050565b3373ffffffffffffffffffffffffffffffffffffffff166000809054906101000a900473ffffffffffffffffffffffffffffffffffffffff1673ffffffffffffffffffffffffffffffffffffffff16141515614177576040517f08c379a00000000000000000000000000000000000000000000000000000000081526004018080602001828103825260168152602001807f4e6f742074686520636f6e7472616374206f776e65720000000000000000000081525060200191505060405180910390fd5b80600260006101000a81548173ffffffffffffffffffffffffffffffffffffffff021916908373ffffffffffffffffffffffffffffffffffffffff16021790555050565b3373ffffffffffffffffffffffffffffffffffffffff166000809054906101000a900473ffffffffffffffffffffffffffffffffffffffff1673ffffffffffffffffffffffffffffffffffffffff1614151561427f576040517f08c379a00000000000000000000000000000000000000000000000000000000081526004018080602001828103825260168152602001807f4e6f742074686520636f6e7472616374206f776e65720000000000000000000081525060200191505060405180910390fd5b600160009054906101000a900473ffffffffffffffffffffffffffffffffffffffff1673ffffffffffffffffffffffffffffffffffffffff1663ee702934826040518263ffffffff167c0100000000000000000000000000000000000000000000000000000000028152600401808273ffffffffffffffffffffffffffffffffffffffff1673ffffffffffffffffffffffffffffffffffffffff168152602001915050600060405180830381600087803b15801561433c57600080fd5b505af1158015614350573d6000803e3d6000fd5b5050505050565b600080600160009054906101000a900473ffffffffffffffffffffffffffffffffffffffff1673ffffffffffffffffffffffffffffffffffffffff1663cee024dc6040518163ffffffff167c010000000000000000000000000000000000000000000000000000000002815260040160206040518083038186803b1580156143de57600080fd5b505afa1580156143f2573d6000803e3d6000fd5b505050506040513d602081101561440857600080fd5b8101908080519060200190929190505050905082600182011415614430576001915050614447565b82600182011015614445576000915050614447565b505b91905056fea165627a7a72305820f61a65a3d6af4e61e15e3c5325416d261dc5452c49e4635dad8219e818a90d980029",
  "source": "pragma solidity ^0.5.0;\nimport \"./VotingData.sol\";\nimport \"./InvestorManagementData.sol\";\n\n//** This contract holds information on:\n\ncontract VotingLogic {\n    \n    //holds the address of the contract creator\n    address public Owner; \n       //The current VotingData contract\n    VotingData CurrentVotingData;\n    InvestorManagementData CurrentInvestorData;\n    \n    /******** Start of modifiers *********/\n\t\n\t//** any function containing this modifier, only allows the contract owner to call it**//\n\tmodifier ifOwner(){\n        if(Owner != msg.sender){\n            revert(\"Not the contract owner\");\n        }else{\n            _; //means continue on the functions that called it\n        }\n    }\n    \n    //the given voteId cannot be more than 1 ahead of the current count\n    modifier voteIdOk(uint voteId){\n        uint currentVoteId = CurrentVotingData.getNumberOfVotes();\n        if (currentVoteId + 1 < voteId){\n            revert(\"The given voteId cannot be more than 1 ahead of the current count\");\n        } else{\n            _; //carry on\n        }\n    }\n\t\n\t/******** End of Modifiers  *********/\n\t\n\t/******** Start of blockchain events *********/\n\t\n\t//event fires when the contract has been added to the blockchain\n\tevent NewVoter(string s, uint voteId, uint investorId, uint newDate, string selectedOption, uint currentVoterId);\n\t\n\t/******** End of blockchain events *********/\n\t\n\t//** The constructor sets the smart contract owner as the address that put the create contract transaction onto the blockchain**//\n    constructor (address votingDataContract, address investorManagementContract) public {\n    \n            Owner = msg.sender;\n            CurrentVotingData = VotingData(votingDataContract);\n            CurrentInvestorData = InvestorManagementData(investorManagementContract);\n            \n    }  \n    \n    function upgradeVotingDataContract(address thisCurrentVotingData) external ifOwner {\n        CurrentVotingData = VotingData(thisCurrentVotingData);\n    }\n    \n    \n    function upgradeInvestorDataContract(address thisCurrentInvestorData) external ifOwner {\n        CurrentInvestorData = InvestorManagementData(thisCurrentInvestorData);\n    }\n    \n    /*********************Start of SET functions**************************************************/\n    \n    function setOwner(address newOwner) external ifOwner() {\n        \n        CurrentVotingData.setOwner(newOwner);\n        \n    } \n    \n    function setLinkedCompany(address newLinkedCompany) external ifOwner() {\n        \n       CurrentVotingData.setLinkedCompany(newLinkedCompany);\n        \n    }\n    \n    function incrementVoteId(uint voteId) internal view returns(bool) {\n        //get realVoteId\n        uint currentVoteId = CurrentVotingData.getNumberOfVotes();\n        \n        //if voterId is +1 of current voterId then yes but the counter needs to be updated\n        if (currentVoteId + 1 == voteId){\n            return true;\n        }\n        //if voterId is <= voterId then thats fine\n        if (currentVoteId + 1 < voteId){\n            return false;\n        }\n    }\n    \n    function setExpiryDate(uint voteId, uint newExpiryDate) external ifOwner() voteIdOk(voteId) {\n    \n        //check if the vote has started\n        bool started = CurrentVotingData.getVoteStarted(voteId);\n        if (started == false){\n            CurrentVotingData.setExpiryDate(voteId, newExpiryDate);\n        } else {\n            revert(\"Cannot change the expiry date once the voting has commenced\");\n        }\n\n    }\n    \n    function setSecurityType(uint voteId, uint securityId, string calldata newSecurityType) external ifOwner() voteIdOk(voteId) {\n        \n        //check if the vote has started\n        bool started = CurrentVotingData.getVoteStarted(voteId);\n        if (started == false){\n            CurrentVotingData.setSecurityType(voteId, securityId, newSecurityType);\n        } else {\n            revert(\"Cannot change the security type once the voting has commenced\");\n        }\n        \n    }\n    \n    function addANewVote(uint voteId, string calldata newQuestion, string calldata optionOne, string calldata optionTwo, string calldata newSecurityType, uint newExpiryDate) external {\n        if (incrementVoteId(voteId) == true){\n                CurrentVotingData.setVoteQuestion(voteId, newQuestion);\n                CurrentVotingData.setVoteOption(voteId, 1, optionOne);        //the first option id=1\n                CurrentVotingData.setVoteOption(voteId, 2, optionTwo);      //the second option id=1\n                CurrentVotingData.setVoteOptionCount(voteId, true, 2);\n                CurrentVotingData.setSecurityType(voteId, 1, newSecurityType); //the first securitytype id=1\n                CurrentVotingData.setExpiryDate(voteId, newExpiryDate);\n                CurrentVotingData.ChangeVoteCount(true, 1);\n        } else{\n       //     revert(\"This is an attempt to override a current vote\");\n        }\n     }\n    \n    \n    function setVoteOption(uint voteId, uint optionId, string calldata newVoteOption) external ifOwner() voteIdOk(voteId) {\n    \n        //check if the vote has started\n        bool started = CurrentVotingData.getVoteStarted(voteId);\n        if (started == false){\n            CurrentVotingData.setVoteOption(voteId, optionId, newVoteOption);\n            CurrentVotingData.setVoteOptionCount(voteId, true, 1);\n        } else {\n            revert(\"Cannot change the vote option once the voting has commenced\");\n        }    \n        \n    }\n    \n    //Note that the date can be manipulated in a decentralised network\n    function setVoteAnswer(uint voteId, uint investorId, string calldata investorName, uint256 newDate, string calldata selectedOption, uint optionId, string calldata companyName) external ifOwner() voteIdOk(voteId) {\n        \n        //check if the vote has started\n        if (CurrentVotingData.getVoteStarted(voteId) == false){\n            revert(\"An investor can only vote after the vote has openned\");\n        } else if (CurrentVotingData.getVoteExpiryDate(voteId) <= block.timestamp){\n            revert(\"An investor cannot vote when the vote has closed\");\n        } else if (keccak256(abi.encodePacked(CurrentVotingData.getVoteAnswerValue(voteId, investorId))) != keccak256(abi.encodePacked(\"\"))) {\n            //make sure the voter has not voted \n            revert(\"The investor has already voted\");\n        } else if (keccak256(abi.encodePacked(CurrentInvestorData.getInvestorName(investorId))) != keccak256(abi.encodePacked(investorName))){\n            //make sure that the voterId is correct\n            revert(\"The investorId and investorName do not match\");\n        }else {\n            //make sure that the option is true\n          if ((keccak256(abi.encodePacked(selectedOption)))!=((keccak256(abi.encodePacked(CurrentVotingData.getVoteOptionName(voteId, optionId)))))) {\n              revert(\"The selectedOption and the optionId do not match\");\n          } else {\n              uint currentVoterId = CurrentVotingData.getVoterCount(voteId)+1;\n              CurrentVotingData.setVoterCount(voteId, true, 1);\n              CurrentVotingData.setVoteAnswer(voteId, investorId, newDate, selectedOption,optionId); \n              CurrentVotingData.setVoterRecorded(voteId, currentVoterId, investorId);\n              //get the valid securityType for this voteId\n              //string memory voteSec = CurrentVotingData.getVoteSecurityType(voteId, 1);\n              //gets the number of shares that user has\n              uint investorSec = CurrentInvestorData.getInvestorTotalNumOfSecurities(investorId, companyName/*, voteSec*/);\n              CurrentVotingData.setVoteOptionTally(voteId, optionId, true, investorSec);\n             // looping(voteId, investorId, optionId, voteSecurities);\n              emit NewVoter(\"A new vote has been recorded\", voteId, investorId, newDate, selectedOption, currentVoterId);\n              \n          }\n          \n        }\n        \n    }\n    \n/*    function looping(uint voteId, uint investorId, uint optionId, uint[] memory voteSecurities) internal {\n              //get investors number of securities\n              //here we assume the maximum securities a vote can have is 5 -> but this can be changed of course\n              uint count = 0;\n              string memory voteSec = \"\";\n              uint investorSec = 0;\n              while (count < 5){\n                //get the number of every security\n                if ((voteSecurities[count] == 0)&&(count == 0)){\n                    revert(\"The investor must have at least one security related to the company to participate in the vote\");\n                } else if ((voteSecurities[count] == 0)&&(count > 0)) {\n                    count = 5;\n                }else {\n                    //gets the voting security type that can vote\n                    voteSec = CurrentVotingData.getVoteSecurityType(voteId, voteSecurities[count]);\n                    //gets the investor security type\n                    investorSec = CurrentInvestorData.getInvestorTotalNumOfSecurity(investorId, voteSec);\n                    if (investorSec == 0){\n                        revert(\"The listed security for the vote and the investor security do not match\");\n                    } else {\n                        CurrentVotingData.setVoteOptionTally(voteId, optionId, true, investorSec);\n                    }\n                    count = count + 1;   \n                }\n              }\n    }*/\n    \n    function setVoteStarted(uint voteId) external ifOwner() voteIdOk(voteId) {\n        \n        //can only start with a question, options and expiry date\n        string memory question = CurrentVotingData.getVoteQuestion(voteId);\n        uint256 date = CurrentVotingData.getVoteExpiryDate(voteId);\n        uint optionsCount = CurrentVotingData.getVoteOptionCount(voteId);\n        if (keccak256(abi.encodePacked(question)) == keccak256(\"\")){\n            revert(\"A vote cannot start with an empty question\");\n        } else if (date == 0) {\n            revert(\"A vote cannot start with an empty expiry date\");\n        } else if (optionsCount < 2) {\n            revert(\"A vote must have at least 2 options\");    \n        } else {\n            CurrentVotingData.setVoteStarted(voteId);\n        }\n\n    }\n    \n    function setVoteFinished(uint voteId) external ifOwner() voteIdOk(voteId) {\n        \n        if (CurrentVotingData.getVoteStarted(voteId) == false) {\n            revert(\"Vote cannot finish as it has not started yet\");\n        }else if (CurrentVotingData.getVoteExpiryDate(voteId) <= block.timestamp){\n            CurrentVotingData.setVoteFinished(voteId);\n        } else if (CurrentVotingData.getVoteExpiryDate(voteId) > block.timestamp){\n            revert(\"The expiry date of the vote has not yet completed\");\n        }\n\n    }\n    \n\n    \n    /***********************End of SET functions**************************************************/\n    \n    /***********************Start of GET functions**************************************************/\n        function getOwner() public view returns (address){\n        return Owner;\n    }\n    \n    function getContractDataAddress() public view returns (address){\n        return address(CurrentVotingData);\n    }\n    \n    function getCurrentInvestorDataAddress() public view returns (address){\n        return address(CurrentInvestorData);\n    }\n    \n\n    /***********************End of GET functions**************************************************/\n    \n}\n",
  "sourcePath": "/home/luke/Documents/Code/AAMAS/volt_v2/TruffleVersion/contracts/VotingLogic.sol",
  "compiler": {
    "name": "solc",
    "version": "0.5.0+commit.1d4f565a.Emscripten.clang"
  },
  "schemaVersion": "3.0.1",
  "updatedAt": "2019-05-15T17:07:17.074Z",
  "devdoc": {
    "methods": {}
  },
  "userdoc": {
    "methods": {
      "constructor": "****** End of blockchain events ********",
      "getOwner()": {
        "notice": "*********************Start of GET functions*************************************************"
      },
      "setOwner(address)": {
        "notice": "*******************Start of SET functions*************************************************"
      }
    }
  }
}