{
  "contractName": "VotingData",
  "abi": [
    {
      "constant": true,
      "inputs": [],
      "name": "Owner",
      "outputs": [
        {
          "name": "",
          "type": "address"
        }
      ],
      "payable": false,
      "stateMutability": "view",
      "type": "function",
      "signature": "0xb4a99a4e"
    },
    {
      "inputs": [
        {
          "name": "companyDataContract",
          "type": "address"
        }
      ],
      "payable": false,
      "stateMutability": "nonpayable",
      "type": "constructor",
      "signature": "constructor"
    },
    {
      "constant": false,
      "inputs": [
        {
          "name": "newOwner",
          "type": "address"
        }
      ],
      "name": "setOwner",
      "outputs": [],
      "payable": false,
      "stateMutability": "nonpayable",
      "type": "function",
      "signature": "0x13af4035"
    },
    {
      "constant": false,
      "inputs": [
        {
          "name": "newLinkedCompany",
          "type": "address"
        }
      ],
      "name": "setLinkedCompany",
      "outputs": [],
      "payable": false,
      "stateMutability": "nonpayable",
      "type": "function",
      "signature": "0xee702934"
    },
    {
      "constant": false,
      "inputs": [
        {
          "name": "voteId",
          "type": "uint256"
        },
        {
          "name": "newExpiryDate",
          "type": "uint256"
        }
      ],
      "name": "setExpiryDate",
      "outputs": [],
      "payable": false,
      "stateMutability": "nonpayable",
      "type": "function",
      "signature": "0xd91f2a0b"
    },
    {
      "constant": false,
      "inputs": [
        {
          "name": "voteId",
          "type": "uint256"
        },
        {
          "name": "securityId",
          "type": "uint256"
        },
        {
          "name": "newSecurityType",
          "type": "string"
        }
      ],
      "name": "setSecurityType",
      "outputs": [],
      "payable": false,
      "stateMutability": "nonpayable",
      "type": "function",
      "signature": "0x5491d06f"
    },
    {
      "constant": false,
      "inputs": [
        {
          "name": "voteId",
          "type": "uint256"
        },
        {
          "name": "newQuestion",
          "type": "string"
        }
      ],
      "name": "setVoteQuestion",
      "outputs": [],
      "payable": false,
      "stateMutability": "nonpayable",
      "type": "function",
      "signature": "0xfc76e4dd"
    },
    {
      "constant": false,
      "inputs": [
        {
          "name": "voteId",
          "type": "uint256"
        },
        {
          "name": "optionId",
          "type": "uint256"
        },
        {
          "name": "newVoteOption",
          "type": "string"
        }
      ],
      "name": "setVoteOption",
      "outputs": [],
      "payable": false,
      "stateMutability": "nonpayable",
      "type": "function",
      "signature": "0x2ef37eff"
    },
    {
      "constant": false,
      "inputs": [
        {
          "name": "voteId",
          "type": "uint256"
        },
        {
          "name": "add",
          "type": "bool"
        },
        {
          "name": "number",
          "type": "uint256"
        }
      ],
      "name": "setVoteOptionCount",
      "outputs": [],
      "payable": false,
      "stateMutability": "nonpayable",
      "type": "function",
      "signature": "0x7f654f13"
    },
    {
      "constant": false,
      "inputs": [
        {
          "name": "voteId",
          "type": "uint256"
        },
        {
          "name": "investorId",
          "type": "uint256"
        },
        {
          "name": "newDate",
          "type": "uint256"
        },
        {
          "name": "newValue",
          "type": "string"
        },
        {
          "name": "newOptionId",
          "type": "uint256"
        }
      ],
      "name": "setVoteAnswer",
      "outputs": [],
      "payable": false,
      "stateMutability": "nonpayable",
      "type": "function",
      "signature": "0x12076464"
    },
    {
      "constant": false,
      "inputs": [
        {
          "name": "voteId",
          "type": "uint256"
        },
        {
          "name": "voterId",
          "type": "uint256"
        },
        {
          "name": "investorId",
          "type": "uint256"
        }
      ],
      "name": "setVoterRecorded",
      "outputs": [],
      "payable": false,
      "stateMutability": "nonpayable",
      "type": "function",
      "signature": "0x2d613d76"
    },
    {
      "constant": false,
      "inputs": [
        {
          "name": "voteId",
          "type": "uint256"
        },
        {
          "name": "add",
          "type": "bool"
        },
        {
          "name": "number",
          "type": "uint256"
        }
      ],
      "name": "setVoterCount",
      "outputs": [],
      "payable": false,
      "stateMutability": "nonpayable",
      "type": "function",
      "signature": "0xa83f52bb"
    },
    {
      "constant": false,
      "inputs": [
        {
          "name": "voteId",
          "type": "uint256"
        }
      ],
      "name": "setVoteStarted",
      "outputs": [],
      "payable": false,
      "stateMutability": "nonpayable",
      "type": "function",
      "signature": "0x03507d84"
    },
    {
      "constant": false,
      "inputs": [
        {
          "name": "voteId",
          "type": "uint256"
        }
      ],
      "name": "setVoteFinished",
      "outputs": [],
      "payable": false,
      "stateMutability": "nonpayable",
      "type": "function",
      "signature": "0x137f0b1f"
    },
    {
      "constant": false,
      "inputs": [
        {
          "name": "voteId",
          "type": "uint256"
        },
        {
          "name": "voteOptionId",
          "type": "uint256"
        },
        {
          "name": "add",
          "type": "bool"
        },
        {
          "name": "number",
          "type": "uint256"
        }
      ],
      "name": "setVoteOptionTally",
      "outputs": [],
      "payable": false,
      "stateMutability": "nonpayable",
      "type": "function",
      "signature": "0x4d343f97"
    },
    {
      "constant": false,
      "inputs": [
        {
          "name": "add",
          "type": "bool"
        },
        {
          "name": "number",
          "type": "uint256"
        }
      ],
      "name": "ChangeVoteCount",
      "outputs": [],
      "payable": false,
      "stateMutability": "nonpayable",
      "type": "function",
      "signature": "0x0ccd387f"
    },
    {
      "constant": true,
      "inputs": [],
      "name": "getOwner",
      "outputs": [
        {
          "name": "",
          "type": "address"
        }
      ],
      "payable": false,
      "stateMutability": "view",
      "type": "function",
      "signature": "0x893d20e8"
    },
    {
      "constant": true,
      "inputs": [],
      "name": "getLinkedCompany",
      "outputs": [
        {
          "name": "",
          "type": "address"
        }
      ],
      "payable": false,
      "stateMutability": "view",
      "type": "function",
      "signature": "0x3615ae8f"
    },
    {
      "constant": true,
      "inputs": [
        {
          "name": "voteId",
          "type": "uint256"
        }
      ],
      "name": "getVoteExpiryDate",
      "outputs": [
        {
          "name": "",
          "type": "uint256"
        }
      ],
      "payable": false,
      "stateMutability": "view",
      "type": "function",
      "signature": "0x043a8f86"
    },
    {
      "constant": true,
      "inputs": [
        {
          "name": "voteId",
          "type": "uint256"
        },
        {
          "name": "securityTypeId",
          "type": "uint256"
        }
      ],
      "name": "getVoteSecurityType",
      "outputs": [
        {
          "name": "",
          "type": "string"
        }
      ],
      "payable": false,
      "stateMutability": "view",
      "type": "function",
      "signature": "0x0d68bab0"
    },
    {
      "constant": true,
      "inputs": [
        {
          "name": "voteId",
          "type": "uint256"
        }
      ],
      "name": "getVoteQuestion",
      "outputs": [
        {
          "name": "",
          "type": "string"
        }
      ],
      "payable": false,
      "stateMutability": "view",
      "type": "function",
      "signature": "0x4ef332ef"
    },
    {
      "constant": true,
      "inputs": [
        {
          "name": "voteId",
          "type": "uint256"
        },
        {
          "name": "voteOptionId",
          "type": "uint256"
        }
      ],
      "name": "getVoteOptionName",
      "outputs": [
        {
          "name": "",
          "type": "string"
        }
      ],
      "payable": false,
      "stateMutability": "view",
      "type": "function",
      "signature": "0x4bfe2ae6"
    },
    {
      "constant": true,
      "inputs": [
        {
          "name": "voteId",
          "type": "uint256"
        },
        {
          "name": "voteOptionId",
          "type": "uint256"
        }
      ],
      "name": "getVoteOptionTally",
      "outputs": [
        {
          "name": "",
          "type": "uint256"
        }
      ],
      "payable": false,
      "stateMutability": "view",
      "type": "function",
      "signature": "0xd86cb615"
    },
    {
      "constant": true,
      "inputs": [
        {
          "name": "voteId",
          "type": "uint256"
        }
      ],
      "name": "getVoteOptionCount",
      "outputs": [
        {
          "name": "",
          "type": "uint256"
        }
      ],
      "payable": false,
      "stateMutability": "view",
      "type": "function",
      "signature": "0xa9a57d0e"
    },
    {
      "constant": true,
      "inputs": [
        {
          "name": "voteId",
          "type": "uint256"
        },
        {
          "name": "investorId",
          "type": "uint256"
        }
      ],
      "name": "getVoteAnswerDate",
      "outputs": [
        {
          "name": "",
          "type": "uint256"
        }
      ],
      "payable": false,
      "stateMutability": "view",
      "type": "function",
      "signature": "0xb2676821"
    },
    {
      "constant": true,
      "inputs": [
        {
          "name": "voteId",
          "type": "uint256"
        },
        {
          "name": "investorId",
          "type": "uint256"
        }
      ],
      "name": "getVoteAnswerValue",
      "outputs": [
        {
          "name": "",
          "type": "string"
        }
      ],
      "payable": false,
      "stateMutability": "view",
      "type": "function",
      "signature": "0x106f2580"
    },
    {
      "constant": true,
      "inputs": [
        {
          "name": "voteId",
          "type": "uint256"
        },
        {
          "name": "investorId",
          "type": "uint256"
        }
      ],
      "name": "getVoteAnswerOptionId",
      "outputs": [
        {
          "name": "",
          "type": "uint256"
        }
      ],
      "payable": false,
      "stateMutability": "view",
      "type": "function",
      "signature": "0x3ed35ff7"
    },
    {
      "constant": true,
      "inputs": [
        {
          "name": "voteId",
          "type": "uint256"
        },
        {
          "name": "investorId",
          "type": "uint256"
        }
      ],
      "name": "getVoterRecorded",
      "outputs": [
        {
          "name": "",
          "type": "uint256"
        }
      ],
      "payable": false,
      "stateMutability": "view",
      "type": "function",
      "signature": "0x840f416f"
    },
    {
      "constant": true,
      "inputs": [
        {
          "name": "voteId",
          "type": "uint256"
        }
      ],
      "name": "getVoterCount",
      "outputs": [
        {
          "name": "",
          "type": "uint256"
        }
      ],
      "payable": false,
      "stateMutability": "view",
      "type": "function",
      "signature": "0xe92e5c34"
    },
    {
      "constant": true,
      "inputs": [
        {
          "name": "voteId",
          "type": "uint256"
        }
      ],
      "name": "getVoteStarted",
      "outputs": [
        {
          "name": "",
          "type": "bool"
        }
      ],
      "payable": false,
      "stateMutability": "view",
      "type": "function",
      "signature": "0x595c84d0"
    },
    {
      "constant": true,
      "inputs": [
        {
          "name": "voteId",
          "type": "uint256"
        }
      ],
      "name": "getVoteFinished",
      "outputs": [
        {
          "name": "",
          "type": "bool"
        }
      ],
      "payable": false,
      "stateMutability": "view",
      "type": "function",
      "signature": "0x0f521cdb"
    },
    {
      "constant": true,
      "inputs": [],
      "name": "getNumberOfVotes",
      "outputs": [
        {
          "name": "",
          "type": "uint256"
        }
      ],
      "payable": false,
      "stateMutability": "view",
      "type": "function",
      "signature": "0xcee024dc"
    }
  ],
  "bytecode": "0x608060405234801561001057600080fd5b506040516020806123428339810180604052602081101561003057600080fd5b8101908080519060200190929190505050336000806101000a81548173ffffffffffffffffffffffffffffffffffffffff021916908373ffffffffffffffffffffffffffffffffffffffff16021790555080600160006101000a81548173ffffffffffffffffffffffffffffffffffffffff021916908373ffffffffffffffffffffffffffffffffffffffff16021790555050612270806100d26000396000f3fe60806040526004361061018b576000357c0100000000000000000000000000000000000000000000000000000000900463ffffffff16806303507d8414610190578063043a8f86146101cb5780630ccd387f1461021a5780630d68bab0146102615780630f521cdb1461031f578063106f2580146103725780631207646414610430578063137f0b1f146104de57806313af4035146105195780632d613d761461056a5780632ef37eff146105b95780633615ae8f146106535780633ed35ff7146106aa5780634bfe2ae6146107035780634d343f97146107c15780634ef332ef1461081c5780635491d06f146108d0578063595c84d01461096a5780637f654f13146109bd578063840f416f14610a0e578063893d20e814610a67578063a83f52bb14610abe578063a9a57d0e14610b0f578063b267682114610b5e578063b4a99a4e14610bb7578063cee024dc14610c0e578063d86cb61514610c39578063d91f2a0b14610c92578063e92e5c3414610cd7578063ee70293414610d26578063fc76e4dd14610d77575b600080fd5b34801561019c57600080fd5b506101c9600480360360208110156101b357600080fd5b8101908080359060200190929190505050610e07565b005b3480156101d757600080fd5b50610204600480360360208110156101ee57600080fd5b8101908080359060200190929190505050610efd565b6040518082815260200191505060405180910390f35b34801561022657600080fd5b5061025f6004803603604081101561023d57600080fd5b8101908080351515906020019092919080359060200190929190505050610f1d565b005b34801561026d57600080fd5b506102a46004803603604081101561028457600080fd5b810190808035906020019092919080359060200190929190505050610f4a565b6040518080602001828103825283818151815260200191508051906020019080838360005b838110156102e45780820151818401526020810190506102c9565b50505050905090810190601f1680156103115780820380516001836020036101000a031916815260200191505b509250505060405180910390f35b34801561032b57600080fd5b506103586004803603602081101561034257600080fd5b8101908080359060200190929190505050611014565b604051808215151515815260200191505060405180910390f35b34801561037e57600080fd5b506103b56004803603604081101561039557600080fd5b810190808035906020019092919080359060200190929190505050611041565b6040518080602001828103825283818151815260200191508051906020019080838360005b838110156103f55780820151818401526020810190506103da565b50505050905090810190601f1680156104225780820380516001836020036101000a031916815260200191505b509250505060405180910390f35b34801561043c57600080fd5b506104dc600480360360a081101561045357600080fd5b810190808035906020019092919080359060200190929190803590602001909291908035906020019064010000000081111561048e57600080fd5b8201836020820111156104a057600080fd5b803590602001918460018302840111640100000000831117156104c257600080fd5b90919293919293908035906020019092919050505061110e565b005b3480156104ea57600080fd5b506105176004803603602081101561050157600080fd5b8101908080359060200190929190505050611272565b005b34801561052557600080fd5b506105686004803603602081101561053c57600080fd5b81019080803573ffffffffffffffffffffffffffffffffffffffff169060200190929190505050611368565b005b34801561057657600080fd5b506105b76004803603606081101561058d57600080fd5b8101908080359060200190929190803590602001909291908035906020019092919050505061146f565b005b3480156105c557600080fd5b50610651600480360360608110156105dc57600080fd5b8101908080359060200190929190803590602001909291908035906020019064010000000081111561060d57600080fd5b82018360208201111561061f57600080fd5b8035906020019184600183028401116401000000008311171561064157600080fd5b9091929391929390505050611564565b005b34801561065f57600080fd5b50610668611668565b604051808273ffffffffffffffffffffffffffffffffffffffff1673ffffffffffffffffffffffffffffffffffffffff16815260200191505060405180910390f35b3480156106b657600080fd5b506106ed600480360360408110156106cd57600080fd5b810190808035906020019092919080359060200190929190505050611692565b6040518082815260200191505060405180910390f35b34801561070f57600080fd5b506107466004803603604081101561072657600080fd5b8101908080359060200190929190803590602001909291905050506116c7565b6040518080602001828103825283818151815260200191508051906020019080838360005b8381101561078657808201518184015260208101905061076b565b50505050905090810190601f1680156107b35780820380516001836020036101000a031916815260200191505b509250505060405180910390f35b3480156107cd57600080fd5b5061081a600480360360808110156107e457600080fd5b81019080803590602001909291908035906020019092919080351515906020019092919080359060200190929190505050611794565b005b34801561082857600080fd5b506108556004803603602081101561083f57600080fd5b8101908080359060200190929190505050611927565b6040518080602001828103825283818151815260200191508051906020019080838360005b8381101561089557808201518184015260208101905061087a565b50505050905090810190601f1680156108c25780820380516001836020036101000a031916815260200191505b509250505060405180910390f35b3480156108dc57600080fd5b50610968600480360360608110156108f357600080fd5b8101908080359060200190929190803590602001909291908035906020019064010000000081111561092457600080fd5b82018360208201111561093657600080fd5b8035906020019184600183028401116401000000008311171561095857600080fd5b90919293919293905050506119df565b005b34801561097657600080fd5b506109a36004803603602081101561098d57600080fd5b8101908080359060200190929190505050611ae0565b604051808215151515815260200191505060405180910390f35b3480156109c957600080fd5b50610a0c600480360360608110156109e057600080fd5b810190808035906020019092919080351515906020019092919080359060200190929190505050611b0d565b005b348015610a1a57600080fd5b50610a5160048036036040811015610a3157600080fd5b810190808035906020019092919080359060200190929190505050611c4f565b6040518082815260200191505060405180910390f35b348015610a7357600080fd5b50610a7c611c81565b604051808273ffffffffffffffffffffffffffffffffffffffff1673ffffffffffffffffffffffffffffffffffffffff16815260200191505060405180910390f35b348015610aca57600080fd5b50610b0d60048036036060811015610ae157600080fd5b810190808035906020019092919080351515906020019092919080359060200190929190505050611caa565b005b348015610b1b57600080fd5b50610b4860048036036020811015610b3257600080fd5b8101908080359060200190929190505050611dec565b6040518082815260200191505060405180910390f35b348015610b6a57600080fd5b50610ba160048036036040811015610b8157600080fd5b810190808035906020019092919080359060200190929190505050611e0c565b6040518082815260200191505060405180910390f35b348015610bc357600080fd5b50610bcc611e41565b604051808273ffffffffffffffffffffffffffffffffffffffff1673ffffffffffffffffffffffffffffffffffffffff16815260200191505060405180910390f35b348015610c1a57600080fd5b50610c23611e66565b6040518082815260200191505060405180910390f35b348015610c4557600080fd5b50610c7c60048036036040811015610c5c57600080fd5b810190808035906020019092919080359060200190929190505050611e70565b6040518082815260200191505060405180910390f35b348015610c9e57600080fd5b50610cd560048036036040811015610cb557600080fd5b810190808035906020019092919080359060200190929190505050611ea5565b005b348015610ce357600080fd5b50610d1060048036036020811015610cfa57600080fd5b8101908080359060200190929190505050611f88565b6040518082815260200191505060405180910390f35b348015610d3257600080fd5b50610d7560048036036020811015610d4957600080fd5b81019080803573ffffffffffffffffffffffffffffffffffffffff169060200190929190505050611fa8565b005b348015610d8357600080fd5b50610e0560048036036040811015610d9a57600080fd5b810190808035906020019092919080359060200190640100000000811115610dc157600080fd5b820183602082011115610dd357600080fd5b80359060200191846001830284011164010000000083111715610df557600080fd5b90919293919293905050506120b0565b005b3373ffffffffffffffffffffffffffffffffffffffff166000809054906101000a900473ffffffffffffffffffffffffffffffffffffffff1673ffffffffffffffffffffffffffffffffffffffff16141515610ecb576040517f08c379a00000000000000000000000000000000000000000000000000000000081526004018080602001828103825260168152602001807f4e6f742074686520636f6e7472616374206f776e65720000000000000000000081525060200191505060405180910390fd5b60016002600083815260200190815260200160002060080160006101000a81548160ff02191690831515021790555050565b600060026000838152602001908152602001600020600001549050919050565b600115158215151415610f3a578060035401600381905550610f46565b80600354036003819055505b5050565b60606002600084815260200190815260200160002060010160008381526020019081526020016000208054600181600116156101000203166002900480601f0160208091040260200160405190810160405280929190818152602001828054600181600116156101000203166002900480156110075780601f10610fdc57610100808354040283529160200191611007565b820191906000526020600020905b815481529060010190602001808311610fea57829003601f168201915b5050505050905092915050565b60006002600083815260200190815260200160002060080160019054906101000a900460ff169050919050565b60606002600084815260200190815260200160002060050160008381526020019081526020016000206001018054600181600116156101000203166002900480601f0160208091040260200160405190810160405280929190818152602001828054600181600116156101000203166002900480156111015780601f106110d657610100808354040283529160200191611101565b820191906000526020600020905b8154815290600101906020018083116110e457829003601f168201915b5050505050905092915050565b3373ffffffffffffffffffffffffffffffffffffffff166000809054906101000a900473ffffffffffffffffffffffffffffffffffffffff1673ffffffffffffffffffffffffffffffffffffffff161415156111d2576040517f08c379a00000000000000000000000000000000000000000000000000000000081526004018080602001828103825260168152602001807f4e6f742074686520636f6e7472616374206f776e65720000000000000000000081525060200191505060405180910390fd5b83600260008881526020019081526020016000206005016000878152602001908152602001600020600001819055508282600260008981526020019081526020016000206005016000888152602001908152602001600020600101919061123a92919061219f565b508060026000888152602001908152602001600020600501600087815260200190815260200160002060020181905550505050505050565b3373ffffffffffffffffffffffffffffffffffffffff166000809054906101000a900473ffffffffffffffffffffffffffffffffffffffff1673ffffffffffffffffffffffffffffffffffffffff16141515611336576040517f08c379a00000000000000000000000000000000000000000000000000000000081526004018080602001828103825260168152602001807f4e6f742074686520636f6e7472616374206f776e65720000000000000000000081525060200191505060405180910390fd5b60016002600083815260200190815260200160002060080160016101000a81548160ff02191690831515021790555050565b3373ffffffffffffffffffffffffffffffffffffffff166000809054906101000a900473ffffffffffffffffffffffffffffffffffffffff1673ffffffffffffffffffffffffffffffffffffffff1614151561142c576040517f08c379a00000000000000000000000000000000000000000000000000000000081526004018080602001828103825260168152602001807f4e6f742074686520636f6e7472616374206f776e65720000000000000000000081525060200191505060405180910390fd5b806000806101000a81548173ffffffffffffffffffffffffffffffffffffffff021916908373ffffffffffffffffffffffffffffffffffffffff16021790555050565b3373ffffffffffffffffffffffffffffffffffffffff166000809054906101000a900473ffffffffffffffffffffffffffffffffffffffff1673ffffffffffffffffffffffffffffffffffffffff16141515611533576040517f08c379a00000000000000000000000000000000000000000000000000000000081526004018080602001828103825260168152602001807f4e6f742074686520636f6e7472616374206f776e65720000000000000000000081525060200191505060405180910390fd5b8060026000858152602001908152602001600020600601600084815260200190815260200160002081905550505050565b3373ffffffffffffffffffffffffffffffffffffffff166000809054906101000a900473ffffffffffffffffffffffffffffffffffffffff1673ffffffffffffffffffffffffffffffffffffffff16141515611628576040517f08c379a00000000000000000000000000000000000000000000000000000000081526004018080602001828103825260168152602001807f4e6f742074686520636f6e7472616374206f776e65720000000000000000000081525060200191505060405180910390fd5b8181600260008781526020019081526020016000206003016000868152602001908152602001600020600001919061166192919061219f565b5050505050565b6000600160009054906101000a900473ffffffffffffffffffffffffffffffffffffffff16905090565b600060026000848152602001908152602001600020600501600083815260200190815260200160002060020154905092915050565b60606002600084815260200190815260200160002060030160008381526020019081526020016000206000018054600181600116156101000203166002900480601f0160208091040260200160405190810160405280929190818152602001828054600181600116156101000203166002900480156117875780601f1061175c57610100808354040283529160200191611787565b820191906000526020600020905b81548152906001019060200180831161176a57829003601f168201915b5050505050905092915050565b3373ffffffffffffffffffffffffffffffffffffffff166000809054906101000a900473ffffffffffffffffffffffffffffffffffffffff1673ffffffffffffffffffffffffffffffffffffffff16141515611858576040517f08c379a00000000000000000000000000000000000000000000000000000000081526004018080602001828103825260168152602001807f4e6f742074686520636f6e7472616374206f776e65720000000000000000000081525060200191505060405180910390fd5b6001151582151514156118c55780600260008681526020019081526020016000206003016000858152602001908152602001600020600101540160026000868152602001908152602001600020600301600085815260200190815260200160002060010181905550611921565b806002600086815260200190815260200160002060030160008581526020019081526020016000206001015403600260008681526020019081526020016000206003016000858152602001908152602001600020600101819055505b50505050565b6060600260008381526020019081526020016000206002018054600181600116156101000203166002900480601f0160208091040260200160405190810160405280929190818152602001828054600181600116156101000203166002900480156119d35780601f106119a8576101008083540402835291602001916119d3565b820191906000526020600020905b8154815290600101906020018083116119b657829003601f168201915b50505050509050919050565b3373ffffffffffffffffffffffffffffffffffffffff166000809054906101000a900473ffffffffffffffffffffffffffffffffffffffff1673ffffffffffffffffffffffffffffffffffffffff16141515611aa3576040517f08c379a00000000000000000000000000000000000000000000000000000000081526004018080602001828103825260168152602001807f4e6f742074686520636f6e7472616374206f776e65720000000000000000000081525060200191505060405180910390fd5b81816002600087815260200190815260200160002060010160008681526020019081526020016000209190611ad992919061219f565b5050505050565b60006002600083815260200190815260200160002060080160009054906101000a900460ff169050919050565b3373ffffffffffffffffffffffffffffffffffffffff166000809054906101000a900473ffffffffffffffffffffffffffffffffffffffff1673ffffffffffffffffffffffffffffffffffffffff16141515611bd1576040517f08c379a00000000000000000000000000000000000000000000000000000000081526004018080602001828103825260168152602001807f4e6f742074686520636f6e7472616374206f776e65720000000000000000000081525060200191505060405180910390fd5b600115158215151415611c1657806002600085815260200190815260200160002060040154016002600085815260200190815260200160002060040181905550611c4a565b8060026000858152602001908152602001600020600401540360026000858152602001908152602001600020600401819055505b505050565b600060026000848152602001908152602001600020600601600083815260200190815260200160002054905092915050565b60008060009054906101000a900473ffffffffffffffffffffffffffffffffffffffff16905090565b3373ffffffffffffffffffffffffffffffffffffffff166000809054906101000a900473ffffffffffffffffffffffffffffffffffffffff1673ffffffffffffffffffffffffffffffffffffffff16141515611d6e576040517f08c379a00000000000000000000000000000000000000000000000000000000081526004018080602001828103825260168152602001807f4e6f742074686520636f6e7472616374206f776e65720000000000000000000081525060200191505060405180910390fd5b600115158215151415611db357806002600085815260200190815260200160002060070154016002600085815260200190815260200160002060070181905550611de7565b8060026000858152602001908152602001600020600701540360026000858152602001908152602001600020600701819055505b505050565b600060026000838152602001908152602001600020600401549050919050565b600060026000848152602001908152602001600020600501600083815260200190815260200160002060000154905092915050565b6000809054906101000a900473ffffffffffffffffffffffffffffffffffffffff1681565b6000600354905090565b600060026000848152602001908152602001600020600301600083815260200190815260200160002060010154905092915050565b3373ffffffffffffffffffffffffffffffffffffffff166000809054906101000a900473ffffffffffffffffffffffffffffffffffffffff1673ffffffffffffffffffffffffffffffffffffffff16141515611f69576040517f08c379a00000000000000000000000000000000000000000000000000000000081526004018080602001828103825260168152602001807f4e6f742074686520636f6e7472616374206f776e65720000000000000000000081525060200191505060405180910390fd5b8060026000848152602001908152602001600020600001819055505050565b600060026000838152602001908152602001600020600701549050919050565b3373ffffffffffffffffffffffffffffffffffffffff166000809054906101000a900473ffffffffffffffffffffffffffffffffffffffff1673ffffffffffffffffffffffffffffffffffffffff1614151561206c576040517f08c379a00000000000000000000000000000000000000000000000000000000081526004018080602001828103825260168152602001807f4e6f742074686520636f6e7472616374206f776e65720000000000000000000081525060200191505060405180910390fd5b80600160006101000a81548173ffffffffffffffffffffffffffffffffffffffff021916908373ffffffffffffffffffffffffffffffffffffffff16021790555050565b3373ffffffffffffffffffffffffffffffffffffffff166000809054906101000a900473ffffffffffffffffffffffffffffffffffffffff1673ffffffffffffffffffffffffffffffffffffffff16141515612174576040517f08c379a00000000000000000000000000000000000000000000000000000000081526004018080602001828103825260168152602001807f4e6f742074686520636f6e7472616374206f776e65720000000000000000000081525060200191505060405180910390fd5b818160026000868152602001908152602001600020600201919061219992919061219f565b50505050565b828054600181600116156101000203166002900490600052602060002090601f016020900481019282601f106121e057803560ff191683800117855561220e565b8280016001018555821561220e579182015b8281111561220d5782358255916020019190600101906121f2565b5b50905061221b919061221f565b5090565b61224191905b8082111561223d576000816000905550600101612225565b5090565b9056fea165627a7a72305820f2d9da332325ba5fe9527c0fb3a3ca410bfdffa337e04a7e2c37d80058c3eeaf0029",
  "source": "//Solidity online complier: https://remix.ethereum.org/\n\npragma solidity ^0.5.0;\n\n//** This contract holds information on different votes that occur in the company, specifically:\n// - The vote question\n// - The vote options\n// - The different vote answers (ballots)\n// - The vote expiry date\n// - The related company\n//**\n\ncontract VotingData {\n    \n    //holds the address of the contract creator\n    address public Owner;\n    //holds the address of the company\n    address linkedCompany;\n    //holds all of the different votes for this company\n    mapping (uint => Vote) id;\n    uint voteCount;\n\n    \n    /******** Start of Structures *********/\n\n    struct Vote {\n\n        //when the vote will expire\n        uint expiry_date;\n        //what security types can vote\n        mapping (uint => string) security_types;    //the prototype only allows the first one\n        //the vote question\n        string vote_question;\n        //the different ballot options\n        mapping (uint => Option) vote_option;\n        //number Of Options\n        uint optionCount;\n        //all of the investors ballots, indexed by the investorId\n        mapping (uint => Answer) vote_answer;\n        //The list of which investors voted, indexed by natural numbers\n        mapping (uint => uint) voter_recorded;\n        //The total number of voters\n        uint voterCount;\n        //has the vote started\n        bool started;\n        //has the vote finished\n        bool finished;\n\n    }\n        \n    struct Answer {\n\n        //the date this answer occurred\n        uint256 date;\n        //the answer selected \n        string value;\n        //corresponds to optionId\n        uint optionId;\n    }\n    \n    struct Option {\n\n        //this option \n        string name;\n        //the option count \n        uint tally;\n    }\n    \n    /******** End of Structures *********/\n    \n    /******** Start of modifiers *********/\n\t\n\t//** any function containing this modifier, only allows the contract owner to call it**//\n\tmodifier ifOwner(){\n        if(Owner != msg.sender){\n            revert(\"Not the contract owner\");\n        }else{\n            _; //means continue on the functions that called it\n        }\n    }\n\n\t\n\t/******** End of Modifiers  *********/\n    \n    /******** Start of Functions  *********/\n\n\t//** The constructor sets the smart contract owner as the address that put the create contract transaction onto the blockchain**//\n    constructor (address companyDataContract) public {\n    \n            Owner = msg.sender;\n            linkedCompany = companyDataContract;\n            \n    }  \n    \n    /*********************Start of SET functions**************************************************/\n    \n    function setOwner(address newOwner) external ifOwner() {\n        \n        Owner = newOwner;\n        \n    } \n    \n    function setLinkedCompany(address newLinkedCompany) external ifOwner() {\n        \n       linkedCompany = newLinkedCompany;\n        \n    } \n    \n    function setExpiryDate(uint voteId, uint newExpiryDate) external  ifOwner() {\n    \n        id[voteId].expiry_date = newExpiryDate;\n\n    }\n    \n    function setSecurityType(uint voteId, uint securityId, string calldata newSecurityType) external ifOwner()  {\n        \n        id[voteId].security_types[securityId] = newSecurityType;\n        \n    }\n    \n    function setVoteQuestion(uint voteId, string calldata newQuestion) external ifOwner()  {\n        \n        id[voteId].vote_question = newQuestion;\n        \n    }\n    \n    function setVoteOption(uint voteId, uint optionId, string calldata newVoteOption) external ifOwner() {\n\n        id[voteId].vote_option[optionId].name = newVoteOption;\n        \n    }\n    \n    function setVoteOptionCount(uint voteId, bool add, uint number) external  ifOwner() {\n        \n        if (add == true){\n            id[voteId].optionCount = id[voteId].optionCount + number;    \n        } else {\n            id[voteId].optionCount = id[voteId].optionCount - number;\n        }\n        \n    }\n    \n    function setVoteAnswer(uint voteId, uint investorId, uint256 newDate, string calldata newValue, uint newOptionId) external ifOwner() {\n        \n        id[voteId].vote_answer[investorId].date = newDate;\n        id[voteId].vote_answer[investorId].value = newValue;\n        id[voteId].vote_answer[investorId].optionId = newOptionId;\n        \n    }\n    \n    function setVoterRecorded(uint voteId, uint voterId, uint investorId) external ifOwner() {\n\n        id[voteId].voter_recorded[voterId] = investorId;\n        \n    }\n    \n    function setVoterCount(uint voteId, bool add, uint number) external ifOwner() {\n        \n        if (add == true){\n            id[voteId].voterCount = id[voteId].voterCount + number;\n        } else {\n            id[voteId].voterCount = id[voteId].voterCount - number;\n        }\n        \n    }\n    \n    function setVoteStarted(uint voteId) external ifOwner() {\n\n        id[voteId].started = true;\n\n    }\n    \n    function setVoteFinished(uint voteId) external ifOwner() {\n\n        id[voteId].finished = true;\n\n    }\n    \n    function setVoteOptionTally(uint voteId, uint voteOptionId, bool add, uint number) external ifOwner() {\n        \n        if (add == true){\n            id[voteId].vote_option[voteOptionId].tally = id[voteId].vote_option[voteOptionId].tally + number;    \n        } else {\n            id[voteId].vote_option[voteOptionId].tally = id[voteId].vote_option[voteOptionId].tally - number;\n        }\n        \n    }\n    \n    function ChangeVoteCount(bool add, uint number) external {\n        \n        if (add == true){\n            voteCount = voteCount + number;    \n        } else {\n            voteCount = voteCount - number;\n        }\n        \n    }\n    \n    /***********************End of SET functions**************************************************/\n\n\n    /*********************Start of GET functions**************************************************/\n    \n    function getOwner() public view returns (address) {\n        return Owner;\n    }\n    \n    function getLinkedCompany() public view returns (address) {\n        return linkedCompany;\n    }\n    \n    function getVoteExpiryDate(uint voteId) public view returns (uint256) {\n        return id[voteId].expiry_date;\n    }\n    \n    function getVoteSecurityType(uint voteId, uint securityTypeId) public view returns (string memory){\n        return id[voteId].security_types[securityTypeId];\n    }\n    \n    function getVoteQuestion(uint voteId) public view returns (string memory){\n        return id[voteId].vote_question;\n    }\n    \n    function getVoteOptionName(uint voteId, uint voteOptionId) public view returns (string memory){\n        return id[voteId].vote_option[voteOptionId].name;\n    }\n    \n    function getVoteOptionTally(uint voteId, uint voteOptionId) public view returns (uint){\n        return id[voteId].vote_option[voteOptionId].tally;\n    }\n    \n    function getVoteOptionCount(uint voteId) public view returns (uint) {\n        return id[voteId].optionCount;\n    }\n    \n    function getVoteAnswerDate(uint voteId, uint investorId) public view  returns (uint256) {\n        return id[voteId].vote_answer[investorId].date;\n    }\n    \n    function getVoteAnswerValue(uint voteId, uint investorId) public view  returns (string memory){\n        return id[voteId].vote_answer[investorId].value;\n    }\n    \n    function getVoteAnswerOptionId(uint voteId, uint investorId) public view  returns (uint){\n        return id[voteId].vote_answer[investorId].optionId;\n    }\n    \n    function getVoterRecorded(uint voteId, uint investorId) public view  returns (uint) {\n        return id[voteId].voter_recorded[investorId];\n    }\n    \n    function getVoterCount(uint voteId) public view  returns (uint) {\n        return id[voteId].voterCount;\n    }\n    \n    function getVoteStarted(uint voteId) public view  returns (bool){\n        return id[voteId].started;\n    }\n    \n    function getVoteFinished(uint voteId) public view  returns (bool){\n        return id[voteId].finished;\n    }\n    \n    function getNumberOfVotes() public view  returns(uint){\n        return voteCount;\n    }\n    \n    \n    /***********************End of GET functions**************************************************/\n    \n}\n",
  "sourcePath": "/home/luke/Documents/Code/AAMAS/volt_v2/TruffleVersion/contracts/VotingData.sol",
  "compiler": {
    "name": "solc",
    "version": "0.5.0+commit.1d4f565a.Emscripten.clang"
  },
  "schemaVersion": "3.0.1",
  "updatedAt": "2019-05-15T17:07:17.082Z",
  "devdoc": {
    "methods": {}
  },
  "userdoc": {
    "methods": {
      "constructor": "****** Start of Functions  ********",
      "getOwner()": {
        "notice": "*******************Start of GET functions*************************************************"
      },
      "setOwner(address)": {
        "notice": "*******************Start of SET functions*************************************************"
      }
    }
  }
}